{
  "_format": "hh-sol-artifact-1",
  "contractName": "DAO",
  "sourceName": "maskly/blockchain/contracts/DAO.sol",
  "abi": [
    {
      "inputs": [],
      "stateMutability": "nonpayable",
      "type": "constructor"
    },
    {
      "anonymous": false,
      "inputs": [
        {
          "indexed": true,
          "internalType": "uint256",
          "name": "proposalId",
          "type": "uint256"
        },
        {
          "indexed": false,
          "internalType": "address",
          "name": "proposer",
          "type": "address"
        },
        {
          "indexed": false,
          "internalType": "string",
          "name": "description",
          "type": "string"
        }
      ],
      "name": "ProposalCreated",
      "type": "event"
    },
    {
      "anonymous": false,
      "inputs": [
        {
          "indexed": true,
          "internalType": "bytes32",
          "name": "role",
          "type": "bytes32"
        },
        {
          "indexed": true,
          "internalType": "bytes32",
          "name": "previousAdminRole",
          "type": "bytes32"
        },
        {
          "indexed": true,
          "internalType": "bytes32",
          "name": "newAdminRole",
          "type": "bytes32"
        }
      ],
      "name": "RoleAdminChanged",
      "type": "event"
    },
    {
      "anonymous": false,
      "inputs": [
        {
          "indexed": true,
          "internalType": "bytes32",
          "name": "role",
          "type": "bytes32"
        },
        {
          "indexed": true,
          "internalType": "address",
          "name": "account",
          "type": "address"
        },
        {
          "indexed": true,
          "internalType": "address",
          "name": "sender",
          "type": "address"
        }
      ],
      "name": "RoleGranted",
      "type": "event"
    },
    {
      "anonymous": false,
      "inputs": [
        {
          "indexed": true,
          "internalType": "bytes32",
          "name": "role",
          "type": "bytes32"
        },
        {
          "indexed": true,
          "internalType": "address",
          "name": "account",
          "type": "address"
        },
        {
          "indexed": true,
          "internalType": "address",
          "name": "sender",
          "type": "address"
        }
      ],
      "name": "RoleRevoked",
      "type": "event"
    },
    {
      "anonymous": false,
      "inputs": [
        {
          "indexed": true,
          "internalType": "uint256",
          "name": "proposalId",
          "type": "uint256"
        },
        {
          "indexed": false,
          "internalType": "address",
          "name": "voter",
          "type": "address"
        },
        {
          "indexed": false,
          "internalType": "bool",
          "name": "support",
          "type": "bool"
        }
      ],
      "name": "Voted",
      "type": "event"
    },
    {
      "inputs": [],
      "name": "DEFAULT_ADMIN_ROLE",
      "outputs": [
        {
          "internalType": "bytes32",
          "name": "",
          "type": "bytes32"
        }
      ],
      "stateMutability": "view",
      "type": "function"
    },
    {
      "inputs": [],
      "name": "PROPOSER_ROLE",
      "outputs": [
        {
          "internalType": "bytes32",
          "name": "",
          "type": "bytes32"
        }
      ],
      "stateMutability": "view",
      "type": "function"
    },
    {
      "inputs": [],
      "name": "VOTER_ROLE",
      "outputs": [
        {
          "internalType": "bytes32",
          "name": "",
          "type": "bytes32"
        }
      ],
      "stateMutability": "view",
      "type": "function"
    },
    {
      "inputs": [
        {
          "internalType": "string",
          "name": "description",
          "type": "string"
        }
      ],
      "name": "createProposal",
      "outputs": [],
      "stateMutability": "nonpayable",
      "type": "function"
    },
    {
      "inputs": [
        {
          "internalType": "uint256",
          "name": "proposalId",
          "type": "uint256"
        }
      ],
      "name": "executeProposal",
      "outputs": [],
      "stateMutability": "nonpayable",
      "type": "function"
    },
    {
      "inputs": [
        {
          "internalType": "bytes32",
          "name": "role",
          "type": "bytes32"
        }
      ],
      "name": "getRoleAdmin",
      "outputs": [
        {
          "internalType": "bytes32",
          "name": "",
          "type": "bytes32"
        }
      ],
      "stateMutability": "view",
      "type": "function"
    },
    {
      "inputs": [
        {
          "internalType": "bytes32",
          "name": "role",
          "type": "bytes32"
        },
        {
          "internalType": "address",
          "name": "account",
          "type": "address"
        }
      ],
      "name": "grantRole",
      "outputs": [],
      "stateMutability": "nonpayable",
      "type": "function"
    },
    {
      "inputs": [
        {
          "internalType": "bytes32",
          "name": "role",
          "type": "bytes32"
        },
        {
          "internalType": "address",
          "name": "account",
          "type": "address"
        }
      ],
      "name": "hasRole",
      "outputs": [
        {
          "internalType": "bool",
          "name": "",
          "type": "bool"
        }
      ],
      "stateMutability": "view",
      "type": "function"
    },
    {
      "inputs": [],
      "name": "proposalCount",
      "outputs": [
        {
          "internalType": "uint256",
          "name": "",
          "type": "uint256"
        }
      ],
      "stateMutability": "view",
      "type": "function"
    },
    {
      "inputs": [
        {
          "internalType": "uint256",
          "name": "",
          "type": "uint256"
        }
      ],
      "name": "proposals",
      "outputs": [
        {
          "internalType": "uint256",
          "name": "id",
          "type": "uint256"
        },
        {
          "internalType": "address",
          "name": "proposer",
          "type": "address"
        },
        {
          "internalType": "string",
          "name": "description",
          "type": "string"
        },
        {
          "internalType": "uint256",
          "name": "votesFor",
          "type": "uint256"
        },
        {
          "internalType": "uint256",
          "name": "votesAgainst",
          "type": "uint256"
        },
        {
          "internalType": "bool",
          "name": "executed",
          "type": "bool"
        }
      ],
      "stateMutability": "view",
      "type": "function"
    },
    {
      "inputs": [
        {
          "internalType": "bytes32",
          "name": "role",
          "type": "bytes32"
        },
        {
          "internalType": "address",
          "name": "account",
          "type": "address"
        }
      ],
      "name": "renounceRole",
      "outputs": [],
      "stateMutability": "nonpayable",
      "type": "function"
    },
    {
      "inputs": [
        {
          "internalType": "bytes32",
          "name": "role",
          "type": "bytes32"
        },
        {
          "internalType": "address",
          "name": "account",
          "type": "address"
        }
      ],
      "name": "revokeRole",
      "outputs": [],
      "stateMutability": "nonpayable",
      "type": "function"
    },
    {
      "inputs": [
        {
          "internalType": "bytes4",
          "name": "interfaceId",
          "type": "bytes4"
        }
      ],
      "name": "supportsInterface",
      "outputs": [
        {
          "internalType": "bool",
          "name": "",
          "type": "bool"
        }
      ],
      "stateMutability": "view",
      "type": "function"
    },
    {
      "inputs": [
        {
          "internalType": "uint256",
          "name": "proposalId",
          "type": "uint256"
        },
        {
          "internalType": "bool",
          "name": "support",
          "type": "bool"
        }
      ],
      "name": "vote",
      "outputs": [],
      "stateMutability": "nonpayable",
      "type": "function"
    }
  ],
  "bytecode": "0x608060405234801561001057600080fd5b5061001c600033610075565b6100467fb09aa5aeb3702cfd50b6b62bc4532604938f21248a27a1d5ca736082b6819cc133610075565b6100707f72c3eec1760bf69946625c2d4fb8e44e2c806345041960b434674fb9ab3976cf33610075565b610121565b61007f8282610083565b5050565b6000828152602081815260408083206001600160a01b038516845290915290205460ff1661007f576000828152602081815260408083206001600160a01b03851684529091529020805460ff191660011790556100dd3390565b6001600160a01b0316816001600160a01b0316837f2f8788117e7eff1d82e926ec794901d17c78024a50270940304540a733656f0d60405160405180910390a45050565b610f1b806101306000396000f3fe608060405234801561001057600080fd5b50600436106100ea5760003560e01c80638f61f4f51161008c578063a94015c811610066578063a94015c814610201578063c9d27afe14610228578063d547741f1461023b578063da35c6641461024e57600080fd5b80638f61f4f5146101bf57806391d14854146101e6578063a217fddf146101f957600080fd5b8063248a9ca3116100c8578063248a9ca3146101555780632f2ff15d1461018657806336568abe1461019957806349c2a1a6146101ac57600080fd5b8063013cf08b146100ef57806301ffc9a71461011d5780630d61b51914610140575b600080fd5b6101026100fd366004610a59565b610257565b60405161011496959493929190610ac2565b60405180910390f35b61013061012b366004610b0c565b610324565b6040519015158152602001610114565b61015361014e366004610a59565b61035b565b005b610178610163366004610a59565b60009081526020819052604090206001015490565b604051908152602001610114565b610153610194366004610b36565b610433565b6101536101a7366004610b36565b61045d565b6101536101ba366004610b88565b6104db565b6101787fb09aa5aeb3702cfd50b6b62bc4532604938f21248a27a1d5ca736082b6819cc181565b6101306101f4366004610b36565b610594565b610178600081565b6101787f72c3eec1760bf69946625c2d4fb8e44e2c806345041960b434674fb9ab3976cf81565b610153610236366004610c39565b6105bd565b610153610249366004610b36565b610730565b61017860015481565b600260208190526000918252604090912080546001820154928201805491936001600160a01b0316929161028a90610c63565b80601f01602080910402602001604051908101604052809291908181526020018280546102b690610c63565b80156103035780601f106102d857610100808354040283529160200191610303565b820191906000526020600020905b8154815290600101906020018083116102e657829003601f168201915b50505050600383015460048401546005909401549293909290915060ff1686565b60006001600160e01b03198216637965db0b60e01b148061035557506301ffc9a760e01b6001600160e01b03198316145b92915050565b600061036681610755565b6000828152600260205260409020600581015460ff16156103ca5760405162461bcd60e51b8152602060048201526019602482015278141c9bdc1bdcd85b08185b1c9958591e48195e1958dd5d1959603a1b60448201526064015b60405180910390fd5b80600401548160030154116104215760405162461bcd60e51b815260206004820152601e60248201527f4e6f7420656e6f75676820766f74657320666f7220657865637574696f6e000060448201526064016103c1565b600501805460ff191660011790555050565b60008281526020819052604090206001015461044e81610755565b6104588383610762565b505050565b6001600160a01b03811633146104cd5760405162461bcd60e51b815260206004820152602f60248201527f416363657373436f6e74726f6c3a2063616e206f6e6c792072656e6f756e636560448201526e103937b632b9903337b91039b2b63360891b60648201526084016103c1565b6104d782826107e6565b5050565b7fb09aa5aeb3702cfd50b6b62bc4532604938f21248a27a1d5ca736082b6819cc161050581610755565b6001805490600061051583610cb3565b909155505060018054600081815260026020819052604090912091825591810180546001600160a01b031916331790559081016105528482610d1a565b506001547f7585f467599d0f008985f231af99293be388626ac16ca59505c2f8f88969cd633385604051610587929190610dda565b60405180910390a2505050565b6000918252602082815260408084206001600160a01b0393909316845291905290205460ff1690565b7f72c3eec1760bf69946625c2d4fb8e44e2c806345041960b434674fb9ab3976cf6105e781610755565b6000838152600260205260409020600581015460ff16156106465760405162461bcd60e51b8152602060048201526019602482015278141c9bdc1bdcd85b08185b1c9958591e48195e1958dd5d1959603a1b60448201526064016103c1565b33600090815260068201602052604090205460ff16156106985760405162461bcd60e51b815260206004820152600d60248201526c105b1c9958591e481d9bdd1959609a1b60448201526064016103c1565b3360009081526006820160205260409020805460ff1916600117905582156106d6576003810180549060006106cc83610cb3565b91905055506106ee565b6004810180549060006106e883610cb3565b91905055505b60408051338152841515602082015285917ff2913dbe661ee2acc4a046d8fbcdc792373bda34c41c6086484b5345e5785e5f910160405180910390a250505050565b60008281526020819052604090206001015461074b81610755565b61045883836107e6565b61075f813361084b565b50565b61076c8282610594565b6104d7576000828152602081815260408083206001600160a01b03851684529091529020805460ff191660011790556107a23390565b6001600160a01b0316816001600160a01b0316837f2f8788117e7eff1d82e926ec794901d17c78024a50270940304540a733656f0d60405160405180910390a45050565b6107f08282610594565b156104d7576000828152602081815260408083206001600160a01b0385168085529252808320805460ff1916905551339285917ff6391f5c32d9c69d2a47ea670b442974b53935d1edc7fd64eb21e047a839171b9190a45050565b6108558282610594565b6104d757610862816108a4565b61086d8360206108b6565b60405160200161087e929190610e06565b60408051601f198184030181529082905262461bcd60e51b82526103c191600401610e7b565b60606103556001600160a01b03831660145b606060006108c5836002610e8e565b6108d0906002610ea5565b67ffffffffffffffff8111156108e8576108e8610b72565b6040519080825280601f01601f191660200182016040528015610912576020820181803683370190505b509050600360fc1b8160008151811061092d5761092d610eb8565b60200101906001600160f81b031916908160001a905350600f60fb1b8160018151811061095c5761095c610eb8565b60200101906001600160f81b031916908160001a9053506000610980846002610e8e565b61098b906001610ea5565b90505b6001811115610a03576f181899199a1a9b1b9c1cb0b131b232b360811b85600f16601081106109bf576109bf610eb8565b1a60f81b8282815181106109d5576109d5610eb8565b60200101906001600160f81b031916908160001a90535060049490941c936109fc81610ece565b905061098e565b508315610a525760405162461bcd60e51b815260206004820181905260248201527f537472696e67733a20686578206c656e67746820696e73756666696369656e7460448201526064016103c1565b9392505050565b600060208284031215610a6b57600080fd5b5035919050565b60005b83811015610a8d578181015183820152602001610a75565b50506000910152565b60008151808452610aae816020860160208601610a72565b601f01601f19169290920160200192915050565b8681526001600160a01b038616602082015260c060408201819052600090610aec90830187610a96565b6060830195909552506080810192909252151560a0909101529392505050565b600060208284031215610b1e57600080fd5b81356001600160e01b031981168114610a5257600080fd5b60008060408385031215610b4957600080fd5b8235915060208301356001600160a01b0381168114610b6757600080fd5b809150509250929050565b634e487b7160e01b600052604160045260246000fd5b600060208284031215610b9a57600080fd5b813567ffffffffffffffff80821115610bb257600080fd5b818401915084601f830112610bc657600080fd5b813581811115610bd857610bd8610b72565b604051601f8201601f19908116603f01168101908382118183101715610c0057610c00610b72565b81604052828152876020848701011115610c1957600080fd5b826020860160208301376000928101602001929092525095945050505050565b60008060408385031215610c4c57600080fd5b8235915060208301358015158114610b6757600080fd5b600181811c90821680610c7757607f821691505b602082108103610c9757634e487b7160e01b600052602260045260246000fd5b50919050565b634e487b7160e01b600052601160045260246000fd5b600060018201610cc557610cc5610c9d565b5060010190565b601f82111561045857600081815260208120601f850160051c81016020861015610cf35750805b601f850160051c820191505b81811015610d1257828155600101610cff565b505050505050565b815167ffffffffffffffff811115610d3457610d34610b72565b610d4881610d428454610c63565b84610ccc565b602080601f831160018114610d7d5760008415610d655750858301515b600019600386901b1c1916600185901b178555610d12565b600085815260208120601f198616915b82811015610dac57888601518255948401946001909101908401610d8d565b5085821015610dca5787850151600019600388901b60f8161c191681555b5050505050600190811b01905550565b6001600160a01b0383168152604060208201819052600090610dfe90830184610a96565b949350505050565b7f416363657373436f6e74726f6c3a206163636f756e7420000000000000000000815260008351610e3e816017850160208801610a72565b7001034b99036b4b9b9b4b733903937b6329607d1b6017918401918201528351610e6f816028840160208801610a72565b01602801949350505050565b602081526000610a526020830184610a96565b808202811582820484141761035557610355610c9d565b8082018082111561035557610355610c9d565b634e487b7160e01b600052603260045260246000fd5b600081610edd57610edd610c9d565b50600019019056fea264697066735822122003b96af80fd6d0cf1c10c771b3f404c2f4d9e85dc32177cf4fda0ff426c3427a64736f6c63430008140033",
  "linkReferences": {},
  "deployedLinkReferences": {}
}