{
  "_format": "hh-sol-artifact-1",
  "contractName": "DAO",
  "sourceName": "maskly/blockchain/contracts/governance/DAO.sol",
  "abi": [
    {
      "inputs": [
        {
          "internalType": "uint256",
          "name": "_quorumPercentage",
          "type": "uint256"
        },
        {
          "internalType": "uint256",
          "name": "_votingPeriod",
          "type": "uint256"
        },
        {
          "internalType": "address",
          "name": "tokenAddress",
          "type": "address"
        }
      ],
      "stateMutability": "nonpayable",
      "type": "constructor"
    },
    {
      "anonymous": false,
      "inputs": [
        {
          "indexed": false,
          "internalType": "uint256",
          "name": "proposalId",
          "type": "uint256"
        },
        {
          "indexed": false,
          "internalType": "address",
          "name": "proposer",
          "type": "address"
        },
        {
          "indexed": false,
          "internalType": "string",
          "name": "description",
          "type": "string"
        }
      ],
      "name": "ProposalCreated",
      "type": "event"
    },
    {
      "anonymous": false,
      "inputs": [
        {
          "indexed": true,
          "internalType": "bytes32",
          "name": "role",
          "type": "bytes32"
        },
        {
          "indexed": true,
          "internalType": "bytes32",
          "name": "previousAdminRole",
          "type": "bytes32"
        },
        {
          "indexed": true,
          "internalType": "bytes32",
          "name": "newAdminRole",
          "type": "bytes32"
        }
      ],
      "name": "RoleAdminChanged",
      "type": "event"
    },
    {
      "anonymous": false,
      "inputs": [
        {
          "indexed": true,
          "internalType": "bytes32",
          "name": "role",
          "type": "bytes32"
        },
        {
          "indexed": true,
          "internalType": "address",
          "name": "account",
          "type": "address"
        },
        {
          "indexed": true,
          "internalType": "address",
          "name": "sender",
          "type": "address"
        }
      ],
      "name": "RoleGranted",
      "type": "event"
    },
    {
      "anonymous": false,
      "inputs": [
        {
          "indexed": true,
          "internalType": "bytes32",
          "name": "role",
          "type": "bytes32"
        },
        {
          "indexed": true,
          "internalType": "address",
          "name": "account",
          "type": "address"
        },
        {
          "indexed": true,
          "internalType": "address",
          "name": "sender",
          "type": "address"
        }
      ],
      "name": "RoleRevoked",
      "type": "event"
    },
    {
      "anonymous": false,
      "inputs": [
        {
          "indexed": false,
          "internalType": "uint256",
          "name": "proposalId",
          "type": "uint256"
        },
        {
          "indexed": false,
          "internalType": "address",
          "name": "voter",
          "type": "address"
        },
        {
          "indexed": false,
          "internalType": "bool",
          "name": "support",
          "type": "bool"
        }
      ],
      "name": "VoteCast",
      "type": "event"
    },
    {
      "inputs": [],
      "name": "DEFAULT_ADMIN_ROLE",
      "outputs": [
        {
          "internalType": "bytes32",
          "name": "",
          "type": "bytes32"
        }
      ],
      "stateMutability": "view",
      "type": "function"
    },
    {
      "inputs": [],
      "name": "PROPOSER_ROLE",
      "outputs": [
        {
          "internalType": "bytes32",
          "name": "",
          "type": "bytes32"
        }
      ],
      "stateMutability": "view",
      "type": "function"
    },
    {
      "inputs": [],
      "name": "VOTER_ROLE",
      "outputs": [
        {
          "internalType": "bytes32",
          "name": "",
          "type": "bytes32"
        }
      ],
      "stateMutability": "view",
      "type": "function"
    },
    {
      "inputs": [
        {
          "internalType": "uint256",
          "name": "proposalId",
          "type": "uint256"
        },
        {
          "internalType": "bool",
          "name": "support",
          "type": "bool"
        }
      ],
      "name": "castVote",
      "outputs": [],
      "stateMutability": "nonpayable",
      "type": "function"
    },
    {
      "inputs": [
        {
          "internalType": "string",
          "name": "description",
          "type": "string"
        }
      ],
      "name": "createProposal",
      "outputs": [],
      "stateMutability": "nonpayable",
      "type": "function"
    },
    {
      "inputs": [
        {
          "internalType": "uint256",
          "name": "proposalId",
          "type": "uint256"
        }
      ],
      "name": "executeProposal",
      "outputs": [],
      "stateMutability": "nonpayable",
      "type": "function"
    },
    {
      "inputs": [
        {
          "internalType": "bytes32",
          "name": "role",
          "type": "bytes32"
        }
      ],
      "name": "getRoleAdmin",
      "outputs": [
        {
          "internalType": "bytes32",
          "name": "",
          "type": "bytes32"
        }
      ],
      "stateMutability": "view",
      "type": "function"
    },
    {
      "inputs": [],
      "name": "governanceToken",
      "outputs": [
        {
          "internalType": "contract IERC20",
          "name": "",
          "type": "address"
        }
      ],
      "stateMutability": "view",
      "type": "function"
    },
    {
      "inputs": [
        {
          "internalType": "bytes32",
          "name": "role",
          "type": "bytes32"
        },
        {
          "internalType": "address",
          "name": "account",
          "type": "address"
        }
      ],
      "name": "grantRole",
      "outputs": [],
      "stateMutability": "nonpayable",
      "type": "function"
    },
    {
      "inputs": [
        {
          "internalType": "bytes32",
          "name": "role",
          "type": "bytes32"
        },
        {
          "internalType": "address",
          "name": "account",
          "type": "address"
        }
      ],
      "name": "hasRole",
      "outputs": [
        {
          "internalType": "bool",
          "name": "",
          "type": "bool"
        }
      ],
      "stateMutability": "view",
      "type": "function"
    },
    {
      "inputs": [
        {
          "internalType": "address",
          "name": "",
          "type": "address"
        },
        {
          "internalType": "uint256",
          "name": "",
          "type": "uint256"
        }
      ],
      "name": "hasVoted",
      "outputs": [
        {
          "internalType": "bool",
          "name": "",
          "type": "bool"
        }
      ],
      "stateMutability": "view",
      "type": "function"
    },
    {
      "inputs": [],
      "name": "pause",
      "outputs": [],
      "stateMutability": "nonpayable",
      "type": "function"
    },
    {
      "inputs": [],
      "name": "paused",
      "outputs": [
        {
          "internalType": "bool",
          "name": "",
          "type": "bool"
        }
      ],
      "stateMutability": "view",
      "type": "function"
    },
    {
      "inputs": [
        {
          "internalType": "uint256",
          "name": "",
          "type": "uint256"
        }
      ],
      "name": "proposals",
      "outputs": [
        {
          "internalType": "uint256",
          "name": "id",
          "type": "uint256"
        },
        {
          "internalType": "address",
          "name": "proposer",
          "type": "address"
        },
        {
          "internalType": "string",
          "name": "description",
          "type": "string"
        },
        {
          "internalType": "uint256",
          "name": "voteCount",
          "type": "uint256"
        },
        {
          "internalType": "uint256",
          "name": "againstCount",
          "type": "uint256"
        },
        {
          "internalType": "uint256",
          "name": "startTime",
          "type": "uint256"
        },
        {
          "internalType": "bool",
          "name": "executed",
          "type": "bool"
        }
      ],
      "stateMutability": "view",
      "type": "function"
    },
    {
      "inputs": [],
      "name": "quorumPercentage",
      "outputs": [
        {
          "internalType": "uint256",
          "name": "",
          "type": "uint256"
        }
      ],
      "stateMutability": "view",
      "type": "function"
    },
    {
      "inputs": [
        {
          "internalType": "bytes32",
          "name": "role",
          "type": "bytes32"
        },
        {
          "internalType": "address",
          "name": "account",
          "type": "address"
        }
      ],
      "name": "renounceRole",
      "outputs": [],
      "stateMutability": "nonpayable",
      "type": "function"
    },
    {
      "inputs": [
        {
          "internalType": "bytes32",
          "name": "role",
          "type": "bytes32"
        },
        {
          "internalType": "address",
          "name": "account",
          "type": "address"
        }
      ],
      "name": "revokeRole",
      "outputs": [],
      "stateMutability": "nonpayable",
      "type": "function"
    },
    {
      "inputs": [
        {
          "internalType": "bytes4",
          "name": "interfaceId",
          "type": "bytes4"
        }
      ],
      "name": "supportsInterface",
      "outputs": [
        {
          "internalType": "bool",
          "name": "",
          "type": "bool"
        }
      ],
      "stateMutability": "view",
      "type": "function"
    },
    {
      "inputs": [],
      "name": "unpause",
      "outputs": [],
      "stateMutability": "nonpayable",
      "type": "function"
    },
    {
      "inputs": [],
      "name": "votingContract",
      "outputs": [
        {
          "internalType": "contract Voting",
          "name": "",
          "type": "address"
        }
      ],
      "stateMutability": "view",
      "type": "function"
    },
    {
      "inputs": [],
      "name": "votingPeriod",
      "outputs": [
        {
          "internalType": "uint256",
          "name": "",
          "type": "uint256"
        }
      ],
      "stateMutability": "view",
      "type": "function"
    }
  ],
  "bytecode": "0x60806040523480156200001157600080fd5b506040516200189c3803806200189c83398101604081905262000034916200023c565b60018055821580159062000049575060648311155b6200009b5760405162461bcd60e51b815260206004820152601960248201527f496e76616c69642071756f72756d2070657263656e746167650000000000000060448201526064015b60405180910390fd5b60008211620000f95760405162461bcd60e51b8152602060048201526024808201527f566f74696e6720706572696f64206d75737420626520677265617465722074686044820152630616e20360e41b606482015260840162000092565b600680546001600160a01b0319166001600160a01b038316179055600383905560048290556200012b6000336200018c565b620001577fb09aa5aeb3702cfd50b6b62bc4532604938f21248a27a1d5ca736082b6819cc1336200018c565b620001837f72c3eec1760bf69946625c2d4fb8e44e2c806345041960b434674fb9ab3976cf336200018c565b50505062000284565b6200019882826200019c565b5050565b6000828152602081815260408083206001600160a01b038516845290915290205460ff1662000198576000828152602081815260408083206001600160a01b03851684529091529020805460ff19166001179055620001f83390565b6001600160a01b0316816001600160a01b0316837f2f8788117e7eff1d82e926ec794901d17c78024a50270940304540a733656f0d60405160405180910390a45050565b6000806000606084860312156200025257600080fd5b83516020850151604086015191945092506001600160a01b03811681146200027957600080fd5b809150509250925092565b61160880620002946000396000f3fe608060405234801561001057600080fd5b50600436106101375760003560e01c806349c2a1a6116100b857806391d148541161007c57806391d14854146102a4578063a217fddf146102b7578063a94015c8146102bf578063c1fc006a146102e6578063d547741f14610316578063f96dae0a1461032957600080fd5b806349c2a1a61461024c5780634fa76ec91461025f5780635c975abb146102685780638456cb59146102755780638f61f4f51461027d57600080fd5b8063248a9ca3116100ff578063248a9ca3146101cd5780632f2ff15d146101f057806336568abe146102035780633f4ba83a14610216578063425458251461021e57600080fd5b8063013cf08b1461013c57806301ffc9a71461016b57806302a251a31461018e5780630d61b519146101a557806315373e3d146101ba575b600080fd5b61014f61014a3660046110a8565b61033c565b6040516101629796959493929190611111565b60405180910390f35b61017e610179366004611163565b610421565b6040519015158152602001610162565b61019760045481565b604051908152602001610162565b6101b86101b33660046110a8565b610458565b005b6101b86101c836600461118d565b610667565b6101976101db3660046110a8565b60009081526020819052604090206001015490565b6101b86101fe3660046111de565b610a19565b6101b86102113660046111de565b610a43565b6101b8610abd565b61017e61022c36600461120a565b600760209081526000928352604080842090915290825290205460ff1681565b6101b861025a36600461124a565b610ad5565b61019760035481565b60025461017e9060ff1681565b6101b8610ce5565b6101977fb09aa5aeb3702cfd50b6b62bc4532604938f21248a27a1d5ca736082b6819cc181565b61017e6102b23660046111de565b610d00565b610197600081565b6101977f72c3eec1760bf69946625c2d4fb8e44e2c806345041960b434674fb9ab3976cf81565b6002546102fe9061010090046001600160a01b031681565b6040516001600160a01b039091168152602001610162565b6101b86103243660046111de565b610d29565b6006546102fe906001600160a01b031681565b6005818154811061034c57600080fd5b60009182526020909120600790910201805460018201546002830180549294506001600160a01b039091169291610382906112fb565b80601f01602080910402602001604051908101604052809291908181526020018280546103ae906112fb565b80156103fb5780601f106103d0576101008083540402835291602001916103fb565b820191906000526020600020905b8154815290600101906020018083116103de57829003601f168201915b505050506003830154600484015460058501546006909501549394919390925060ff1687565b60006001600160e01b03198216637965db0b60e01b148061045257506301ffc9a760e01b6001600160e01b03198316145b92915050565b610460610d4e565b60025460ff161561048c5760405162461bcd60e51b815260040161048390611335565b60405180910390fd5b600061049781610da7565b6000600583815481106104ac576104ac611361565b60009182526020909120600790910201600681015490915060ff16156105105760405162461bcd60e51b8152602060048201526019602482015278141c9bdc1bdcd85b08185b1c9958591e48195e1958dd5d1959603a1b6044820152606401610483565b6004548160050154610522919061138d565b42116105705760405162461bcd60e51b815260206004820152601f60248201527f566f74696e6720706572696f6420686173206e6f7420656e64656420796574006044820152606401610483565b600081600401548260030154610586919061138d565b9050600060646003546105a069d3c21bcecceda100000090565b6105aa91906113a0565b6105b491906113b7565b9050808210156105fb5760405162461bcd60e51b8152602060048201526012602482015271145d5bdc9d5b481b9bdd081c995858da195960721b6044820152606401610483565b826004015483600301541161064a5760405162461bcd60e51b815260206004820152601560248201527450726f706f73616c20646964206e6f74207061737360581b6044820152606401610483565b5050600601805460ff191660011790555061066460018055565b50565b61066f610d4e565b60025460ff16156106925760405162461bcd60e51b815260040161048390611335565b7f72c3eec1760bf69946625c2d4fb8e44e2c806345041960b434674fb9ab3976cf6106bc81610da7565b60055483106107035760405162461bcd60e51b8152602060048201526013602482015272125b9d985b1a59081c1c9bdc1bdcd85b081251606a1b6044820152606401610483565b33600090815260076020908152604080832086845290915290205460ff161561075e5760405162461bcd60e51b815260206004820152600d60248201526c105b1c9958591e481d9bdd1959609a1b6044820152606401610483565b6004546005848154811061077457610774611361565b906000526020600020906007020160050154610790919061138d565b42106107de5760405162461bcd60e51b815260206004820152601760248201527f566f74696e6720706572696f642068617320656e6465640000000000000000006044820152606401610483565b600583815481106107f1576107f1611361565b600091825260209091206006600790920201015460ff16156108515760405162461bcd60e51b8152602060048201526019602482015278141c9bdc1bdcd85b08185b1c9958591e48195e1958dd5d1959603a1b6044820152606401610483565b3360009081526007602090815260408083208684529091529020805460ff191660011790558115610926576006546040516370a0823160e01b81523360048201526001600160a01b03909116906370a0823190602401602060405180830381865afa1580156108c4573d6000803e3d6000fd5b505050506040513d601f19601f820116820180604052508101906108e891906113d9565b600584815481106108fb576108fb611361565b9060005260206000209060070201600301600082825461091b919061138d565b909155506109cb9050565b6006546040516370a0823160e01b81523360048201526001600160a01b03909116906370a0823190602401602060405180830381865afa15801561096e573d6000803e3d6000fd5b505050506040513d601f19601f8201168201806040525081019061099291906113d9565b600584815481106109a5576109a5611361565b906000526020600020906007020160040160008282546109c5919061138d565b90915550505b604080518481523360208201528315158183015290517fe71fcdac32df1877c1700e7bda2a03157e20993363a28fc35ac495cefc76e4d49181900360600190a150610a1560018055565b5050565b600082815260208190526040902060010154610a3481610da7565b610a3e8383610db1565b505050565b6001600160a01b0381163314610ab35760405162461bcd60e51b815260206004820152602f60248201527f416363657373436f6e74726f6c3a2063616e206f6e6c792072656e6f756e636560448201526e103937b632b9903337b91039b2b63360891b6064820152608401610483565b610a158282610e35565b6000610ac881610da7565b506002805460ff19169055565b610add610d4e565b60025460ff1615610b005760405162461bcd60e51b815260040161048390611335565b7fb09aa5aeb3702cfd50b6b62bc4532604938f21248a27a1d5ca736082b6819cc1610b2a81610da7565b6000825111610b7b5760405162461bcd60e51b815260206004820152601b60248201527f4465736372697074696f6e2063616e6e6f7420626520656d70747900000000006044820152606401610483565b600580546040805160e0810182528281523360208201908152918101868152600060608301819052608083018190524260a084015260c083018190526001850186559490945280517f036b6384b5eca791c62761152d0c79bb0604c104a5fb6f4eb0703f3154bb3db06007850290810191825592517f036b6384b5eca791c62761152d0c79bb0604c104a5fb6f4eb0703f3154bb3db1840180546001600160a01b0319166001600160a01b0390921691909117905593519293909290917f036b6384b5eca791c62761152d0c79bb0604c104a5fb6f4eb0703f3154bb3db20190610c659082611440565b50606082015160038201556080820151600482015560a0820151600582015560c0909101516006909101805460ff19169115159190911790556040517f7585f467599d0f008985f231af99293be388626ac16ca59505c2f8f88969cd6390610cd290839033908790611500565b60405180910390a1505061066460018055565b6000610cf081610da7565b506002805460ff19166001179055565b6000918252602082815260408084206001600160a01b0393909316845291905290205460ff1690565b600082815260208190526040902060010154610d4481610da7565b610a3e8383610e35565b600260015403610da05760405162461bcd60e51b815260206004820152601f60248201527f5265656e7472616e637947756172643a207265656e7472616e742063616c6c006044820152606401610483565b6002600155565b6106648133610e9a565b610dbb8282610d00565b610a15576000828152602081815260408083206001600160a01b03851684529091529020805460ff19166001179055610df13390565b6001600160a01b0316816001600160a01b0316837f2f8788117e7eff1d82e926ec794901d17c78024a50270940304540a733656f0d60405160405180910390a45050565b610e3f8282610d00565b15610a15576000828152602081815260408083206001600160a01b0385168085529252808320805460ff1916905551339285917ff6391f5c32d9c69d2a47ea670b442974b53935d1edc7fd64eb21e047a839171b9190a45050565b610ea48282610d00565b610a1557610eb181610ef3565b610ebc836020610f05565b604051602001610ecd929190611533565b60408051601f198184030181529082905262461bcd60e51b8252610483916004016115a8565b60606104526001600160a01b03831660145b60606000610f148360026113a0565b610f1f90600261138d565b67ffffffffffffffff811115610f3757610f37611234565b6040519080825280601f01601f191660200182016040528015610f61576020820181803683370190505b509050600360fc1b81600081518110610f7c57610f7c611361565b60200101906001600160f81b031916908160001a905350600f60fb1b81600181518110610fab57610fab611361565b60200101906001600160f81b031916908160001a9053506000610fcf8460026113a0565b610fda90600161138d565b90505b6001811115611052576f181899199a1a9b1b9c1cb0b131b232b360811b85600f166010811061100e5761100e611361565b1a60f81b82828151811061102457611024611361565b60200101906001600160f81b031916908160001a90535060049490941c9361104b816115bb565b9050610fdd565b5083156110a15760405162461bcd60e51b815260206004820181905260248201527f537472696e67733a20686578206c656e67746820696e73756666696369656e746044820152606401610483565b9392505050565b6000602082840312156110ba57600080fd5b5035919050565b60005b838110156110dc5781810151838201526020016110c4565b50506000910152565b600081518084526110fd8160208601602086016110c1565b601f01601f19169290920160200192915050565b8781526001600160a01b038716602082015260e06040820181905260009061113b908301886110e5565b90508560608301528460808301528360a083015282151560c083015298975050505050505050565b60006020828403121561117557600080fd5b81356001600160e01b0319811681146110a157600080fd5b600080604083850312156111a057600080fd5b82359150602083013580151581146111b757600080fd5b809150509250929050565b80356001600160a01b03811681146111d957600080fd5b919050565b600080604083850312156111f157600080fd5b82359150611201602084016111c2565b90509250929050565b6000806040838503121561121d57600080fd5b611226836111c2565b946020939093013593505050565b634e487b7160e01b600052604160045260246000fd5b60006020828403121561125c57600080fd5b813567ffffffffffffffff8082111561127457600080fd5b818401915084601f83011261128857600080fd5b81358181111561129a5761129a611234565b604051601f8201601f19908116603f011681019083821181831017156112c2576112c2611234565b816040528281528760208487010111156112db57600080fd5b826020860160208301376000928101602001929092525095945050505050565b600181811c9082168061130f57607f821691505b60208210810361132f57634e487b7160e01b600052602260045260246000fd5b50919050565b60208082526012908201527110dbdb9d1c9858dd081a5cc81c185d5cd95960721b604082015260600190565b634e487b7160e01b600052603260045260246000fd5b634e487b7160e01b600052601160045260246000fd5b8082018082111561045257610452611377565b808202811582820484141761045257610452611377565b6000826113d457634e487b7160e01b600052601260045260246000fd5b500490565b6000602082840312156113eb57600080fd5b5051919050565b601f821115610a3e57600081815260208120601f850160051c810160208610156114195750805b601f850160051c820191505b8181101561143857828155600101611425565b505050505050565b815167ffffffffffffffff81111561145a5761145a611234565b61146e8161146884546112fb565b846113f2565b602080601f8311600181146114a3576000841561148b5750858301515b600019600386901b1c1916600185901b178555611438565b600085815260208120601f198616915b828110156114d2578886015182559484019460019091019084016114b3565b50858210156114f05787850151600019600388901b60f8161c191681555b5050505050600190811b01905550565b8381526001600160a01b038316602082015260606040820181905260009061152a908301846110e5565b95945050505050565b7f416363657373436f6e74726f6c3a206163636f756e742000000000000000000081526000835161156b8160178501602088016110c1565b7001034b99036b4b9b9b4b733903937b6329607d1b601791840191820152835161159c8160288401602088016110c1565b01602801949350505050565b6020815260006110a160208301846110e5565b6000816115ca576115ca611377565b50600019019056fea26469706673582212209f681d5c0692b8418e1794d993adc0395e961dac2f1fcfea745966b4175f6c7164736f6c63430008140033",
  "linkReferences": {},
  "deployedLinkReferences": {}
}