{
  "_format": "hh-sol-artifact-1",
  "contractName": "PoolContract",
  "sourceName": "maskly/blockchain/contracts/bridgeCore/protocols/LiquidityPool/PoolContract.sol",
  "abi": [
    {
      "inputs": [
        {
          "internalType": "address",
          "name": "_tokenA",
          "type": "address"
        },
        {
          "internalType": "address",
          "name": "_tokenB",
          "type": "address"
        }
      ],
      "stateMutability": "nonpayable",
      "type": "constructor"
    },
    {
      "anonymous": false,
      "inputs": [
        {
          "indexed": true,
          "internalType": "address",
          "name": "user",
          "type": "address"
        },
        {
          "indexed": false,
          "internalType": "uint256",
          "name": "amountA",
          "type": "uint256"
        },
        {
          "indexed": false,
          "internalType": "uint256",
          "name": "amountB",
          "type": "uint256"
        }
      ],
      "name": "LiquidityAdded",
      "type": "event"
    },
    {
      "anonymous": false,
      "inputs": [
        {
          "indexed": true,
          "internalType": "address",
          "name": "user",
          "type": "address"
        },
        {
          "indexed": false,
          "internalType": "uint256",
          "name": "amountA",
          "type": "uint256"
        },
        {
          "indexed": false,
          "internalType": "uint256",
          "name": "amountB",
          "type": "uint256"
        }
      ],
      "name": "LiquidityRemoved",
      "type": "event"
    },
    {
      "anonymous": false,
      "inputs": [
        {
          "indexed": true,
          "internalType": "bytes32",
          "name": "role",
          "type": "bytes32"
        },
        {
          "indexed": true,
          "internalType": "bytes32",
          "name": "previousAdminRole",
          "type": "bytes32"
        },
        {
          "indexed": true,
          "internalType": "bytes32",
          "name": "newAdminRole",
          "type": "bytes32"
        }
      ],
      "name": "RoleAdminChanged",
      "type": "event"
    },
    {
      "anonymous": false,
      "inputs": [
        {
          "indexed": true,
          "internalType": "bytes32",
          "name": "role",
          "type": "bytes32"
        },
        {
          "indexed": true,
          "internalType": "address",
          "name": "account",
          "type": "address"
        },
        {
          "indexed": true,
          "internalType": "address",
          "name": "sender",
          "type": "address"
        }
      ],
      "name": "RoleGranted",
      "type": "event"
    },
    {
      "anonymous": false,
      "inputs": [
        {
          "indexed": true,
          "internalType": "bytes32",
          "name": "role",
          "type": "bytes32"
        },
        {
          "indexed": true,
          "internalType": "address",
          "name": "account",
          "type": "address"
        },
        {
          "indexed": true,
          "internalType": "address",
          "name": "sender",
          "type": "address"
        }
      ],
      "name": "RoleRevoked",
      "type": "event"
    },
    {
      "inputs": [],
      "name": "DEFAULT_ADMIN_ROLE",
      "outputs": [
        {
          "internalType": "bytes32",
          "name": "",
          "type": "bytes32"
        }
      ],
      "stateMutability": "view",
      "type": "function"
    },
    {
      "inputs": [],
      "name": "FEE_DIVISOR",
      "outputs": [
        {
          "internalType": "uint256",
          "name": "",
          "type": "uint256"
        }
      ],
      "stateMutability": "view",
      "type": "function"
    },
    {
      "inputs": [],
      "name": "FEE_RATE",
      "outputs": [
        {
          "internalType": "uint256",
          "name": "",
          "type": "uint256"
        }
      ],
      "stateMutability": "view",
      "type": "function"
    },
    {
      "inputs": [],
      "name": "MANAGER_ROLE",
      "outputs": [
        {
          "internalType": "bytes32",
          "name": "",
          "type": "bytes32"
        }
      ],
      "stateMutability": "view",
      "type": "function"
    },
    {
      "inputs": [
        {
          "internalType": "uint256",
          "name": "amountA",
          "type": "uint256"
        },
        {
          "internalType": "uint256",
          "name": "amountB",
          "type": "uint256"
        }
      ],
      "name": "addLiquidity",
      "outputs": [],
      "stateMutability": "nonpayable",
      "type": "function"
    },
    {
      "inputs": [
        {
          "internalType": "uint256",
          "name": "amountIn",
          "type": "uint256"
        },
        {
          "internalType": "bool",
          "name": "isAToB",
          "type": "bool"
        }
      ],
      "name": "getAmountOut",
      "outputs": [
        {
          "internalType": "uint256",
          "name": "",
          "type": "uint256"
        }
      ],
      "stateMutability": "view",
      "type": "function"
    },
    {
      "inputs": [
        {
          "internalType": "bytes32",
          "name": "role",
          "type": "bytes32"
        }
      ],
      "name": "getRoleAdmin",
      "outputs": [
        {
          "internalType": "bytes32",
          "name": "",
          "type": "bytes32"
        }
      ],
      "stateMutability": "view",
      "type": "function"
    },
    {
      "inputs": [
        {
          "internalType": "bytes32",
          "name": "role",
          "type": "bytes32"
        },
        {
          "internalType": "address",
          "name": "account",
          "type": "address"
        }
      ],
      "name": "grantRole",
      "outputs": [],
      "stateMutability": "nonpayable",
      "type": "function"
    },
    {
      "inputs": [
        {
          "internalType": "bytes32",
          "name": "role",
          "type": "bytes32"
        },
        {
          "internalType": "address",
          "name": "account",
          "type": "address"
        }
      ],
      "name": "hasRole",
      "outputs": [
        {
          "internalType": "bool",
          "name": "",
          "type": "bool"
        }
      ],
      "stateMutability": "view",
      "type": "function"
    },
    {
      "inputs": [
        {
          "internalType": "address",
          "name": "",
          "type": "address"
        }
      ],
      "name": "liquidityBalances",
      "outputs": [
        {
          "internalType": "uint256",
          "name": "",
          "type": "uint256"
        }
      ],
      "stateMutability": "view",
      "type": "function"
    },
    {
      "inputs": [
        {
          "internalType": "uint256",
          "name": "liquidityAmount",
          "type": "uint256"
        }
      ],
      "name": "removeLiquidity",
      "outputs": [],
      "stateMutability": "nonpayable",
      "type": "function"
    },
    {
      "inputs": [
        {
          "internalType": "bytes32",
          "name": "role",
          "type": "bytes32"
        },
        {
          "internalType": "address",
          "name": "account",
          "type": "address"
        }
      ],
      "name": "renounceRole",
      "outputs": [],
      "stateMutability": "nonpayable",
      "type": "function"
    },
    {
      "inputs": [],
      "name": "reserveA",
      "outputs": [
        {
          "internalType": "uint256",
          "name": "",
          "type": "uint256"
        }
      ],
      "stateMutability": "view",
      "type": "function"
    },
    {
      "inputs": [],
      "name": "reserveB",
      "outputs": [
        {
          "internalType": "uint256",
          "name": "",
          "type": "uint256"
        }
      ],
      "stateMutability": "view",
      "type": "function"
    },
    {
      "inputs": [
        {
          "internalType": "bytes32",
          "name": "role",
          "type": "bytes32"
        },
        {
          "internalType": "address",
          "name": "account",
          "type": "address"
        }
      ],
      "name": "revokeRole",
      "outputs": [],
      "stateMutability": "nonpayable",
      "type": "function"
    },
    {
      "inputs": [
        {
          "internalType": "bytes4",
          "name": "interfaceId",
          "type": "bytes4"
        }
      ],
      "name": "supportsInterface",
      "outputs": [
        {
          "internalType": "bool",
          "name": "",
          "type": "bool"
        }
      ],
      "stateMutability": "view",
      "type": "function"
    },
    {
      "inputs": [
        {
          "internalType": "uint256",
          "name": "amountAIn",
          "type": "uint256"
        }
      ],
      "name": "swapAforB",
      "outputs": [
        {
          "internalType": "uint256",
          "name": "amountBOut",
          "type": "uint256"
        }
      ],
      "stateMutability": "nonpayable",
      "type": "function"
    },
    {
      "inputs": [
        {
          "internalType": "uint256",
          "name": "amountBIn",
          "type": "uint256"
        }
      ],
      "name": "swapBforA",
      "outputs": [
        {
          "internalType": "uint256",
          "name": "amountAOut",
          "type": "uint256"
        }
      ],
      "stateMutability": "nonpayable",
      "type": "function"
    },
    {
      "inputs": [],
      "name": "tokenA",
      "outputs": [
        {
          "internalType": "contract IERC20",
          "name": "",
          "type": "address"
        }
      ],
      "stateMutability": "view",
      "type": "function"
    },
    {
      "inputs": [],
      "name": "tokenB",
      "outputs": [
        {
          "internalType": "contract IERC20",
          "name": "",
          "type": "address"
        }
      ],
      "stateMutability": "view",
      "type": "function"
    },
    {
      "inputs": [],
      "name": "totalSupply",
      "outputs": [
        {
          "internalType": "uint256",
          "name": "",
          "type": "uint256"
        }
      ],
      "stateMutability": "view",
      "type": "function"
    }
  ],
  "bytecode": "0x60c06040523480156200001157600080fd5b5060405162001e3138038062001e31833981016040819052620000349162000159565b600180556001600160a01b03808316608052811660a052620000586000336200008c565b620000847f241ecf16d79d0f8dbfb92cbc07fe17840425976cf0667f022fe9877caa831b08336200008c565b505062000191565b6200009882826200009c565b5050565b6000828152602081815260408083206001600160a01b038516845290915290205460ff1662000098576000828152602081815260408083206001600160a01b03851684529091529020805460ff19166001179055620000f83390565b6001600160a01b0316816001600160a01b0316837f2f8788117e7eff1d82e926ec794901d17c78024a50270940304540a733656f0d60405160405180910390a45050565b80516001600160a01b03811681146200015457600080fd5b919050565b600080604083850312156200016d57600080fd5b62000178836200013c565b915062000188602084016200013c565b90509250929050565b60805160a051611c266200020b6000396000818161024f015281816105ef015281816109e201528181610c3101528181610e1d0152818161107601526113c5015260008181610169015281816106a30152818161093501528181610b4601528181610d2201528181610fc701526113110152611c266000f3fe608060405234801561001057600080fd5b50600436106101375760003560e01c80635f64b55b116100b85780639e93ad8e1161007c5780639e93ad8e146102bd578063a217fddf146102c6578063d547741f146102ce578063dc5fa6c5146102e1578063e4f1f70a146102ea578063ec87621c146102fd57600080fd5b80635f64b55b1461024a5780638014a7aa1461027157806391d14854146102845780639c8f9f23146102975780639cd441da146102aa57600080fd5b8063248a9ca3116100ff578063248a9ca3146101d65780632c15665f146101f95780632d11c58a146102195780632f2ff15d1461022257806336568abe1461023757600080fd5b806301ffc9a71461013c5780630fc63d101461016457806311106ee2146101a357806318160ddd146101c457806319e36f3b146101cd575b600080fd5b61014f61014a36600461182e565b610324565b60405190151581526020015b60405180910390f35b61018b7f000000000000000000000000000000000000000000000000000000000000000081565b6040516001600160a01b03909116815260200161015b565b6101b66101b1366004611866565b61035b565b60405190815260200161015b565b6101b660045481565b6101b660035481565b6101b66101e4366004611896565b60009081526020819052604090206001015490565b6101b66102073660046118c6565b60056020526000908152604090205481565b6101b66103e581565b6102356102303660046118e1565b61041b565b005b6102356102453660046118e1565b610445565b61018b7f000000000000000000000000000000000000000000000000000000000000000081565b6101b661027f366004611896565b6104c3565b61014f6102923660046118e1565b61073a565b6102356102a5366004611896565b610763565b6102356102b836600461190d565b610ab3565b6101b66103e881565b6101b6600081565b6102356102dc3660046118e1565b6111c0565b6101b660025481565b6101b66102f8366004611896565b6111e5565b6101b67f241ecf16d79d0f8dbfb92cbc07fe17840425976cf0667f022fe9877caa831b0881565b60006001600160e01b03198216637965db0b60e01b148061035557506301ffc9a760e01b6001600160e01b03198316145b92915050565b60008083116103855760405162461bcd60e51b815260040161037c9061192f565b60405180910390fd5b600060025411801561039957506000600354115b6103b55760405162461bcd60e51b815260040161037c90611975565b60006103c36103e5856119ba565b9050806103e8846103d6576003546103da565b6002545b6103e491906119ba565b6103ee91906119d1565b836103fb576002546103ff565b6003545b61040990836119ba565b61041391906119e4565b949350505050565b60008281526020819052604090206001015461043681611456565b6104408383611463565b505050565b6001600160a01b03811633146104b55760405162461bcd60e51b815260206004820152602f60248201527f416363657373436f6e74726f6c3a2063616e206f6e6c792072656e6f756e636560448201526e103937b632b9903337b91039b2b63360891b606482015260840161037c565b6104bf82826114e7565b5050565b60008082116104e45760405162461bcd60e51b815260040161037c9061192f565b60006002541180156104f857506000600354115b6105145760405162461bcd60e51b815260040161037c90611975565b60006105226103e5846119ba565b9050806103e860035461053591906119ba565b61053f91906119d1565b60025461054c90836119ba565b61055691906119e4565b9150600082116105a85760405162461bcd60e51b815260206004820152601a60248201527f496e73756666696369656e74206f757470757420616d6f756e74000000000000604482015260640161037c565b82600360008282546105ba91906119d1565b9250508190555081600260008282546105d39190611a06565b90915550506040516323b872dd60e01b81526001600160a01b037f000000000000000000000000000000000000000000000000000000000000000016906323b872dd9061062890339030908890600401611a19565b6020604051808303816000875af1158015610647573d6000803e3d6000fd5b505050506040513d601f19601f8201168201806040525081019061066b9190611a3d565b6106875760405162461bcd60e51b815260040161037c90611a5a565b60405163a9059cbb60e01b8152336004820152602481018390527f00000000000000000000000000000000000000000000000000000000000000006001600160a01b03169063a9059cbb906044016020604051808303816000875af11580156106f4573d6000803e3d6000fd5b505050506040513d601f19601f820116820180604052508101906107189190611a3d565b6107345760405162461bcd60e51b815260040161037c90611a91565b50919050565b6000918252602082815260408084206001600160a01b0393909316845291905290205460ff1690565b600081116107b35760405162461bcd60e51b815260206004820181905260248201527f416d6f756e74206d7573742062652067726561746572207468616e207a65726f604482015260640161037c565b336000908152600560205260409020548111156108125760405162461bcd60e51b815260206004820152601e60248201527f496e73756666696369656e74206c69717569646974792062616c616e63650000604482015260640161037c565b60006004546002548361082591906119ba565b61082f91906119e4565b905060006004546003548461084491906119ba565b61084e91906119e4565b90506000821180156108605750600081115b6108ac5760405162461bcd60e51b815260206004820152601e60248201527f496e73756666696369656e74206c697175696469747920616d6f756e74730000604482015260640161037c565b81600260008282546108be9190611a06565b9250508190555080600360008282546108d79190611a06565b9250508190555082600460008282546108f09190611a06565b90915550503360009081526005602052604081208054859290610914908490611a06565b909155505060405163a9059cbb60e01b8152336004820152602481018390527f00000000000000000000000000000000000000000000000000000000000000006001600160a01b03169063a9059cbb906044016020604051808303816000875af1158015610986573d6000803e3d6000fd5b505050506040513d601f19601f820116820180604052508101906109aa9190611a3d565b6109c65760405162461bcd60e51b815260040161037c90611a91565b60405163a9059cbb60e01b8152336004820152602481018290527f00000000000000000000000000000000000000000000000000000000000000006001600160a01b03169063a9059cbb906044016020604051808303816000875af1158015610a33573d6000803e3d6000fd5b505050506040513d601f19601f82011682018060405250810190610a579190611a3d565b610a735760405162461bcd60e51b815260040161037c90611a5a565b604080518381526020810183905233917f96cd817c6329656790ef8fba7675405193677d39619571282f5e21f3a98cd059910160405180910390a2505050565b610abb61154c565b600082118015610acb5750600081115b610b2f5760405162461bcd60e51b815260206004820152602f60248201527f506f6f6c436f6e74726163743a20416d6f756e7473206d75737420626520677260448201526e6561746572207468616e207a65726f60881b606482015260840161037c565b6040516370a0823160e01b815233600482015282907f00000000000000000000000000000000000000000000000000000000000000006001600160a01b0316906370a0823190602401602060405180830381865afa158015610b95573d6000803e3d6000fd5b505050506040513d601f19601f82011682018060405250810190610bb99190611ac8565b1015610c1a5760405162461bcd60e51b815260206004820152602a60248201527f506f6f6c436f6e74726163743a20496e73756666696369656e7420746f6b656e60448201526920412062616c616e636560b01b606482015260840161037c565b6040516370a0823160e01b815233600482015281907f00000000000000000000000000000000000000000000000000000000000000006001600160a01b0316906370a0823190602401602060405180830381865afa158015610c80573d6000803e3d6000fd5b505050506040513d601f19601f82011682018060405250810190610ca49190611ac8565b1015610d055760405162461bcd60e51b815260206004820152602a60248201527f506f6f6c436f6e74726163743a20496e73756666696369656e7420746f6b656e60448201526920422062616c616e636560b01b606482015260840161037c565b604051636eb1769f60e11b815233600482015230602482015282907f00000000000000000000000000000000000000000000000000000000000000006001600160a01b03169063dd62ed3e90604401602060405180830381865afa158015610d71573d6000803e3d6000fd5b505050506040513d601f19601f82011682018060405250810190610d959190611ac8565b1015610e005760405162461bcd60e51b815260206004820152603460248201527f506f6f6c436f6e74726163743a20436f6e7472616374206e6f7420617070726f60448201527376656420746f207370656e6420746f6b656e204160601b606482015260840161037c565b604051636eb1769f60e11b815233600482015230602482015281907f00000000000000000000000000000000000000000000000000000000000000006001600160a01b03169063dd62ed3e90604401602060405180830381865afa158015610e6c573d6000803e3d6000fd5b505050506040513d601f19601f82011682018060405250810190610e909190611ac8565b1015610efb5760405162461bcd60e51b815260206004820152603460248201527f506f6f6c436f6e74726163743a20436f6e7472616374206e6f7420617070726f6044820152733b32b2103a379039b832b732103a37b5b2b7102160611b606482015260840161037c565b6000600454600003610f2057610f19610f1483856119ba565b6115a5565b9050610f60565b610f5d60025460045485610f3491906119ba565b610f3e91906119e4565b600354600454610f4e90866119ba565b610f5891906119e4565b61160f565b90505b60008111610fb05760405162461bcd60e51b815260206004820152601d60248201527f496e73756666696369656e74206c6971756964697479206d696e746564000000604482015260640161037c565b6040516323b872dd60e01b81526001600160a01b037f000000000000000000000000000000000000000000000000000000000000000016906323b872dd9061100090339030908890600401611a19565b6020604051808303816000875af115801561101f573d6000803e3d6000fd5b505050506040513d601f19601f820116820180604052508101906110439190611a3d565b61105f5760405162461bcd60e51b815260040161037c90611a91565b6040516323b872dd60e01b81526001600160a01b037f000000000000000000000000000000000000000000000000000000000000000016906323b872dd906110af90339030908790600401611a19565b6020604051808303816000875af11580156110ce573d6000803e3d6000fd5b505050506040513d601f19601f820116820180604052508101906110f29190611a3d565b61110e5760405162461bcd60e51b815260040161037c90611a5a565b826002600082825461112091906119d1565b92505081905550816003600082825461113991906119d1565b92505081905550806004600082825461115291906119d1565b909155505033600090815260056020526040812080548392906111769084906119d1565b9091555050604080518481526020810184905233917fac1d76749e5447b7b16f5ab61447e1bd502f3bb4807af3b28e620d1700a6ee45910160405180910390a2506104bf60018055565b6000828152602081905260409020600101546111db81611456565b61044083836114e7565b60008082116112065760405162461bcd60e51b815260040161037c9061192f565b600060025411801561121a57506000600354115b6112365760405162461bcd60e51b815260040161037c90611975565b60006112446103e5846119ba565b9050806103e860025461125791906119ba565b61126191906119d1565b60035461126e90836119ba565b61127891906119e4565b9150600082116112ca5760405162461bcd60e51b815260206004820152601a60248201527f496e73756666696369656e74206f757470757420616d6f756e74000000000000604482015260640161037c565b82600260008282546112dc91906119d1565b9250508190555081600360008282546112f59190611a06565b90915550506040516323b872dd60e01b81526001600160a01b037f000000000000000000000000000000000000000000000000000000000000000016906323b872dd9061134a90339030908890600401611a19565b6020604051808303816000875af1158015611369573d6000803e3d6000fd5b505050506040513d601f19601f8201168201806040525081019061138d9190611a3d565b6113a95760405162461bcd60e51b815260040161037c90611a91565b60405163a9059cbb60e01b8152336004820152602481018390527f00000000000000000000000000000000000000000000000000000000000000006001600160a01b03169063a9059cbb906044016020604051808303816000875af1158015611416573d6000803e3d6000fd5b505050506040513d601f19601f8201168201806040525081019061143a9190611a3d565b6107345760405162461bcd60e51b815260040161037c90611a5a565b6114608133611627565b50565b61146d828261073a565b6104bf576000828152602081815260408083206001600160a01b03851684529091529020805460ff191660011790556114a33390565b6001600160a01b0316816001600160a01b0316837f2f8788117e7eff1d82e926ec794901d17c78024a50270940304540a733656f0d60405160405180910390a45050565b6114f1828261073a565b156104bf576000828152602081815260408083206001600160a01b0385168085529252808320805460ff1916905551339285917ff6391f5c32d9c69d2a47ea670b442974b53935d1edc7fd64eb21e047a839171b9190a45050565b60026001540361159e5760405162461bcd60e51b815260206004820152601f60248201527f5265656e7472616e637947756172643a207265656e7472616e742063616c6c00604482015260640161037c565b6002600155565b6000600382111561160057508060006115bf6002836119e4565b6115ca9060016119d1565b90505b81811015610734579050806002816115e581866119e4565b6115ef91906119d1565b6115f991906119e4565b90506115cd565b811561160a575060015b919050565b600081831061161e5781611620565b825b9392505050565b611631828261073a565b6104bf5761163e81611680565b611649836020611692565b60405160200161165a929190611b05565b60408051601f198184030181529082905262461bcd60e51b825261037c91600401611b7a565b60606103556001600160a01b03831660145b606060006116a18360026119ba565b6116ac9060026119d1565b67ffffffffffffffff8111156116c4576116c4611bad565b6040519080825280601f01601f1916602001820160405280156116ee576020820181803683370190505b509050600360fc1b8160008151811061170957611709611bc3565b60200101906001600160f81b031916908160001a905350600f60fb1b8160018151811061173857611738611bc3565b60200101906001600160f81b031916908160001a905350600061175c8460026119ba565b6117679060016119d1565b90505b60018111156117df576f181899199a1a9b1b9c1cb0b131b232b360811b85600f166010811061179b5761179b611bc3565b1a60f81b8282815181106117b1576117b1611bc3565b60200101906001600160f81b031916908160001a90535060049490941c936117d881611bd9565b905061176a565b5083156116205760405162461bcd60e51b815260206004820181905260248201527f537472696e67733a20686578206c656e67746820696e73756666696369656e74604482015260640161037c565b60006020828403121561184057600080fd5b81356001600160e01b03198116811461162057600080fd5b801515811461146057600080fd5b6000806040838503121561187957600080fd5b82359150602083013561188b81611858565b809150509250929050565b6000602082840312156118a857600080fd5b5035919050565b80356001600160a01b038116811461160a57600080fd5b6000602082840312156118d857600080fd5b611620826118af565b600080604083850312156118f457600080fd5b82359150611904602084016118af565b90509250929050565b6000806040838503121561192057600080fd5b50508035926020909101359150565b60208082526026908201527f496e70757420616d6f756e74206d7573742062652067726561746572207468616040820152656e207a65726f60d01b606082015260800190565b602080825260159082015274496e73756666696369656e7420726573657276657360581b604082015260600190565b634e487b7160e01b600052601160045260246000fd5b8082028115828204841417610355576103556119a4565b80820180821115610355576103556119a4565b600082611a0157634e487b7160e01b600052601260045260246000fd5b500490565b81810381811115610355576103556119a4565b6001600160a01b039384168152919092166020820152604081019190915260600190565b600060208284031215611a4f57600080fd5b815161162081611858565b60208082526017908201527f546f6b656e2042207472616e73666572206661696c6564000000000000000000604082015260600190565b60208082526017908201527f546f6b656e2041207472616e73666572206661696c6564000000000000000000604082015260600190565b600060208284031215611ada57600080fd5b5051919050565b60005b83811015611afc578181015183820152602001611ae4565b50506000910152565b7f416363657373436f6e74726f6c3a206163636f756e7420000000000000000000815260008351611b3d816017850160208801611ae1565b7001034b99036b4b9b9b4b733903937b6329607d1b6017918401918201528351611b6e816028840160208801611ae1565b01602801949350505050565b6020815260008251806020840152611b99816040850160208701611ae1565b601f01601f19169190910160400192915050565b634e487b7160e01b600052604160045260246000fd5b634e487b7160e01b600052603260045260246000fd5b600081611be857611be86119a4565b50600019019056fea26469706673582212209bb51a129188ec357a59c6db9362b225aa48535c20933bdeff5fb98bd6e6f9d564736f6c63430008140033",
  "linkReferences": {},
  "deployedLinkReferences": {}
}