{
  "_format": "hh-sol-artifact-1",
  "contractName": "LockContract",
  "sourceName": "maskly/blockchain/contracts/bridgeCore/protocols/Lock-Mint/Ethereum/LockContract.sol",
  "abi": [
    {
      "inputs": [
        {
          "internalType": "address",
          "name": "_tokenAddress",
          "type": "address"
        }
      ],
      "stateMutability": "nonpayable",
      "type": "constructor"
    },
    {
      "anonymous": false,
      "inputs": [
        {
          "indexed": true,
          "internalType": "bytes32",
          "name": "role",
          "type": "bytes32"
        },
        {
          "indexed": true,
          "internalType": "bytes32",
          "name": "previousAdminRole",
          "type": "bytes32"
        },
        {
          "indexed": true,
          "internalType": "bytes32",
          "name": "newAdminRole",
          "type": "bytes32"
        }
      ],
      "name": "RoleAdminChanged",
      "type": "event"
    },
    {
      "anonymous": false,
      "inputs": [
        {
          "indexed": true,
          "internalType": "bytes32",
          "name": "role",
          "type": "bytes32"
        },
        {
          "indexed": true,
          "internalType": "address",
          "name": "account",
          "type": "address"
        },
        {
          "indexed": true,
          "internalType": "address",
          "name": "sender",
          "type": "address"
        }
      ],
      "name": "RoleGranted",
      "type": "event"
    },
    {
      "anonymous": false,
      "inputs": [
        {
          "indexed": true,
          "internalType": "bytes32",
          "name": "role",
          "type": "bytes32"
        },
        {
          "indexed": true,
          "internalType": "address",
          "name": "account",
          "type": "address"
        },
        {
          "indexed": true,
          "internalType": "address",
          "name": "sender",
          "type": "address"
        }
      ],
      "name": "RoleRevoked",
      "type": "event"
    },
    {
      "anonymous": false,
      "inputs": [
        {
          "indexed": true,
          "internalType": "address",
          "name": "user",
          "type": "address"
        },
        {
          "indexed": false,
          "internalType": "uint256",
          "name": "amount",
          "type": "uint256"
        },
        {
          "indexed": false,
          "internalType": "uint256",
          "name": "timestamp",
          "type": "uint256"
        }
      ],
      "name": "TokensLocked",
      "type": "event"
    },
    {
      "anonymous": false,
      "inputs": [
        {
          "indexed": true,
          "internalType": "address",
          "name": "user",
          "type": "address"
        },
        {
          "indexed": false,
          "internalType": "uint256",
          "name": "amount",
          "type": "uint256"
        },
        {
          "indexed": false,
          "internalType": "uint256",
          "name": "timestamp",
          "type": "uint256"
        }
      ],
      "name": "TokensUnlocked",
      "type": "event"
    },
    {
      "inputs": [],
      "name": "BRIDGE_ROLE",
      "outputs": [
        {
          "internalType": "bytes32",
          "name": "",
          "type": "bytes32"
        }
      ],
      "stateMutability": "view",
      "type": "function"
    },
    {
      "inputs": [],
      "name": "DEFAULT_ADMIN_ROLE",
      "outputs": [
        {
          "internalType": "bytes32",
          "name": "",
          "type": "bytes32"
        }
      ],
      "stateMutability": "view",
      "type": "function"
    },
    {
      "inputs": [
        {
          "internalType": "bytes32",
          "name": "role",
          "type": "bytes32"
        }
      ],
      "name": "getRoleAdmin",
      "outputs": [
        {
          "internalType": "bytes32",
          "name": "",
          "type": "bytes32"
        }
      ],
      "stateMutability": "view",
      "type": "function"
    },
    {
      "inputs": [
        {
          "internalType": "bytes32",
          "name": "role",
          "type": "bytes32"
        },
        {
          "internalType": "address",
          "name": "account",
          "type": "address"
        }
      ],
      "name": "grantRole",
      "outputs": [],
      "stateMutability": "nonpayable",
      "type": "function"
    },
    {
      "inputs": [
        {
          "internalType": "bytes32",
          "name": "role",
          "type": "bytes32"
        },
        {
          "internalType": "address",
          "name": "account",
          "type": "address"
        }
      ],
      "name": "hasRole",
      "outputs": [
        {
          "internalType": "bool",
          "name": "",
          "type": "bool"
        }
      ],
      "stateMutability": "view",
      "type": "function"
    },
    {
      "inputs": [
        {
          "internalType": "uint256",
          "name": "amount",
          "type": "uint256"
        }
      ],
      "name": "lockTokens",
      "outputs": [],
      "stateMutability": "nonpayable",
      "type": "function"
    },
    {
      "inputs": [
        {
          "internalType": "address",
          "name": "",
          "type": "address"
        }
      ],
      "name": "lockedBalances",
      "outputs": [
        {
          "internalType": "uint256",
          "name": "",
          "type": "uint256"
        }
      ],
      "stateMutability": "view",
      "type": "function"
    },
    {
      "inputs": [
        {
          "internalType": "bytes32",
          "name": "role",
          "type": "bytes32"
        },
        {
          "internalType": "address",
          "name": "account",
          "type": "address"
        }
      ],
      "name": "renounceRole",
      "outputs": [],
      "stateMutability": "nonpayable",
      "type": "function"
    },
    {
      "inputs": [
        {
          "internalType": "bytes32",
          "name": "role",
          "type": "bytes32"
        },
        {
          "internalType": "address",
          "name": "account",
          "type": "address"
        }
      ],
      "name": "revokeRole",
      "outputs": [],
      "stateMutability": "nonpayable",
      "type": "function"
    },
    {
      "inputs": [
        {
          "internalType": "bytes4",
          "name": "interfaceId",
          "type": "bytes4"
        }
      ],
      "name": "supportsInterface",
      "outputs": [
        {
          "internalType": "bool",
          "name": "",
          "type": "bool"
        }
      ],
      "stateMutability": "view",
      "type": "function"
    },
    {
      "inputs": [],
      "name": "token",
      "outputs": [
        {
          "internalType": "contract IERC20",
          "name": "",
          "type": "address"
        }
      ],
      "stateMutability": "view",
      "type": "function"
    },
    {
      "inputs": [],
      "name": "totalLocked",
      "outputs": [
        {
          "internalType": "uint256",
          "name": "",
          "type": "uint256"
        }
      ],
      "stateMutability": "view",
      "type": "function"
    },
    {
      "inputs": [
        {
          "internalType": "address",
          "name": "user",
          "type": "address"
        },
        {
          "internalType": "uint256",
          "name": "amount",
          "type": "uint256"
        }
      ],
      "name": "unlockTokens",
      "outputs": [],
      "stateMutability": "nonpayable",
      "type": "function"
    }
  ],
  "bytecode": "0x608060405234801561001057600080fd5b5060405161102b38038061102b83398101604081905261002f91610135565b60018055600280546001600160a01b0319166001600160a01b038316179055610059600033610089565b6100837f52ba824bfabc2bcfcdf7f0edbb486ebb05e1836c90e78047efeb949990f72e5f33610089565b50610165565b6100938282610097565b5050565b6000828152602081815260408083206001600160a01b038516845290915290205460ff16610093576000828152602081815260408083206001600160a01b03851684529091529020805460ff191660011790556100f13390565b6001600160a01b0316816001600160a01b0316837f2f8788117e7eff1d82e926ec794901d17c78024a50270940304540a733656f0d60405160405180910390a45050565b60006020828403121561014757600080fd5b81516001600160a01b038116811461015e57600080fd5b9392505050565b610eb7806101746000396000f3fe608060405234801561001057600080fd5b50600436106100cf5760003560e01c80636e27d8891161008c578063a217fddf11610066578063a217fddf146101b7578063b5bfddea146101bf578063d547741f146101e6578063fc0c546a146101f957600080fd5b80636e27d8891461017e57806391d14854146101915780639d564d9a146101a457600080fd5b806301ffc9a7146100d45780630483a7f6146100fc578063248a9ca31461012a5780632f2ff15d1461014d57806336568abe146101625780635689141214610175575b600080fd5b6100e76100e2366004610b83565b610224565b60405190151581526020015b60405180910390f35b61011c61010a366004610bc9565b60036020526000908152604090205481565b6040519081526020016100f3565b61011c610138366004610be4565b60009081526020819052604090206001015490565b61016061015b366004610bfd565b61025b565b005b610160610170366004610bfd565b610285565b61011c60045481565b61016061018c366004610be4565b610308565b6100e761019f366004610bfd565b6105f6565b6101606101b2366004610c29565b61061f565b61011c600081565b61011c7f52ba824bfabc2bcfcdf7f0edbb486ebb05e1836c90e78047efeb949990f72e5f81565b6101606101f4366004610bfd565b610804565b60025461020c906001600160a01b031681565b6040516001600160a01b0390911681526020016100f3565b60006001600160e01b03198216637965db0b60e01b148061025557506301ffc9a760e01b6001600160e01b03198316145b92915050565b60008281526020819052604090206001015461027681610829565b6102808383610833565b505050565b6001600160a01b03811633146102fa5760405162461bcd60e51b815260206004820152602f60248201527f416363657373436f6e74726f6c3a2063616e206f6e6c792072656e6f756e636560448201526e103937b632b9903337b91039b2b63360891b60648201526084015b60405180910390fd5b61030482826108b7565b5050565b61031061091c565b600081116103305760405162461bcd60e51b81526004016102f190610c53565b6002546040516370a0823160e01b815233600482015282916001600160a01b0316906370a0823190602401602060405180830381865afa158015610378573d6000803e3d6000fd5b505050506040513d601f19601f8201168201806040525081019061039c9190610ca1565b10156103fb5760405162461bcd60e51b815260206004820152602860248201527f4c6f636b436f6e74726163743a20496e73756666696369656e7420746f6b656e6044820152672062616c616e636560c01b60648201526084016102f1565b600254604051636eb1769f60e11b815233600482015230602482015282916001600160a01b03169063dd62ed3e90604401602060405180830381865afa158015610449573d6000803e3d6000fd5b505050506040513d601f19601f8201168201806040525081019061046d9190610ca1565b10156104d75760405162461bcd60e51b815260206004820152603360248201527f4c6f636b436f6e74726163743a20436f6e7472616374206e6f7420617070726f60448201527276656420746f207370656e6420746f6b656e7360681b60648201526084016102f1565b6002546040516323b872dd60e01b8152336004820152306024820152604481018390526000916001600160a01b0316906323b872dd906064016020604051808303816000875af115801561052f573d6000803e3d6000fd5b505050506040513d601f19601f820116820180604052508101906105539190610cba565b9050806105725760405162461bcd60e51b81526004016102f190610cdc565b3360009081526003602052604081208054849290610591908490610d35565b9250508190555081600460008282546105aa9190610d35565b90915550506040805183815242602082015233917fd741e738a23fd18a03a26522320d9fc6cac1fed483e215ea9150fbc2fc43385d910160405180910390a2506105f360018055565b50565b6000918252602082815260408084206001600160a01b0393909316845291905290205460ff1690565b7f52ba824bfabc2bcfcdf7f0edbb486ebb05e1836c90e78047efeb949990f72e5f61064981610829565b600082116106695760405162461bcd60e51b81526004016102f190610c53565b6001600160a01b0383166000908152600360205260409020548211156106e35760405162461bcd60e51b815260206004820152602960248201527f4c6f636b436f6e74726163743a20496e73756666696369656e74206c6f636b65604482015268642062616c616e636560b81b60648201526084016102f1565b6001600160a01b0383166000908152600360205260408120805484929061070b908490610d48565b9250508190555081600460008282546107249190610d48565b909155505060025460405163a9059cbb60e01b81526001600160a01b038581166004830152602482018590529091169063a9059cbb906044016020604051808303816000875af115801561077c573d6000803e3d6000fd5b505050506040513d601f19601f820116820180604052508101906107a09190610cba565b6107bc5760405162461bcd60e51b81526004016102f190610cdc565b604080518381524260208201526001600160a01b038516917f89882ad382a3742d4db24e4dabc5000c5852aed762904db28442e4e1630a1d07910160405180910390a2505050565b60008281526020819052604090206001015461081f81610829565b61028083836108b7565b6105f38133610975565b61083d82826105f6565b610304576000828152602081815260408083206001600160a01b03851684529091529020805460ff191660011790556108733390565b6001600160a01b0316816001600160a01b0316837f2f8788117e7eff1d82e926ec794901d17c78024a50270940304540a733656f0d60405160405180910390a45050565b6108c182826105f6565b15610304576000828152602081815260408083206001600160a01b0385168085529252808320805460ff1916905551339285917ff6391f5c32d9c69d2a47ea670b442974b53935d1edc7fd64eb21e047a839171b9190a45050565b60026001540361096e5760405162461bcd60e51b815260206004820152601f60248201527f5265656e7472616e637947756172643a207265656e7472616e742063616c6c0060448201526064016102f1565b6002600155565b61097f82826105f6565b6103045761098c816109ce565b6109978360206109e0565b6040516020016109a8929190610d7f565b60408051601f198184030181529082905262461bcd60e51b82526102f191600401610df4565b60606102556001600160a01b03831660145b606060006109ef836002610e27565b6109fa906002610d35565b67ffffffffffffffff811115610a1257610a12610e3e565b6040519080825280601f01601f191660200182016040528015610a3c576020820181803683370190505b509050600360fc1b81600081518110610a5757610a57610e54565b60200101906001600160f81b031916908160001a905350600f60fb1b81600181518110610a8657610a86610e54565b60200101906001600160f81b031916908160001a9053506000610aaa846002610e27565b610ab5906001610d35565b90505b6001811115610b2d576f181899199a1a9b1b9c1cb0b131b232b360811b85600f1660108110610ae957610ae9610e54565b1a60f81b828281518110610aff57610aff610e54565b60200101906001600160f81b031916908160001a90535060049490941c93610b2681610e6a565b9050610ab8565b508315610b7c5760405162461bcd60e51b815260206004820181905260248201527f537472696e67733a20686578206c656e67746820696e73756666696369656e7460448201526064016102f1565b9392505050565b600060208284031215610b9557600080fd5b81356001600160e01b031981168114610b7c57600080fd5b80356001600160a01b0381168114610bc457600080fd5b919050565b600060208284031215610bdb57600080fd5b610b7c82610bad565b600060208284031215610bf657600080fd5b5035919050565b60008060408385031215610c1057600080fd5b82359150610c2060208401610bad565b90509250929050565b60008060408385031215610c3c57600080fd5b610c4583610bad565b946020939093013593505050565b6020808252602e908201527f4c6f636b436f6e74726163743a20416d6f756e74206d7573742062652067726560408201526d61746572207468616e207a65726f60901b606082015260800190565b600060208284031215610cb357600080fd5b5051919050565b600060208284031215610ccc57600080fd5b81518015158114610b7c57600080fd5b60208082526023908201527f4c6f636b436f6e74726163743a20546f6b656e207472616e73666572206661696040820152621b195960ea1b606082015260800190565b634e487b7160e01b600052601160045260246000fd5b8082018082111561025557610255610d1f565b8181038181111561025557610255610d1f565b60005b83811015610d76578181015183820152602001610d5e565b50506000910152565b7f416363657373436f6e74726f6c3a206163636f756e7420000000000000000000815260008351610db7816017850160208801610d5b565b7001034b99036b4b9b9b4b733903937b6329607d1b6017918401918201528351610de8816028840160208801610d5b565b01602801949350505050565b6020815260008251806020840152610e13816040850160208701610d5b565b601f01601f19169190910160400192915050565b808202811582820484141761025557610255610d1f565b634e487b7160e01b600052604160045260246000fd5b634e487b7160e01b600052603260045260246000fd5b600081610e7957610e79610d1f565b50600019019056fea264697066735822122033a7ebf8f6e5c3f5c34606c1020543512dbaf6f2ebf3cf188fedbef09ee9e81364736f6c63430008140033",
  "linkReferences": {},
  "deployedLinkReferences": {}
}