{
  "_format": "hh-sol-artifact-1",
  "contractName": "QUA",
  "sourceName": "maskly/blockchain/contracts/tokens/QUA.sol",
  "abi": [
    {
      "inputs": [
        {
          "internalType": "uint256",
          "name": "initialSupply",
          "type": "uint256"
        }
      ],
      "stateMutability": "nonpayable",
      "type": "constructor"
    },
    {
      "anonymous": false,
      "inputs": [
        {
          "indexed": true,
          "internalType": "address",
          "name": "owner",
          "type": "address"
        },
        {
          "indexed": true,
          "internalType": "address",
          "name": "spender",
          "type": "address"
        },
        {
          "indexed": false,
          "internalType": "uint256",
          "name": "value",
          "type": "uint256"
        }
      ],
      "name": "Approval",
      "type": "event"
    },
    {
      "anonymous": false,
      "inputs": [
        {
          "indexed": true,
          "internalType": "address",
          "name": "user",
          "type": "address"
        },
        {
          "indexed": false,
          "internalType": "uint256",
          "name": "newBalance",
          "type": "uint256"
        }
      ],
      "name": "BalanceUpdated",
      "type": "event"
    },
    {
      "anonymous": false,
      "inputs": [
        {
          "indexed": true,
          "internalType": "address",
          "name": "recipient",
          "type": "address"
        },
        {
          "indexed": false,
          "internalType": "uint256",
          "name": "amount",
          "type": "uint256"
        }
      ],
      "name": "RewardDistributionFailed",
      "type": "event"
    },
    {
      "anonymous": false,
      "inputs": [
        {
          "indexed": true,
          "internalType": "bytes32",
          "name": "role",
          "type": "bytes32"
        },
        {
          "indexed": true,
          "internalType": "bytes32",
          "name": "previousAdminRole",
          "type": "bytes32"
        },
        {
          "indexed": true,
          "internalType": "bytes32",
          "name": "newAdminRole",
          "type": "bytes32"
        }
      ],
      "name": "RoleAdminChanged",
      "type": "event"
    },
    {
      "anonymous": false,
      "inputs": [
        {
          "indexed": true,
          "internalType": "bytes32",
          "name": "role",
          "type": "bytes32"
        },
        {
          "indexed": true,
          "internalType": "address",
          "name": "account",
          "type": "address"
        },
        {
          "indexed": true,
          "internalType": "address",
          "name": "sender",
          "type": "address"
        }
      ],
      "name": "RoleGranted",
      "type": "event"
    },
    {
      "anonymous": false,
      "inputs": [
        {
          "indexed": true,
          "internalType": "bytes32",
          "name": "role",
          "type": "bytes32"
        },
        {
          "indexed": true,
          "internalType": "address",
          "name": "account",
          "type": "address"
        },
        {
          "indexed": true,
          "internalType": "address",
          "name": "sender",
          "type": "address"
        }
      ],
      "name": "RoleRevoked",
      "type": "event"
    },
    {
      "anonymous": false,
      "inputs": [
        {
          "indexed": true,
          "internalType": "address",
          "name": "from",
          "type": "address"
        },
        {
          "indexed": true,
          "internalType": "address",
          "name": "to",
          "type": "address"
        },
        {
          "indexed": false,
          "internalType": "uint256",
          "name": "value",
          "type": "uint256"
        }
      ],
      "name": "Transfer",
      "type": "event"
    },
    {
      "inputs": [],
      "name": "DEDUCT_ROLE",
      "outputs": [
        {
          "internalType": "bytes32",
          "name": "",
          "type": "bytes32"
        }
      ],
      "stateMutability": "view",
      "type": "function"
    },
    {
      "inputs": [],
      "name": "DEFAULT_ADMIN_ROLE",
      "outputs": [
        {
          "internalType": "bytes32",
          "name": "",
          "type": "bytes32"
        }
      ],
      "stateMutability": "view",
      "type": "function"
    },
    {
      "inputs": [],
      "name": "MAX_SUPPLY",
      "outputs": [
        {
          "internalType": "uint256",
          "name": "",
          "type": "uint256"
        }
      ],
      "stateMutability": "view",
      "type": "function"
    },
    {
      "inputs": [],
      "name": "PROPOSER_ROLE",
      "outputs": [
        {
          "internalType": "bytes32",
          "name": "",
          "type": "bytes32"
        }
      ],
      "stateMutability": "view",
      "type": "function"
    },
    {
      "inputs": [],
      "name": "VOTER_ROLE",
      "outputs": [
        {
          "internalType": "bytes32",
          "name": "",
          "type": "bytes32"
        }
      ],
      "stateMutability": "view",
      "type": "function"
    },
    {
      "inputs": [
        {
          "internalType": "address",
          "name": "owner",
          "type": "address"
        },
        {
          "internalType": "address",
          "name": "spender",
          "type": "address"
        }
      ],
      "name": "allowance",
      "outputs": [
        {
          "internalType": "uint256",
          "name": "",
          "type": "uint256"
        }
      ],
      "stateMutability": "view",
      "type": "function"
    },
    {
      "inputs": [
        {
          "internalType": "address",
          "name": "spender",
          "type": "address"
        },
        {
          "internalType": "uint256",
          "name": "amount",
          "type": "uint256"
        }
      ],
      "name": "approve",
      "outputs": [
        {
          "internalType": "bool",
          "name": "",
          "type": "bool"
        }
      ],
      "stateMutability": "nonpayable",
      "type": "function"
    },
    {
      "inputs": [
        {
          "internalType": "address",
          "name": "user",
          "type": "address"
        },
        {
          "internalType": "uint256",
          "name": "amount",
          "type": "uint256"
        }
      ],
      "name": "awardQUA",
      "outputs": [],
      "stateMutability": "nonpayable",
      "type": "function"
    },
    {
      "inputs": [
        {
          "internalType": "address",
          "name": "account",
          "type": "address"
        }
      ],
      "name": "balanceOf",
      "outputs": [
        {
          "internalType": "uint256",
          "name": "",
          "type": "uint256"
        }
      ],
      "stateMutability": "view",
      "type": "function"
    },
    {
      "inputs": [
        {
          "internalType": "address[]",
          "name": "users",
          "type": "address[]"
        },
        {
          "internalType": "uint256[]",
          "name": "amounts",
          "type": "uint256[]"
        }
      ],
      "name": "batchAwardQUA",
      "outputs": [],
      "stateMutability": "nonpayable",
      "type": "function"
    },
    {
      "inputs": [
        {
          "internalType": "uint256",
          "name": "amount",
          "type": "uint256"
        }
      ],
      "name": "burn",
      "outputs": [],
      "stateMutability": "nonpayable",
      "type": "function"
    },
    {
      "inputs": [
        {
          "internalType": "uint256",
          "name": "proposalId",
          "type": "uint256"
        }
      ],
      "name": "closeProposal",
      "outputs": [],
      "stateMutability": "nonpayable",
      "type": "function"
    },
    {
      "inputs": [
        {
          "internalType": "string",
          "name": "description",
          "type": "string"
        },
        {
          "internalType": "uint256",
          "name": "votingPeriod",
          "type": "uint256"
        }
      ],
      "name": "createProposal",
      "outputs": [],
      "stateMutability": "nonpayable",
      "type": "function"
    },
    {
      "inputs": [],
      "name": "decimals",
      "outputs": [
        {
          "internalType": "uint8",
          "name": "",
          "type": "uint8"
        }
      ],
      "stateMutability": "view",
      "type": "function"
    },
    {
      "inputs": [
        {
          "internalType": "address",
          "name": "spender",
          "type": "address"
        },
        {
          "internalType": "uint256",
          "name": "subtractedValue",
          "type": "uint256"
        }
      ],
      "name": "decreaseAllowance",
      "outputs": [
        {
          "internalType": "bool",
          "name": "",
          "type": "bool"
        }
      ],
      "stateMutability": "nonpayable",
      "type": "function"
    },
    {
      "inputs": [
        {
          "internalType": "address",
          "name": "user",
          "type": "address"
        },
        {
          "internalType": "uint256",
          "name": "amount",
          "type": "uint256"
        }
      ],
      "name": "deductHCoin",
      "outputs": [],
      "stateMutability": "nonpayable",
      "type": "function"
    },
    {
      "inputs": [
        {
          "internalType": "address",
          "name": "user",
          "type": "address"
        }
      ],
      "name": "getBalance",
      "outputs": [
        {
          "internalType": "uint256",
          "name": "",
          "type": "uint256"
        }
      ],
      "stateMutability": "view",
      "type": "function"
    },
    {
      "inputs": [
        {
          "internalType": "uint256",
          "name": "proposalId",
          "type": "uint256"
        }
      ],
      "name": "getProposal",
      "outputs": [
        {
          "internalType": "string",
          "name": "",
          "type": "string"
        },
        {
          "internalType": "bool",
          "name": "",
          "type": "bool"
        }
      ],
      "stateMutability": "view",
      "type": "function"
    },
    {
      "inputs": [],
      "name": "getProposalCount",
      "outputs": [
        {
          "internalType": "uint256",
          "name": "",
          "type": "uint256"
        }
      ],
      "stateMutability": "view",
      "type": "function"
    },
    {
      "inputs": [
        {
          "internalType": "bytes32",
          "name": "role",
          "type": "bytes32"
        }
      ],
      "name": "getRoleAdmin",
      "outputs": [
        {
          "internalType": "bytes32",
          "name": "",
          "type": "bytes32"
        }
      ],
      "stateMutability": "view",
      "type": "function"
    },
    {
      "inputs": [
        {
          "internalType": "bytes32",
          "name": "role",
          "type": "bytes32"
        },
        {
          "internalType": "address",
          "name": "account",
          "type": "address"
        }
      ],
      "name": "grantRole",
      "outputs": [],
      "stateMutability": "nonpayable",
      "type": "function"
    },
    {
      "inputs": [
        {
          "internalType": "bytes32",
          "name": "role",
          "type": "bytes32"
        },
        {
          "internalType": "address",
          "name": "account",
          "type": "address"
        }
      ],
      "name": "hasRole",
      "outputs": [
        {
          "internalType": "bool",
          "name": "",
          "type": "bool"
        }
      ],
      "stateMutability": "view",
      "type": "function"
    },
    {
      "inputs": [
        {
          "internalType": "address",
          "name": "",
          "type": "address"
        },
        {
          "internalType": "uint256",
          "name": "",
          "type": "uint256"
        }
      ],
      "name": "hasVoted",
      "outputs": [
        {
          "internalType": "bool",
          "name": "",
          "type": "bool"
        }
      ],
      "stateMutability": "view",
      "type": "function"
    },
    {
      "inputs": [
        {
          "internalType": "address",
          "name": "spender",
          "type": "address"
        },
        {
          "internalType": "uint256",
          "name": "addedValue",
          "type": "uint256"
        }
      ],
      "name": "increaseAllowance",
      "outputs": [
        {
          "internalType": "bool",
          "name": "",
          "type": "bool"
        }
      ],
      "stateMutability": "nonpayable",
      "type": "function"
    },
    {
      "inputs": [],
      "name": "maxHoldingAmount",
      "outputs": [
        {
          "internalType": "uint256",
          "name": "",
          "type": "uint256"
        }
      ],
      "stateMutability": "view",
      "type": "function"
    },
    {
      "inputs": [
        {
          "internalType": "address",
          "name": "to",
          "type": "address"
        },
        {
          "internalType": "uint256",
          "name": "amount",
          "type": "uint256"
        }
      ],
      "name": "mint",
      "outputs": [],
      "stateMutability": "nonpayable",
      "type": "function"
    },
    {
      "inputs": [],
      "name": "name",
      "outputs": [
        {
          "internalType": "string",
          "name": "",
          "type": "string"
        }
      ],
      "stateMutability": "view",
      "type": "function"
    },
    {
      "inputs": [],
      "name": "pause",
      "outputs": [],
      "stateMutability": "nonpayable",
      "type": "function"
    },
    {
      "inputs": [],
      "name": "paused",
      "outputs": [
        {
          "internalType": "bool",
          "name": "",
          "type": "bool"
        }
      ],
      "stateMutability": "view",
      "type": "function"
    },
    {
      "inputs": [],
      "name": "proposalCount",
      "outputs": [
        {
          "internalType": "uint256",
          "name": "",
          "type": "uint256"
        }
      ],
      "stateMutability": "view",
      "type": "function"
    },
    {
      "inputs": [
        {
          "internalType": "uint256",
          "name": "",
          "type": "uint256"
        }
      ],
      "name": "proposals",
      "outputs": [
        {
          "internalType": "string",
          "name": "description",
          "type": "string"
        },
        {
          "internalType": "uint256",
          "name": "voteCount",
          "type": "uint256"
        },
        {
          "internalType": "uint256",
          "name": "endTime",
          "type": "uint256"
        },
        {
          "internalType": "bool",
          "name": "isActive",
          "type": "bool"
        },
        {
          "internalType": "bool",
          "name": "executed",
          "type": "bool"
        }
      ],
      "stateMutability": "view",
      "type": "function"
    },
    {
      "inputs": [],
      "name": "referralRewardsContract",
      "outputs": [
        {
          "internalType": "address",
          "name": "",
          "type": "address"
        }
      ],
      "stateMutability": "view",
      "type": "function"
    },
    {
      "inputs": [
        {
          "internalType": "bytes32",
          "name": "role",
          "type": "bytes32"
        },
        {
          "internalType": "address",
          "name": "account",
          "type": "address"
        }
      ],
      "name": "renounceRole",
      "outputs": [],
      "stateMutability": "nonpayable",
      "type": "function"
    },
    {
      "inputs": [
        {
          "internalType": "bytes32",
          "name": "role",
          "type": "bytes32"
        },
        {
          "internalType": "address",
          "name": "account",
          "type": "address"
        }
      ],
      "name": "revokeRole",
      "outputs": [],
      "stateMutability": "nonpayable",
      "type": "function"
    },
    {
      "inputs": [
        {
          "internalType": "uint256",
          "name": "amount",
          "type": "uint256"
        }
      ],
      "name": "setMaxHoldingAmount",
      "outputs": [],
      "stateMutability": "nonpayable",
      "type": "function"
    },
    {
      "inputs": [
        {
          "internalType": "address",
          "name": "_contract",
          "type": "address"
        }
      ],
      "name": "setReferralRewardsContract",
      "outputs": [],
      "stateMutability": "nonpayable",
      "type": "function"
    },
    {
      "inputs": [
        {
          "internalType": "bytes4",
          "name": "interfaceId",
          "type": "bytes4"
        }
      ],
      "name": "supportsInterface",
      "outputs": [
        {
          "internalType": "bool",
          "name": "",
          "type": "bool"
        }
      ],
      "stateMutability": "view",
      "type": "function"
    },
    {
      "inputs": [],
      "name": "symbol",
      "outputs": [
        {
          "internalType": "string",
          "name": "",
          "type": "string"
        }
      ],
      "stateMutability": "view",
      "type": "function"
    },
    {
      "inputs": [],
      "name": "totalSupply",
      "outputs": [
        {
          "internalType": "uint256",
          "name": "",
          "type": "uint256"
        }
      ],
      "stateMutability": "view",
      "type": "function"
    },
    {
      "inputs": [
        {
          "internalType": "address",
          "name": "to",
          "type": "address"
        },
        {
          "internalType": "uint256",
          "name": "amount",
          "type": "uint256"
        }
      ],
      "name": "transfer",
      "outputs": [
        {
          "internalType": "bool",
          "name": "",
          "type": "bool"
        }
      ],
      "stateMutability": "nonpayable",
      "type": "function"
    },
    {
      "inputs": [
        {
          "internalType": "address",
          "name": "from",
          "type": "address"
        },
        {
          "internalType": "address",
          "name": "to",
          "type": "address"
        },
        {
          "internalType": "uint256",
          "name": "amount",
          "type": "uint256"
        }
      ],
      "name": "transferFrom",
      "outputs": [
        {
          "internalType": "bool",
          "name": "",
          "type": "bool"
        }
      ],
      "stateMutability": "nonpayable",
      "type": "function"
    },
    {
      "inputs": [],
      "name": "unpause",
      "outputs": [],
      "stateMutability": "nonpayable",
      "type": "function"
    },
    {
      "inputs": [
        {
          "internalType": "uint256",
          "name": "proposalId",
          "type": "uint256"
        }
      ],
      "name": "vote",
      "outputs": [],
      "stateMutability": "nonpayable",
      "type": "function"
    }
  ],
  "bytecode": "0x60806040526200001c60646a52b7d2dcc80cd2e40000006200044e565b6008553480156200002c57600080fd5b50604051620029a0380380620029a08339810160408190526200004f9162000471565b60408051808201825260038082526251554160e81b602080840182905284518086019095528285528401529091906200008983826200052f565b5060046200009882826200052f565b50506001600655508015801590620000bb57506a52b7d2dcc80cd2e40000008111155b6200010d5760405162461bcd60e51b815260206004820152601660248201527f496e76616c696420696e697469616c20737570706c790000000000000000000060448201526064015b60405180910390fd5b6200011a600033620001a0565b620001467fb09aa5aeb3702cfd50b6b62bc4532604938f21248a27a1d5ca736082b6819cc133620001a0565b620001727f72c3eec1760bf69946625c2d4fb8e44e2c806345041960b434674fb9ab3976cf33620001a0565b6200018d6000805160206200298083398151915233620001a0565b620001993382620001b0565b506200061d565b620001ac828262000281565b5050565b6001600160a01b038216620002085760405162461bcd60e51b815260206004820152601f60248201527f45524332303a206d696e7420746f20746865207a65726f206164647265737300604482015260640162000104565b62000216600083836200030b565b80600260008282546200022a9190620005fb565b90915550506001600160a01b038216600081815260208181526040808320805486019055518481527fddf252ad1be2c89b69c2b068fc378daa952ba7f163c4a11628f55a4df523b3ef910160405180910390a35050565b6200028d828262000421565b620001ac5760008281526005602090815260408083206001600160a01b03851684529091529020805460ff19166001179055620002c73390565b6001600160a01b0316816001600160a01b0316837f2f8788117e7eff1d82e926ec794901d17c78024a50270940304540a733656f0d60405160405180910390a45050565b60095460ff1615620003555760405162461bcd60e51b815260206004820152601260248201527110dbdb9d1c9858dd081a5cc81c185d5cd95960721b604482015260640162000104565b6001600160a01b038316158015906200037657506001600160a01b03821615155b156200041c5762000397600080516020620029808339815191528362000421565b6200041c5760085481620003c0846001600160a01b031660009081526020819052604090205490565b620003cc9190620005fb565b11156200041c5760405162461bcd60e51b815260206004820152601a60248201527f45786365656473206d617820686f6c64696e6720616d6f756e74000000000000604482015260640162000104565b505050565b60008281526005602090815260408083206001600160a01b038516845290915290205460ff165b92915050565b6000826200046c57634e487b7160e01b600052601260045260246000fd5b500490565b6000602082840312156200048457600080fd5b5051919050565b634e487b7160e01b600052604160045260246000fd5b600181811c90821680620004b657607f821691505b602082108103620004d757634e487b7160e01b600052602260045260246000fd5b50919050565b601f8211156200041c57600081815260208120601f850160051c81016020861015620005065750805b601f850160051c820191505b81811015620005275782815560010162000512565b505050505050565b81516001600160401b038111156200054b576200054b6200048b565b62000563816200055c8454620004a1565b84620004dd565b602080601f8311600181146200059b5760008415620005825750858301515b600019600386901b1c1916600185901b17855562000527565b600085815260208120601f198616915b82811015620005cc57888601518255948401946001909101908401620005ab565b5085821015620005eb5787850151600019600388901b60f8161c191681555b5050505050600190811b01905550565b808201808211156200044857634e487b7160e01b600052601160045260246000fd5b612353806200062d6000396000f3fe608060405234801561001057600080fd5b50600436106102695760003560e01c8063549ffdf711610151578063a9059cbb116100c3578063d547741f11610087578063d547741f146105b1578063da35c664146105c4578063dd62ed3e146105cd578063efe92365146105e0578063f4e688a3146105f3578063f8b2cb4f1461060657600080fd5b8063a9059cbb1461053b578063a94015c81461054e578063bded89fb14610575578063c08cc02d14610588578063c7f758a81461059057600080fd5b806389f9a1d31161011557806389f9a1d3146104d55780638f61f4f5146104de57806391d148541461050557806395d89b4114610518578063a217fddf14610520578063a457c2d71461052857600080fd5b8063549ffdf7146104595780635c975abb146104845780636b4052fc1461049157806370a08231146104a45780638456cb59146104cd57600080fd5b80632f2ff15d116101ea57806339509351116101ae57806339509351146103c35780633f4ba83a146103d657806340c10f19146103de57806342545825146103f157806342966c681461041f57806349437ddf1461043257600080fd5b80632f2ff15d14610369578063313ce5671461037c57806332cb6b0c1461038b57806335facf781461039d57806336568abe146103b057600080fd5b806306fdde031161023157806306fdde03146102f9578063095ea7b31461030e57806318160ddd1461032157806323b872dd14610333578063248a9ca31461034657600080fd5b80630121b93f1461026e578063013cf08b1461028357806301ffc9a7146102b05780630386a016146102d3578063064c4ec5146102e6575b600080fd5b61028161027c366004611cdc565b610619565b005b610296610291366004611cdc565b6107a5565b6040516102a7959493929190611d45565b60405180910390f35b6102c36102be366004611d7e565b610863565b60405190151581526020016102a7565b6102816102e1366004611cdc565b61089a565b6102816102f4366004611df4565b6108ef565b610301610a32565b6040516102a79190611e60565b6102c361031c366004611e8f565b610ac4565b6002545b6040519081526020016102a7565b6102c3610341366004611eb9565b610adc565b610325610354366004611cdc565b60009081526005602052604090206001015490565b610281610377366004611ef5565b610b00565b604051601281526020016102a7565b6103256a52b7d2dcc80cd2e400000081565b6102816103ab366004611f37565b610b2a565b6102816103be366004611ef5565b610cf6565b6102c36103d1366004611e8f565b610d70565b610281610d92565b6102816103ec366004611e8f565b610daa565b6102c36103ff366004611e8f565b600c60209081526000928352604080842090915290825290205460ff1681565b61028161042d366004611cdc565b610eeb565b6103257fd7d97aebfa79fe1c237fabfaeed13f6c99cc1ed327ba4ab6aad2d1e8bfd236a981565b60075461046c906001600160a01b031681565b6040516001600160a01b0390911681526020016102a7565b6009546102c39060ff1681565b61028161049f366004611fec565b610f2a565b6103256104b2366004611fec565b6001600160a01b031660009081526020819052604090205490565b610281610f58565b61032560085481565b6103257fb09aa5aeb3702cfd50b6b62bc4532604938f21248a27a1d5ca736082b6819cc181565b6102c3610513366004611ef5565b610f73565b610301610f9e565b610325600081565b6102c3610536366004611e8f565b610fad565b6102c3610549366004611e8f565b611028565b6103257f72c3eec1760bf69946625c2d4fb8e44e2c806345041960b434674fb9ab3976cf81565b610281610583366004611cdc565b611036565b600a54610325565b6105a361059e366004611cdc565b611088565b6040516102a7929190612007565b6102816105bf366004611ef5565b611169565b610325600a5481565b6103256105db36600461202b565b61118e565b6102816105ee366004611e8f565b6111b9565b610281610601366004611e8f565b6112c6565b610325610614366004611fec565b611319565b610621611337565b60095460ff161561064d5760405162461bcd60e51b815260040161064490612055565b60405180910390fd5b7f72c3eec1760bf69946625c2d4fb8e44e2c806345041960b434674fb9ab3976cf61067781611390565b6000821180156106895750600a548211155b6106a55760405162461bcd60e51b815260040161064490612081565b336000908152600c6020908152604080832085845290915290205460ff16156107005760405162461bcd60e51b815260206004820152600d60248201526c105b1c9958591e481d9bdd1959609a1b6044820152606401610644565b6000828152600b602052604090206002015442106107565760405162461bcd60e51b8152602060048201526013602482015272159bdd1a5b99c81c195c9a5bd908195b991959606a1b6044820152606401610644565b336000908152600c602090815260408083208584528252808320805460ff19166001908117909155600b909252822001805491610792836120c4565b9190505550506107a26001600655565b50565b600b602052600090815260409020805481906107c0906120dd565b80601f01602080910402602001604051908101604052809291908181526020018280546107ec906120dd565b80156108395780601f1061080e57610100808354040283529160200191610839565b820191906000526020600020905b81548152906001019060200180831161081c57829003601f168201915b50505050600183015460028401546003909401549293909290915060ff8082169161010090041685565b60006001600160e01b03198216637965db0b60e01b148061089457506301ffc9a760e01b6001600160e01b03198316145b92915050565b60006108a581611390565b6000821180156108b75750600a548211155b6108d35760405162461bcd60e51b815260040161064490612081565b506000908152600b60205260409020600301805460ff19169055565b60006108fa81611390565b8382146109415760405162461bcd60e51b8152602060048201526015602482015274082e4e4c2f240d8cadccee8d040dad2e6dac2e8c6d605b1b6044820152606401610644565b6000805b858110156109855784848281811061095f5761095f612117565b9050602002013582610971919061212d565b91508061097d816120c4565b915050610945565b506a52b7d2dcc80cd2e40000008161099c60025490565b6109a6919061212d565b11156109c45760405162461bcd60e51b815260040161064490612140565b60005b85811015610a2957610a178787838181106109e4576109e4612117565b90506020020160208101906109f99190611fec565b868684818110610a0b57610a0b612117565b9050602002013561139a565b80610a21816120c4565b9150506109c7565b50505050505050565b606060038054610a41906120dd565b80601f0160208091040260200160405190810160405280929190818152602001828054610a6d906120dd565b8015610aba5780601f10610a8f57610100808354040283529160200191610aba565b820191906000526020600020905b815481529060010190602001808311610a9d57829003601f168201915b5050505050905090565b600033610ad2818585611465565b5060019392505050565b600033610aea858285611589565b610af5858585611603565b506001949350505050565b600082815260056020526040902060010154610b1b81611390565b610b2583836117b2565b505050565b610b32611337565b60095460ff1615610b555760405162461bcd60e51b815260040161064490612055565b7fb09aa5aeb3702cfd50b6b62bc4532604938f21248a27a1d5ca736082b6819cc1610b7f81611390565b60008351118015610b93575061e000835111155b610bdf5760405162461bcd60e51b815260206004820152601a60248201527f496e76616c6964206465736372697074696f6e206c656e6774680000000000006044820152606401610644565b60008211610c3b5760405162461bcd60e51b8152602060048201526024808201527f566f74696e6720706572696f64206d75737420626520677265617465722074686044820152630616e20360e41b6064820152608401610644565b600a8054906000610c4b836120c4565b90915550506040805160a08101825284815260006020820152908101610c71844261212d565b8152600160208083019190915260006040928301819052600a548152600b9091522081518190610ca190826121ba565b50602082015160018201556040820151600282015560608201516003909101805460809093015115156101000261ff00199215159290921661ffff199093169290921717905550610cf26001600655565b5050565b6001600160a01b0381163314610d665760405162461bcd60e51b815260206004820152602f60248201527f416363657373436f6e74726f6c3a2063616e206f6e6c792072656e6f756e636560448201526e103937b632b9903337b91039b2b63360891b6064820152608401610644565b610cf28282611838565b600033610ad2818585610d83838361118e565b610d8d919061212d565b611465565b6000610d9d81611390565b506009805460ff19169055565b610db2611337565b60095460ff1615610dd55760405162461bcd60e51b815260040161064490612055565b6000610de081611390565b6a52b7d2dcc80cd2e400000082610df660025490565b610e00919061212d565b1115610e1e5760405162461bcd60e51b815260040161064490612140565b610e28838361139a565b6007546001600160a01b031615610ee05760075460405163a8031a1d60e01b81526001600160a01b038581166004830152602482018590529091169063a8031a1d90604401600060405180830381600087803b158015610e8757600080fd5b505af1925050508015610e98575060015b610ee057826001600160a01b03167f049e2c1190c30b3fec47c8e9e33f6a6dd929bc61329111d628b943baaa44552183604051610ed791815260200190565b60405180910390a25b50610cf26001600655565b610ef3611337565b60095460ff1615610f165760405162461bcd60e51b815260040161064490612055565b610f20338261189f565b6107a26001600655565b6000610f3581611390565b50600780546001600160a01b0319166001600160a01b0392909216919091179055565b6000610f6381611390565b506009805460ff19166001179055565b60009182526005602090815260408084206001600160a01b0393909316845291905290205460ff1690565b606060048054610a41906120dd565b60003381610fbb828661118e565b90508381101561101b5760405162461bcd60e51b815260206004820152602560248201527f45524332303a2064656372656173656420616c6c6f77616e63652062656c6f77604482015264207a65726f60d81b6064820152608401610644565b610af58286868403611465565b600033610ad2818585611603565b600061104181611390565b600082116110825760405162461bcd60e51b815260206004820152600e60248201526d125b9d985b1a5908185b5bdd5b9d60921b6044820152606401610644565b50600855565b60606000808311801561109d5750600a548311155b6110b95760405162461bcd60e51b815260040161064490612081565b6000838152600b6020526040902060038101548154829160ff169082906110df906120dd565b80601f016020809104026020016040519081016040528092919081815260200182805461110b906120dd565b80156111585780601f1061112d57610100808354040283529160200191611158565b820191906000526020600020905b81548152906001019060200180831161113b57829003601f168201915b505050505091509250925050915091565b60008281526005602052604090206001015461118481611390565b610b258383611838565b6001600160a01b03918216600090815260016020908152604080832093909416825291909152205490565b6111c1611337565b60095460ff16156111e45760405162461bcd60e51b815260040161064490612055565b7fd7d97aebfa79fe1c237fabfaeed13f6c99cc1ed327ba4ab6aad2d1e8bfd236a961120e81611390565b8161122e846001600160a01b031660009081526020819052604090205490565b10156112735760405162461bcd60e51b8152602060048201526014602482015273496e73756666696369656e742062616c616e636560601b6044820152606401610644565b61127d838361189f565b6001600160a01b0383166000818152602081905260409020547f8ad64a0ac7700dd8425ab0499f107cb6e2cd1581d803c5b8c1c79dcb8190b1af90604051908152602001610ed7565b60006112d181611390565b6a52b7d2dcc80cd2e4000000826112e760025490565b6112f1919061212d565b111561130f5760405162461bcd60e51b815260040161064490612140565b610b25838361139a565b6001600160a01b038116600090815260208190526040812054610894565b6002600654036113895760405162461bcd60e51b815260206004820152601f60248201527f5265656e7472616e637947756172643a207265656e7472616e742063616c6c006044820152606401610644565b6002600655565b6107a281336119dd565b6001600160a01b0382166113f05760405162461bcd60e51b815260206004820152601f60248201527f45524332303a206d696e7420746f20746865207a65726f2061646472657373006044820152606401610644565b6113fc60008383611a36565b806002600082825461140e919061212d565b90915550506001600160a01b038216600081815260208181526040808320805486019055518481527fddf252ad1be2c89b69c2b068fc378daa952ba7f163c4a11628f55a4df523b3ef910160405180910390a35050565b6001600160a01b0383166114c75760405162461bcd60e51b8152602060048201526024808201527f45524332303a20617070726f76652066726f6d20746865207a65726f206164646044820152637265737360e01b6064820152608401610644565b6001600160a01b0382166115285760405162461bcd60e51b815260206004820152602260248201527f45524332303a20617070726f766520746f20746865207a65726f206164647265604482015261737360f01b6064820152608401610644565b6001600160a01b0383811660008181526001602090815260408083209487168084529482529182902085905590518481527f8c5be1e5ebec7d5bd14f71427d1e84f3dd0314c0f7b2291e5b200ac8c7c3b925910160405180910390a3505050565b6000611595848461118e565b905060001981146115fd57818110156115f05760405162461bcd60e51b815260206004820152601d60248201527f45524332303a20696e73756666696369656e7420616c6c6f77616e63650000006044820152606401610644565b6115fd8484848403611465565b50505050565b6001600160a01b0383166116675760405162461bcd60e51b815260206004820152602560248201527f45524332303a207472616e736665722066726f6d20746865207a65726f206164604482015264647265737360d81b6064820152608401610644565b6001600160a01b0382166116c95760405162461bcd60e51b815260206004820152602360248201527f45524332303a207472616e7366657220746f20746865207a65726f206164647260448201526265737360e81b6064820152608401610644565b6116d4838383611a36565b6001600160a01b0383166000908152602081905260409020548181101561174c5760405162461bcd60e51b815260206004820152602660248201527f45524332303a207472616e7366657220616d6f756e7420657863656564732062604482015265616c616e636560d01b6064820152608401610644565b6001600160a01b03848116600081815260208181526040808320878703905593871680835291849020805487019055925185815290927fddf252ad1be2c89b69c2b068fc378daa952ba7f163c4a11628f55a4df523b3ef910160405180910390a36115fd565b6117bc8282610f73565b610cf25760008281526005602090815260408083206001600160a01b03851684529091529020805460ff191660011790556117f43390565b6001600160a01b0316816001600160a01b0316837f2f8788117e7eff1d82e926ec794901d17c78024a50270940304540a733656f0d60405160405180910390a45050565b6118428282610f73565b15610cf25760008281526005602090815260408083206001600160a01b0385168085529252808320805460ff1916905551339285917ff6391f5c32d9c69d2a47ea670b442974b53935d1edc7fd64eb21e047a839171b9190a45050565b6001600160a01b0382166118ff5760405162461bcd60e51b815260206004820152602160248201527f45524332303a206275726e2066726f6d20746865207a65726f206164647265736044820152607360f81b6064820152608401610644565b61190b82600083611a36565b6001600160a01b0382166000908152602081905260409020548181101561197f5760405162461bcd60e51b815260206004820152602260248201527f45524332303a206275726e20616d6f756e7420657863656564732062616c616e604482015261636560f01b6064820152608401610644565b6001600160a01b0383166000818152602081815260408083208686039055600280548790039055518581529192917fddf252ad1be2c89b69c2b068fc378daa952ba7f163c4a11628f55a4df523b3ef910160405180910390a3505050565b6119e78282610f73565b610cf2576119f481611b27565b6119ff836020611b39565b604051602001611a1092919061227a565b60408051601f198184030181529082905262461bcd60e51b825261064491600401611e60565b60095460ff1615611a595760405162461bcd60e51b815260040161064490612055565b6001600160a01b03831615801590611a7957506001600160a01b03821615155b15610b2557611aa87fd7d97aebfa79fe1c237fabfaeed13f6c99cc1ed327ba4ab6aad2d1e8bfd236a983610f73565b610b255760085481611acf846001600160a01b031660009081526020819052604090205490565b611ad9919061212d565b1115610b255760405162461bcd60e51b815260206004820152601a60248201527f45786365656473206d617820686f6c64696e6720616d6f756e740000000000006044820152606401610644565b60606108946001600160a01b03831660145b60606000611b488360026122ef565b611b5390600261212d565b67ffffffffffffffff811115611b6b57611b6b611f21565b6040519080825280601f01601f191660200182016040528015611b95576020820181803683370190505b509050600360fc1b81600081518110611bb057611bb0612117565b60200101906001600160f81b031916908160001a905350600f60fb1b81600181518110611bdf57611bdf612117565b60200101906001600160f81b031916908160001a9053506000611c038460026122ef565b611c0e90600161212d565b90505b6001811115611c86576f181899199a1a9b1b9c1cb0b131b232b360811b85600f1660108110611c4257611c42612117565b1a60f81b828281518110611c5857611c58612117565b60200101906001600160f81b031916908160001a90535060049490941c93611c7f81612306565b9050611c11565b508315611cd55760405162461bcd60e51b815260206004820181905260248201527f537472696e67733a20686578206c656e67746820696e73756666696369656e746044820152606401610644565b9392505050565b600060208284031215611cee57600080fd5b5035919050565b60005b83811015611d10578181015183820152602001611cf8565b50506000910152565b60008151808452611d31816020860160208601611cf5565b601f01601f19169290920160200192915050565b60a081526000611d5860a0830188611d19565b602083019690965250604081019390935290151560608301521515608090910152919050565b600060208284031215611d9057600080fd5b81356001600160e01b031981168114611cd557600080fd5b60008083601f840112611dba57600080fd5b50813567ffffffffffffffff811115611dd257600080fd5b6020830191508360208260051b8501011115611ded57600080fd5b9250929050565b60008060008060408587031215611e0a57600080fd5b843567ffffffffffffffff80821115611e2257600080fd5b611e2e88838901611da8565b90965094506020870135915080821115611e4757600080fd5b50611e5487828801611da8565b95989497509550505050565b602081526000611cd56020830184611d19565b80356001600160a01b0381168114611e8a57600080fd5b919050565b60008060408385031215611ea257600080fd5b611eab83611e73565b946020939093013593505050565b600080600060608486031215611ece57600080fd5b611ed784611e73565b9250611ee560208501611e73565b9150604084013590509250925092565b60008060408385031215611f0857600080fd5b82359150611f1860208401611e73565b90509250929050565b634e487b7160e01b600052604160045260246000fd5b60008060408385031215611f4a57600080fd5b823567ffffffffffffffff80821115611f6257600080fd5b818501915085601f830112611f7657600080fd5b813581811115611f8857611f88611f21565b604051601f8201601f19908116603f01168101908382118183101715611fb057611fb0611f21565b81604052828152886020848701011115611fc957600080fd5b826020860160208301376000602093820184015298969091013596505050505050565b600060208284031215611ffe57600080fd5b611cd582611e73565b60408152600061201a6040830185611d19565b905082151560208301529392505050565b6000806040838503121561203e57600080fd5b61204783611e73565b9150611f1860208401611e73565b60208082526012908201527110dbdb9d1c9858dd081a5cc81c185d5cd95960721b604082015260600190565b602080825260139082015272125b9d985b1a59081c1c9bdc1bdcd85b081251606a1b604082015260600190565b634e487b7160e01b600052601160045260246000fd5b6000600182016120d6576120d66120ae565b5060010190565b600181811c908216806120f157607f821691505b60208210810361211157634e487b7160e01b600052602260045260246000fd5b50919050565b634e487b7160e01b600052603260045260246000fd5b80820180821115610894576108946120ae565b60208082526012908201527145786365656473206d617820737570706c7960701b604082015260600190565b601f821115610b2557600081815260208120601f850160051c810160208610156121935750805b601f850160051c820191505b818110156121b25782815560010161219f565b505050505050565b815167ffffffffffffffff8111156121d4576121d4611f21565b6121e8816121e284546120dd565b8461216c565b602080601f83116001811461221d57600084156122055750858301515b600019600386901b1c1916600185901b1785556121b2565b600085815260208120601f198616915b8281101561224c5788860151825594840194600190910190840161222d565b508582101561226a5787850151600019600388901b60f8161c191681555b5050505050600190811b01905550565b7f416363657373436f6e74726f6c3a206163636f756e74200000000000000000008152600083516122b2816017850160208801611cf5565b7001034b99036b4b9b9b4b733903937b6329607d1b60179184019182015283516122e3816028840160208801611cf5565b01602801949350505050565b8082028115828204841417610894576108946120ae565b600081612315576123156120ae565b50600019019056fea26469706673582212208bceacba1380d92faee2fe1b07bebe4604a8c1617a7e4537633afd31522405b964736f6c63430008140033d7d97aebfa79fe1c237fabfaeed13f6c99cc1ed327ba4ab6aad2d1e8bfd236a9",
  "linkReferences": {},
  "deployedLinkReferences": {}
}