{
  "_format": "hh-sol-artifact-1",
  "contractName": "MaskBTC",
  "sourceName": "maskly/blockchain/contracts/tokens/MaskBTC.sol",
  "abi": [
    {
      "inputs": [],
      "stateMutability": "nonpayable",
      "type": "constructor"
    },
    {
      "anonymous": false,
      "inputs": [
        {
          "indexed": true,
          "internalType": "address",
          "name": "owner",
          "type": "address"
        },
        {
          "indexed": true,
          "internalType": "address",
          "name": "spender",
          "type": "address"
        },
        {
          "indexed": false,
          "internalType": "uint256",
          "name": "value",
          "type": "uint256"
        }
      ],
      "name": "Approval",
      "type": "event"
    },
    {
      "anonymous": false,
      "inputs": [
        {
          "indexed": false,
          "internalType": "uint256",
          "name": "phase",
          "type": "uint256"
        },
        {
          "indexed": false,
          "internalType": "uint256",
          "name": "amount",
          "type": "uint256"
        },
        {
          "indexed": false,
          "internalType": "uint256",
          "name": "timestamp",
          "type": "uint256"
        }
      ],
      "name": "MonthlyRelease",
      "type": "event"
    },
    {
      "anonymous": false,
      "inputs": [
        {
          "indexed": true,
          "internalType": "address",
          "name": "user",
          "type": "address"
        },
        {
          "indexed": false,
          "internalType": "uint256",
          "name": "quaAmount",
          "type": "uint256"
        },
        {
          "indexed": false,
          "internalType": "uint256",
          "name": "maskBTCAmount",
          "type": "uint256"
        }
      ],
      "name": "QUAConverted",
      "type": "event"
    },
    {
      "anonymous": false,
      "inputs": [
        {
          "indexed": true,
          "internalType": "bytes32",
          "name": "role",
          "type": "bytes32"
        },
        {
          "indexed": true,
          "internalType": "bytes32",
          "name": "previousAdminRole",
          "type": "bytes32"
        },
        {
          "indexed": true,
          "internalType": "bytes32",
          "name": "newAdminRole",
          "type": "bytes32"
        }
      ],
      "name": "RoleAdminChanged",
      "type": "event"
    },
    {
      "anonymous": false,
      "inputs": [
        {
          "indexed": true,
          "internalType": "bytes32",
          "name": "role",
          "type": "bytes32"
        },
        {
          "indexed": true,
          "internalType": "address",
          "name": "account",
          "type": "address"
        },
        {
          "indexed": true,
          "internalType": "address",
          "name": "sender",
          "type": "address"
        }
      ],
      "name": "RoleGranted",
      "type": "event"
    },
    {
      "anonymous": false,
      "inputs": [
        {
          "indexed": true,
          "internalType": "bytes32",
          "name": "role",
          "type": "bytes32"
        },
        {
          "indexed": true,
          "internalType": "address",
          "name": "account",
          "type": "address"
        },
        {
          "indexed": true,
          "internalType": "address",
          "name": "sender",
          "type": "address"
        }
      ],
      "name": "RoleRevoked",
      "type": "event"
    },
    {
      "anonymous": false,
      "inputs": [
        {
          "indexed": true,
          "internalType": "address",
          "name": "from",
          "type": "address"
        },
        {
          "indexed": true,
          "internalType": "address",
          "name": "to",
          "type": "address"
        },
        {
          "indexed": false,
          "internalType": "uint256",
          "name": "value",
          "type": "uint256"
        }
      ],
      "name": "Transfer",
      "type": "event"
    },
    {
      "inputs": [],
      "name": "DEFAULT_ADMIN_ROLE",
      "outputs": [
        {
          "internalType": "bytes32",
          "name": "",
          "type": "bytes32"
        }
      ],
      "stateMutability": "view",
      "type": "function"
    },
    {
      "inputs": [],
      "name": "GENESIS_SUPPLY",
      "outputs": [
        {
          "internalType": "uint256",
          "name": "",
          "type": "uint256"
        }
      ],
      "stateMutability": "view",
      "type": "function"
    },
    {
      "inputs": [],
      "name": "MINTER_ROLE",
      "outputs": [
        {
          "internalType": "bytes32",
          "name": "",
          "type": "bytes32"
        }
      ],
      "stateMutability": "view",
      "type": "function"
    },
    {
      "inputs": [],
      "name": "ORACLE_ROLE",
      "outputs": [
        {
          "internalType": "bytes32",
          "name": "",
          "type": "bytes32"
        }
      ],
      "stateMutability": "view",
      "type": "function"
    },
    {
      "inputs": [],
      "name": "TOTAL_SUPPLY",
      "outputs": [
        {
          "internalType": "uint256",
          "name": "",
          "type": "uint256"
        }
      ],
      "stateMutability": "view",
      "type": "function"
    },
    {
      "inputs": [
        {
          "internalType": "address",
          "name": "owner",
          "type": "address"
        },
        {
          "internalType": "address",
          "name": "spender",
          "type": "address"
        }
      ],
      "name": "allowance",
      "outputs": [
        {
          "internalType": "uint256",
          "name": "",
          "type": "uint256"
        }
      ],
      "stateMutability": "view",
      "type": "function"
    },
    {
      "inputs": [
        {
          "internalType": "address",
          "name": "spender",
          "type": "address"
        },
        {
          "internalType": "uint256",
          "name": "amount",
          "type": "uint256"
        }
      ],
      "name": "approve",
      "outputs": [
        {
          "internalType": "bool",
          "name": "",
          "type": "bool"
        }
      ],
      "stateMutability": "nonpayable",
      "type": "function"
    },
    {
      "inputs": [
        {
          "internalType": "address",
          "name": "account",
          "type": "address"
        }
      ],
      "name": "balanceOf",
      "outputs": [
        {
          "internalType": "uint256",
          "name": "",
          "type": "uint256"
        }
      ],
      "stateMutability": "view",
      "type": "function"
    },
    {
      "inputs": [
        {
          "internalType": "uint256",
          "name": "",
          "type": "uint256"
        }
      ],
      "name": "conversionHistory",
      "outputs": [
        {
          "internalType": "uint256",
          "name": "month",
          "type": "uint256"
        },
        {
          "internalType": "uint256",
          "name": "releaseAmount",
          "type": "uint256"
        },
        {
          "internalType": "uint256",
          "name": "quaTotal",
          "type": "uint256"
        },
        {
          "internalType": "uint256",
          "name": "conversionRate",
          "type": "uint256"
        }
      ],
      "stateMutability": "view",
      "type": "function"
    },
    {
      "inputs": [
        {
          "internalType": "uint256",
          "name": "quaAmount",
          "type": "uint256"
        }
      ],
      "name": "convertQUA",
      "outputs": [],
      "stateMutability": "nonpayable",
      "type": "function"
    },
    {
      "inputs": [],
      "name": "currentQUATotal",
      "outputs": [
        {
          "internalType": "uint256",
          "name": "",
          "type": "uint256"
        }
      ],
      "stateMutability": "view",
      "type": "function"
    },
    {
      "inputs": [],
      "name": "currentReleasePhase",
      "outputs": [
        {
          "internalType": "uint256",
          "name": "",
          "type": "uint256"
        }
      ],
      "stateMutability": "view",
      "type": "function"
    },
    {
      "inputs": [],
      "name": "decimals",
      "outputs": [
        {
          "internalType": "uint8",
          "name": "",
          "type": "uint8"
        }
      ],
      "stateMutability": "view",
      "type": "function"
    },
    {
      "inputs": [
        {
          "internalType": "address",
          "name": "spender",
          "type": "address"
        },
        {
          "internalType": "uint256",
          "name": "subtractedValue",
          "type": "uint256"
        }
      ],
      "name": "decreaseAllowance",
      "outputs": [
        {
          "internalType": "bool",
          "name": "",
          "type": "bool"
        }
      ],
      "stateMutability": "nonpayable",
      "type": "function"
    },
    {
      "inputs": [],
      "name": "executeMonthlyRelease",
      "outputs": [],
      "stateMutability": "nonpayable",
      "type": "function"
    },
    {
      "inputs": [
        {
          "internalType": "bytes32",
          "name": "role",
          "type": "bytes32"
        }
      ],
      "name": "getRoleAdmin",
      "outputs": [
        {
          "internalType": "bytes32",
          "name": "",
          "type": "bytes32"
        }
      ],
      "stateMutability": "view",
      "type": "function"
    },
    {
      "inputs": [
        {
          "internalType": "bytes32",
          "name": "role",
          "type": "bytes32"
        },
        {
          "internalType": "address",
          "name": "account",
          "type": "address"
        }
      ],
      "name": "grantRole",
      "outputs": [],
      "stateMutability": "nonpayable",
      "type": "function"
    },
    {
      "inputs": [
        {
          "internalType": "bytes32",
          "name": "role",
          "type": "bytes32"
        },
        {
          "internalType": "address",
          "name": "account",
          "type": "address"
        }
      ],
      "name": "hasRole",
      "outputs": [
        {
          "internalType": "bool",
          "name": "",
          "type": "bool"
        }
      ],
      "stateMutability": "view",
      "type": "function"
    },
    {
      "inputs": [
        {
          "internalType": "address",
          "name": "spender",
          "type": "address"
        },
        {
          "internalType": "uint256",
          "name": "addedValue",
          "type": "uint256"
        }
      ],
      "name": "increaseAllowance",
      "outputs": [
        {
          "internalType": "bool",
          "name": "",
          "type": "bool"
        }
      ],
      "stateMutability": "nonpayable",
      "type": "function"
    },
    {
      "inputs": [],
      "name": "lastReleaseTime",
      "outputs": [
        {
          "internalType": "uint256",
          "name": "",
          "type": "uint256"
        }
      ],
      "stateMutability": "view",
      "type": "function"
    },
    {
      "inputs": [],
      "name": "monthlyRelease",
      "outputs": [
        {
          "internalType": "uint256",
          "name": "",
          "type": "uint256"
        }
      ],
      "stateMutability": "view",
      "type": "function"
    },
    {
      "inputs": [],
      "name": "name",
      "outputs": [
        {
          "internalType": "string",
          "name": "",
          "type": "string"
        }
      ],
      "stateMutability": "view",
      "type": "function"
    },
    {
      "inputs": [
        {
          "internalType": "bytes32",
          "name": "role",
          "type": "bytes32"
        },
        {
          "internalType": "address",
          "name": "account",
          "type": "address"
        }
      ],
      "name": "renounceRole",
      "outputs": [],
      "stateMutability": "nonpayable",
      "type": "function"
    },
    {
      "inputs": [
        {
          "internalType": "bytes32",
          "name": "role",
          "type": "bytes32"
        },
        {
          "internalType": "address",
          "name": "account",
          "type": "address"
        }
      ],
      "name": "revokeRole",
      "outputs": [],
      "stateMutability": "nonpayable",
      "type": "function"
    },
    {
      "inputs": [
        {
          "internalType": "uint256",
          "name": "quaTotal",
          "type": "uint256"
        }
      ],
      "name": "setCurrentQUATotal",
      "outputs": [],
      "stateMutability": "nonpayable",
      "type": "function"
    },
    {
      "inputs": [
        {
          "internalType": "bytes4",
          "name": "interfaceId",
          "type": "bytes4"
        }
      ],
      "name": "supportsInterface",
      "outputs": [
        {
          "internalType": "bool",
          "name": "",
          "type": "bool"
        }
      ],
      "stateMutability": "view",
      "type": "function"
    },
    {
      "inputs": [],
      "name": "symbol",
      "outputs": [
        {
          "internalType": "string",
          "name": "",
          "type": "string"
        }
      ],
      "stateMutability": "view",
      "type": "function"
    },
    {
      "inputs": [],
      "name": "totalSupply",
      "outputs": [
        {
          "internalType": "uint256",
          "name": "",
          "type": "uint256"
        }
      ],
      "stateMutability": "view",
      "type": "function"
    },
    {
      "inputs": [
        {
          "internalType": "address",
          "name": "to",
          "type": "address"
        },
        {
          "internalType": "uint256",
          "name": "amount",
          "type": "uint256"
        }
      ],
      "name": "transfer",
      "outputs": [
        {
          "internalType": "bool",
          "name": "",
          "type": "bool"
        }
      ],
      "stateMutability": "nonpayable",
      "type": "function"
    },
    {
      "inputs": [
        {
          "internalType": "address",
          "name": "from",
          "type": "address"
        },
        {
          "internalType": "address",
          "name": "to",
          "type": "address"
        },
        {
          "internalType": "uint256",
          "name": "amount",
          "type": "uint256"
        }
      ],
      "name": "transferFrom",
      "outputs": [
        {
          "internalType": "bool",
          "name": "",
          "type": "bool"
        }
      ],
      "stateMutability": "nonpayable",
      "type": "function"
    },
    {
      "inputs": [
        {
          "internalType": "uint256",
          "name": "newMonthlyRelease",
          "type": "uint256"
        },
        {
          "internalType": "uint256",
          "name": "newPhase",
          "type": "uint256"
        }
      ],
      "name": "updateReleaseParams",
      "outputs": [],
      "stateMutability": "nonpayable",
      "type": "function"
    }
  ],
  "bytecode": "0x608060405269d3c21bcecceda100000060075560016008553480156200002457600080fd5b50604051806040016040528060078152602001664d61736b42544360c81b815250604051806040016040528060048152602001634d42544360e01b815250816003908162000073919062000309565b50600462000082828262000309565b505060016006555062000097600033620000d3565b620000c9336064620000b76b018d0bf423c03d8de00000006002620003eb565b620000c3919062000405565b620000e3565b426009556200043e565b620000df8282620001a9565b5050565b6001600160a01b0382166200013e5760405162461bcd60e51b815260206004820152601f60248201527f45524332303a206d696e7420746f20746865207a65726f206164647265737300604482015260640160405180910390fd5b806002600082825462000152919062000428565b90915550506001600160a01b038216600081815260208181526040808320805486019055518481527fddf252ad1be2c89b69c2b068fc378daa952ba7f163c4a11628f55a4df523b3ef910160405180910390a35050565b620001b5828262000238565b620000df5760008281526005602090815260408083206001600160a01b03851684529091529020805460ff19166001179055620001ef3390565b6001600160a01b0316816001600160a01b0316837f2f8788117e7eff1d82e926ec794901d17c78024a50270940304540a733656f0d60405160405180910390a45050565b505050565b60008281526005602090815260408083206001600160a01b038516845290915290205460ff165b92915050565b634e487b7160e01b600052604160045260246000fd5b600181811c908216806200029057607f821691505b602082108103620002b157634e487b7160e01b600052602260045260246000fd5b50919050565b601f8211156200023357600081815260208120601f850160051c81016020861015620002e05750805b601f850160051c820191505b818110156200030157828155600101620002ec565b505050505050565b81516001600160401b0381111562000325576200032562000265565b6200033d816200033684546200027b565b84620002b7565b602080601f8311600181146200037557600084156200035c5750858301515b600019600386901b1c1916600185901b17855562000301565b600085815260208120601f198616915b82811015620003a65788860151825594840194600190910190840162000385565b5085821015620003c55787850151600019600388901b60f8161c191681555b5050505050600190811b01905550565b634e487b7160e01b600052601160045260246000fd5b80820281158282048414176200025f576200025f620003d5565b6000826200042357634e487b7160e01b600052601260045260246000fd5b500490565b808201808211156200025f576200025f620003d5565b61170e806200044e6000396000f3fe608060405234801561001057600080fd5b50600436106101e55760003560e01c806370a082311161010f578063a457c2d7116100a2578063d539139311610071578063d539139314610413578063d547741f1461043a578063dd62ed3e1461044d578063dfaf734a1461046057600080fd5b8063a457c2d7146103d1578063a5cafff3146103e4578063a9059cbb146103ed578063a989e92e1461040057600080fd5b806391d14854116100de57806391d14854146103a657806395d89b41146103b957806399ec6765146103c1578063a217fddf146103c957600080fd5b806370a082311461034f5780637fdcd70714610378578063872ba95a1461038b578063902d55a51461039357600080fd5b80632f2ff15d11610187578063453a1e7511610156578063453a1e75146102f7578063558b0e251461032a5780635b45dda61461033d5780636a7334431461034657600080fd5b80632f2ff15d146102ad578063313ce567146102c257806336568abe146102d157806339509351146102e457600080fd5b8063095ea7b3116101c3578063095ea7b31461025c57806318160ddd1461026f57806323b872dd14610277578063248a9ca31461028a57600080fd5b806301ffc9a7146101ea57806306fdde031461021257806307e2cea514610227575b600080fd5b6101fd6101f83660046112b9565b610469565b60405190151581526020015b60405180910390f35b61021a6104a0565b6040516102099190611307565b61024e7f68e79a7bf1e0bc45d0a330c573bc367f9cf464fd326078812f301165fbda4ef181565b604051908152602001610209565b6101fd61026a366004611356565b610532565b60025461024e565b6101fd610285366004611380565b61054a565b61024e6102983660046113bc565b60009081526005602052604090206001015490565b6102c06102bb3660046113d5565b61056e565b005b60405160128152602001610209565b6102c06102df3660046113d5565b610598565b6101fd6102f2366004611356565b61061b565b61030a6103053660046113bc565b61063d565b604080519485526020850193909352918301526060820152608001610209565b6102c0610338366004611401565b610677565b61024e60085481565b61024e600a5481565b61024e61035d366004611423565b6001600160a01b031660009081526020819052604090205490565b6102c06103863660046113bc565b61068e565b6102c0610895565b61024e6b018d0bf423c03d8de000000081565b6101fd6103b43660046113d5565b6109f1565b61021a610a1c565b61024e610a2b565b61024e600081565b6101fd6103df366004611356565b610a51565b61024e60075481565b6101fd6103fb366004611356565b610acc565b6102c061040e3660046113bc565b610ada565b61024e7f9f2df0fed2c77648de5860a4cc508cd0818c85b8b8a1ab4ceeef8d981c8956a681565b6102c06104483660046113d5565b610b0a565b61024e61045b36600461143e565b610b2f565b61024e60095481565b60006001600160e01b03198216637965db0b60e01b148061049a57506301ffc9a760e01b6001600160e01b03198316145b92915050565b6060600380546104af90611468565b80601f01602080910402602001604051908101604052809291908181526020018280546104db90611468565b80156105285780601f106104fd57610100808354040283529160200191610528565b820191906000526020600020905b81548152906001019060200180831161050b57829003601f168201915b5050505050905090565b600033610540818585610b5a565b5060019392505050565b600033610558858285610c7e565b610563858585610cf8565b506001949350505050565b60008281526005602052604090206001015461058981610e9c565b6105938383610ea6565b505050565b6001600160a01b038116331461060d5760405162461bcd60e51b815260206004820152602f60248201527f416363657373436f6e74726f6c3a2063616e206f6e6c792072656e6f756e636560448201526e103937b632b9903337b91039b2b63360891b60648201526084015b60405180910390fd5b6106178282610f2c565b5050565b60003361054081858561062e8383610b2f565b61063891906114b8565b610b5a565b600b818154811061064d57600080fd5b60009182526020909120600490910201805460018201546002830154600390930154919350919084565b600061068281610e9c565b50600791909155600855565b610696610f93565b600081116106db5760405162461bcd60e51b8152602060048201526012602482015271125b9d985b1a590814555048185b5bdd5b9d60721b6044820152606401610604565b6000600a54116107215760405162461bcd60e51b8152602060048201526011602482015270145550481d1bdd185b081b9bdd081cd95d607a1b6044820152606401610604565b6000600a54600754670de0b6b3a764000061073c91906114cb565b61074691906114e2565b90506000670de0b6b3a764000061075d83856114cb565b61076791906114e2565b90506107733382610fec565b6040805160808101825260085481526007546020808301918252600a5483850190815260608401878152600b805460018101825560009190915294517f0175b7a638427703f0dbe7bb9bbf987a2551717b34e79f33b5b1008d1fa01db960049096029586015592517f0175b7a638427703f0dbe7bb9bbf987a2551717b34e79f33b5b1008d1fa01dba850155517f0175b7a638427703f0dbe7bb9bbf987a2551717b34e79f33b5b1008d1fa01dbb84015590517f0175b7a638427703f0dbe7bb9bbf987a2551717b34e79f33b5b1008d1fa01dbc90920191909155815185815290810183905233917ffa5a8d4c3aa574bc90929f8572ef7698ce38844f00e37d4f87e172e9aeb8a1dc910160405180910390a250506108926001600655565b50565b7f9f2df0fed2c77648de5860a4cc508cd0818c85b8b8a1ab4ceeef8d981c8956a66108bf81610e9c565b6108c7610f93565b6009546108d79062278d006114b8565b4210156109265760405162461bcd60e51b815260206004820152601c60248201527f52656c6561736520696e74657276616c206e6f742072656163686564000000006044820152606401610604565b600754600854600110156109825760016008546109439190611504565b61094e9060646115fb565b600160085461095d9190611504565b61096890605a6115fb565b60075461097591906114cb565b61097f91906114e2565b90505b61098c3382610fec565b42600955600880549060006109a083611607565b909155505060085460408051918252602082018390524282820152517fb28c22751a38225546dfdd09ef678260c8fba8a6e8c6ed8a65a4cf279b9ba3b49181900360600190a1506108926001600655565b60009182526005602090815260408084206001600160a01b0393909316845291905290205460ff1690565b6060600480546104af90611468565b6064610a446b018d0bf423c03d8de000000060026114cb565b610a4e91906114e2565b81565b60003381610a5f8286610b2f565b905083811015610abf5760405162461bcd60e51b815260206004820152602560248201527f45524332303a2064656372656173656420616c6c6f77616e63652062656c6f77604482015264207a65726f60d81b6064820152608401610604565b6105638286868403610b5a565b600033610540818585610cf8565b7f68e79a7bf1e0bc45d0a330c573bc367f9cf464fd326078812f301165fbda4ef1610b0481610e9c565b50600a55565b600082815260056020526040902060010154610b2581610e9c565b6105938383610f2c565b6001600160a01b03918216600090815260016020908152604080832093909416825291909152205490565b6001600160a01b038316610bbc5760405162461bcd60e51b8152602060048201526024808201527f45524332303a20617070726f76652066726f6d20746865207a65726f206164646044820152637265737360e01b6064820152608401610604565b6001600160a01b038216610c1d5760405162461bcd60e51b815260206004820152602260248201527f45524332303a20617070726f766520746f20746865207a65726f206164647265604482015261737360f01b6064820152608401610604565b6001600160a01b0383811660008181526001602090815260408083209487168084529482529182902085905590518481527f8c5be1e5ebec7d5bd14f71427d1e84f3dd0314c0f7b2291e5b200ac8c7c3b925910160405180910390a3505050565b6000610c8a8484610b2f565b90506000198114610cf25781811015610ce55760405162461bcd60e51b815260206004820152601d60248201527f45524332303a20696e73756666696369656e7420616c6c6f77616e63650000006044820152606401610604565b610cf28484848403610b5a565b50505050565b6001600160a01b038316610d5c5760405162461bcd60e51b815260206004820152602560248201527f45524332303a207472616e736665722066726f6d20746865207a65726f206164604482015264647265737360d81b6064820152608401610604565b6001600160a01b038216610dbe5760405162461bcd60e51b815260206004820152602360248201527f45524332303a207472616e7366657220746f20746865207a65726f206164647260448201526265737360e81b6064820152608401610604565b6001600160a01b03831660009081526020819052604090205481811015610e365760405162461bcd60e51b815260206004820152602660248201527f45524332303a207472616e7366657220616d6f756e7420657863656564732062604482015265616c616e636560d01b6064820152608401610604565b6001600160a01b03848116600081815260208181526040808320878703905593871680835291849020805487019055925185815290927fddf252ad1be2c89b69c2b068fc378daa952ba7f163c4a11628f55a4df523b3ef910160405180910390a3610cf2565b61089281336110ab565b610eb082826109f1565b6106175760008281526005602090815260408083206001600160a01b03851684529091529020805460ff19166001179055610ee83390565b6001600160a01b0316816001600160a01b0316837f2f8788117e7eff1d82e926ec794901d17c78024a50270940304540a733656f0d60405160405180910390a45050565b610f3682826109f1565b156106175760008281526005602090815260408083206001600160a01b0385168085529252808320805460ff1916905551339285917ff6391f5c32d9c69d2a47ea670b442974b53935d1edc7fd64eb21e047a839171b9190a45050565b600260065403610fe55760405162461bcd60e51b815260206004820152601f60248201527f5265656e7472616e637947756172643a207265656e7472616e742063616c6c006044820152606401610604565b6002600655565b6001600160a01b0382166110425760405162461bcd60e51b815260206004820152601f60248201527f45524332303a206d696e7420746f20746865207a65726f2061646472657373006044820152606401610604565b806002600082825461105491906114b8565b90915550506001600160a01b038216600081815260208181526040808320805486019055518481527fddf252ad1be2c89b69c2b068fc378daa952ba7f163c4a11628f55a4df523b3ef910160405180910390a35050565b6110b582826109f1565b610617576110c281611104565b6110cd836020611116565b6040516020016110de929190611620565b60408051601f198184030181529082905262461bcd60e51b825261060491600401611307565b606061049a6001600160a01b03831660145b606060006111258360026114cb565b6111309060026114b8565b67ffffffffffffffff81111561114857611148611695565b6040519080825280601f01601f191660200182016040528015611172576020820181803683370190505b509050600360fc1b8160008151811061118d5761118d6116ab565b60200101906001600160f81b031916908160001a905350600f60fb1b816001815181106111bc576111bc6116ab565b60200101906001600160f81b031916908160001a90535060006111e08460026114cb565b6111eb9060016114b8565b90505b6001811115611263576f181899199a1a9b1b9c1cb0b131b232b360811b85600f166010811061121f5761121f6116ab565b1a60f81b828281518110611235576112356116ab565b60200101906001600160f81b031916908160001a90535060049490941c9361125c816116c1565b90506111ee565b5083156112b25760405162461bcd60e51b815260206004820181905260248201527f537472696e67733a20686578206c656e67746820696e73756666696369656e746044820152606401610604565b9392505050565b6000602082840312156112cb57600080fd5b81356001600160e01b0319811681146112b257600080fd5b60005b838110156112fe5781810151838201526020016112e6565b50506000910152565b60208152600082518060208401526113268160408501602087016112e3565b601f01601f19169190910160400192915050565b80356001600160a01b038116811461135157600080fd5b919050565b6000806040838503121561136957600080fd5b6113728361133a565b946020939093013593505050565b60008060006060848603121561139557600080fd5b61139e8461133a565b92506113ac6020850161133a565b9150604084013590509250925092565b6000602082840312156113ce57600080fd5b5035919050565b600080604083850312156113e857600080fd5b823591506113f86020840161133a565b90509250929050565b6000806040838503121561141457600080fd5b50508035926020909101359150565b60006020828403121561143557600080fd5b6112b28261133a565b6000806040838503121561145157600080fd5b61145a8361133a565b91506113f86020840161133a565b600181811c9082168061147c57607f821691505b60208210810361149c57634e487b7160e01b600052602260045260246000fd5b50919050565b634e487b7160e01b600052601160045260246000fd5b8082018082111561049a5761049a6114a2565b808202811582820484141761049a5761049a6114a2565b6000826114ff57634e487b7160e01b600052601260045260246000fd5b500490565b8181038181111561049a5761049a6114a2565b600181815b80851115611552578160001904821115611538576115386114a2565b8085161561154557918102915b93841c939080029061151c565b509250929050565b6000826115695750600161049a565b816115765750600061049a565b816001811461158c5760028114611596576115b2565b600191505061049a565b60ff8411156115a7576115a76114a2565b50506001821b61049a565b5060208310610133831016604e8410600b84101617156115d5575081810a61049a565b6115df8383611517565b80600019048211156115f3576115f36114a2565b029392505050565b60006112b2838361155a565b600060018201611619576116196114a2565b5060010190565b7f416363657373436f6e74726f6c3a206163636f756e74200000000000000000008152600083516116588160178501602088016112e3565b7001034b99036b4b9b9b4b733903937b6329607d1b60179184019182015283516116898160288401602088016112e3565b01602801949350505050565b634e487b7160e01b600052604160045260246000fd5b634e487b7160e01b600052603260045260246000fd5b6000816116d0576116d06114a2565b50600019019056fea2646970667358221220dad58f73d4317e2353521e362c1431319aa70b4c3342b54de6133d89659509a064736f6c63430008140033",
  "linkReferences": {},
  "deployedLinkReferences": {}
}