{
  "_format": "hh-sol-artifact-1",
  "contractName": "ReferralRewards",
  "sourceName": "maskly/blockchain/contracts/tokens/ReferralRewards.sol",
  "abi": [
    {
      "inputs": [
        {
          "internalType": "address",
          "name": "_quaToken",
          "type": "address"
        },
        {
          "internalType": "address",
          "name": "_foundationAddress",
          "type": "address"
        }
      ],
      "stateMutability": "nonpayable",
      "type": "constructor"
    },
    {
      "anonymous": false,
      "inputs": [
        {
          "indexed": true,
          "internalType": "address",
          "name": "referrer",
          "type": "address"
        },
        {
          "indexed": true,
          "internalType": "address",
          "name": "referee",
          "type": "address"
        }
      ],
      "name": "ReferralRecorded",
      "type": "event"
    },
    {
      "anonymous": false,
      "inputs": [
        {
          "indexed": true,
          "internalType": "address",
          "name": "recipient",
          "type": "address"
        },
        {
          "indexed": false,
          "internalType": "uint256",
          "name": "amount",
          "type": "uint256"
        }
      ],
      "name": "RewardDistributed",
      "type": "event"
    },
    {
      "anonymous": false,
      "inputs": [
        {
          "indexed": true,
          "internalType": "bytes32",
          "name": "role",
          "type": "bytes32"
        },
        {
          "indexed": true,
          "internalType": "bytes32",
          "name": "previousAdminRole",
          "type": "bytes32"
        },
        {
          "indexed": true,
          "internalType": "bytes32",
          "name": "newAdminRole",
          "type": "bytes32"
        }
      ],
      "name": "RoleAdminChanged",
      "type": "event"
    },
    {
      "anonymous": false,
      "inputs": [
        {
          "indexed": true,
          "internalType": "bytes32",
          "name": "role",
          "type": "bytes32"
        },
        {
          "indexed": true,
          "internalType": "address",
          "name": "account",
          "type": "address"
        },
        {
          "indexed": true,
          "internalType": "address",
          "name": "sender",
          "type": "address"
        }
      ],
      "name": "RoleGranted",
      "type": "event"
    },
    {
      "anonymous": false,
      "inputs": [
        {
          "indexed": true,
          "internalType": "bytes32",
          "name": "role",
          "type": "bytes32"
        },
        {
          "indexed": true,
          "internalType": "address",
          "name": "account",
          "type": "address"
        },
        {
          "indexed": true,
          "internalType": "address",
          "name": "sender",
          "type": "address"
        }
      ],
      "name": "RoleRevoked",
      "type": "event"
    },
    {
      "inputs": [],
      "name": "DEFAULT_ADMIN_ROLE",
      "outputs": [
        {
          "internalType": "bytes32",
          "name": "",
          "type": "bytes32"
        }
      ],
      "stateMutability": "view",
      "type": "function"
    },
    {
      "inputs": [
        {
          "internalType": "address",
          "name": "recipient",
          "type": "address"
        },
        {
          "internalType": "uint256",
          "name": "amount",
          "type": "uint256"
        }
      ],
      "name": "distributeRewards",
      "outputs": [],
      "stateMutability": "nonpayable",
      "type": "function"
    },
    {
      "inputs": [],
      "name": "foundationAddress",
      "outputs": [
        {
          "internalType": "address",
          "name": "",
          "type": "address"
        }
      ],
      "stateMutability": "view",
      "type": "function"
    },
    {
      "inputs": [
        {
          "internalType": "bytes32",
          "name": "role",
          "type": "bytes32"
        }
      ],
      "name": "getRoleAdmin",
      "outputs": [
        {
          "internalType": "bytes32",
          "name": "",
          "type": "bytes32"
        }
      ],
      "stateMutability": "view",
      "type": "function"
    },
    {
      "inputs": [
        {
          "internalType": "bytes32",
          "name": "role",
          "type": "bytes32"
        },
        {
          "internalType": "address",
          "name": "account",
          "type": "address"
        }
      ],
      "name": "grantRole",
      "outputs": [],
      "stateMutability": "nonpayable",
      "type": "function"
    },
    {
      "inputs": [
        {
          "internalType": "bytes32",
          "name": "role",
          "type": "bytes32"
        },
        {
          "internalType": "address",
          "name": "account",
          "type": "address"
        }
      ],
      "name": "hasRole",
      "outputs": [
        {
          "internalType": "bool",
          "name": "",
          "type": "bool"
        }
      ],
      "stateMutability": "view",
      "type": "function"
    },
    {
      "inputs": [],
      "name": "quaToken",
      "outputs": [
        {
          "internalType": "contract IERC20",
          "name": "",
          "type": "address"
        }
      ],
      "stateMutability": "view",
      "type": "function"
    },
    {
      "inputs": [],
      "name": "referralRewardPercentage",
      "outputs": [
        {
          "internalType": "uint256",
          "name": "",
          "type": "uint256"
        }
      ],
      "stateMutability": "view",
      "type": "function"
    },
    {
      "inputs": [
        {
          "internalType": "bytes32",
          "name": "role",
          "type": "bytes32"
        },
        {
          "internalType": "address",
          "name": "account",
          "type": "address"
        }
      ],
      "name": "renounceRole",
      "outputs": [],
      "stateMutability": "nonpayable",
      "type": "function"
    },
    {
      "inputs": [
        {
          "internalType": "bytes32",
          "name": "role",
          "type": "bytes32"
        },
        {
          "internalType": "address",
          "name": "account",
          "type": "address"
        }
      ],
      "name": "revokeRole",
      "outputs": [],
      "stateMutability": "nonpayable",
      "type": "function"
    },
    {
      "inputs": [
        {
          "internalType": "uint256",
          "name": "percentage",
          "type": "uint256"
        }
      ],
      "name": "setRewardPercentage",
      "outputs": [],
      "stateMutability": "nonpayable",
      "type": "function"
    },
    {
      "inputs": [
        {
          "internalType": "bytes4",
          "name": "interfaceId",
          "type": "bytes4"
        }
      ],
      "name": "supportsInterface",
      "outputs": [
        {
          "internalType": "bool",
          "name": "",
          "type": "bool"
        }
      ],
      "stateMutability": "view",
      "type": "function"
    }
  ],
  "bytecode": "0x6080604052600560045534801561001557600080fd5b50604051610c57380380610c5783398101604081905261003491610142565b60018055600280546001600160a01b038085166001600160a01b031992831617909255600380549284169290911691909117905561007360003361007a565b5050610175565b6100848282610088565b5050565b6000828152602081815260408083206001600160a01b038516845290915290205460ff16610084576000828152602081815260408083206001600160a01b03851684529091529020805460ff191660011790556100e23390565b6001600160a01b0316816001600160a01b0316837f2f8788117e7eff1d82e926ec794901d17c78024a50270940304540a733656f0d60405160405180910390a45050565b80516001600160a01b038116811461013d57600080fd5b919050565b6000806040838503121561015557600080fd5b61015e83610126565b915061016c60208401610126565b90509250929050565b610ad3806101846000396000f3fe608060405234801561001057600080fd5b50600436106100b45760003560e01c8063920a253e11610071578063920a253e14610160578063a217fddf14610169578063a8031a1d14610171578063d162137914610184578063d547741f146101af578063fcf07c6b146101c257600080fd5b806301ffc9a7146100b957806309653674146100e1578063248a9ca3146100f65780632f2ff15d1461012757806336568abe1461013a57806391d148541461014d575b600080fd5b6100cc6100c7366004610855565b6101d5565b60405190151581526020015b60405180910390f35b6100f46100ef36600461087f565b61020c565b005b61011961010436600461087f565b60009081526020819052604090206001015490565b6040519081526020016100d8565b6100f46101353660046108b4565b610269565b6100f46101483660046108b4565b610293565b6100cc61015b3660046108b4565b610311565b61011960045481565b610119600081565b6100f461017f3660046108e0565b61033a565b600254610197906001600160a01b031681565b6040516001600160a01b0390911681526020016100d8565b6100f46101bd3660046108b4565b6104d3565b600354610197906001600160a01b031681565b60006001600160e01b03198216637965db0b60e01b148061020657506301ffc9a760e01b6001600160e01b03198316145b92915050565b6000610217816104f8565b600a8211156102635760405162461bcd60e51b81526020600482015260136024820152720a0cae4c6cadce8c2ceca40e8dede40d0d2ced606b1b60448201526064015b60405180910390fd5b50600455565b600082815260208190526040902060010154610284816104f8565b61028e8383610505565b505050565b6001600160a01b03811633146103035760405162461bcd60e51b815260206004820152602f60248201527f416363657373436f6e74726f6c3a2063616e206f6e6c792072656e6f756e636560448201526e103937b632b9903337b91039b2b63360891b606482015260840161025a565b61030d8282610589565b5050565b6000918252602082815260408084206001600160a01b0393909316845291905290205460ff1690565b6103426105ee565b6002546001600160a01b0316331461039c5760405162461bcd60e51b815260206004820152601c60248201527f4f6e6c792051554120746f6b656e2063616e2063616c6c207468697300000000604482015260640161025a565b60006064600454836103ae9190610920565b6103b89190610937565b90508015610486576002546003546040516323b872dd60e01b81526001600160a01b0391821660048201528582166024820152604481018490529116906323b872dd906064016020604051808303816000875af115801561041d573d6000803e3d6000fd5b505050506040513d601f19601f820116820180604052508101906104419190610959565b6104865760405162461bcd60e51b815260206004820152601660248201527514995dd85c99081d1c985b9cd9995c8819985a5b195960521b604482015260640161025a565b826001600160a01b03167fe34918ff1c7084970068b53fd71ad6d8b04e9f15d3886cbf006443e6cdc52ea6826040516104c191815260200190565b60405180910390a25061030d60018055565b6000828152602081905260409020600101546104ee816104f8565b61028e8383610589565b6105028133610647565b50565b61050f8282610311565b61030d576000828152602081815260408083206001600160a01b03851684529091529020805460ff191660011790556105453390565b6001600160a01b0316816001600160a01b0316837f2f8788117e7eff1d82e926ec794901d17c78024a50270940304540a733656f0d60405160405180910390a45050565b6105938282610311565b1561030d576000828152602081815260408083206001600160a01b0385168085529252808320805460ff1916905551339285917ff6391f5c32d9c69d2a47ea670b442974b53935d1edc7fd64eb21e047a839171b9190a45050565b6002600154036106405760405162461bcd60e51b815260206004820152601f60248201527f5265656e7472616e637947756172643a207265656e7472616e742063616c6c00604482015260640161025a565b6002600155565b6106518282610311565b61030d5761065e816106a0565b6106698360206106b2565b60405160200161067a92919061099f565b60408051601f198184030181529082905262461bcd60e51b825261025a91600401610a14565b60606102066001600160a01b03831660145b606060006106c1836002610920565b6106cc906002610a47565b67ffffffffffffffff8111156106e4576106e4610a5a565b6040519080825280601f01601f19166020018201604052801561070e576020820181803683370190505b509050600360fc1b8160008151811061072957610729610a70565b60200101906001600160f81b031916908160001a905350600f60fb1b8160018151811061075857610758610a70565b60200101906001600160f81b031916908160001a905350600061077c846002610920565b610787906001610a47565b90505b60018111156107ff576f181899199a1a9b1b9c1cb0b131b232b360811b85600f16601081106107bb576107bb610a70565b1a60f81b8282815181106107d1576107d1610a70565b60200101906001600160f81b031916908160001a90535060049490941c936107f881610a86565b905061078a565b50831561084e5760405162461bcd60e51b815260206004820181905260248201527f537472696e67733a20686578206c656e67746820696e73756666696369656e74604482015260640161025a565b9392505050565b60006020828403121561086757600080fd5b81356001600160e01b03198116811461084e57600080fd5b60006020828403121561089157600080fd5b5035919050565b80356001600160a01b03811681146108af57600080fd5b919050565b600080604083850312156108c757600080fd5b823591506108d760208401610898565b90509250929050565b600080604083850312156108f357600080fd5b6108fc83610898565b946020939093013593505050565b634e487b7160e01b600052601160045260246000fd5b80820281158282048414176102065761020661090a565b60008261095457634e487b7160e01b600052601260045260246000fd5b500490565b60006020828403121561096b57600080fd5b8151801515811461084e57600080fd5b60005b8381101561099657818101518382015260200161097e565b50506000910152565b7f416363657373436f6e74726f6c3a206163636f756e74200000000000000000008152600083516109d781601785016020880161097b565b7001034b99036b4b9b9b4b733903937b6329607d1b6017918401918201528351610a0881602884016020880161097b565b01602801949350505050565b6020815260008251806020840152610a3381604085016020870161097b565b601f01601f19169190910160400192915050565b808201808211156102065761020661090a565b634e487b7160e01b600052604160045260246000fd5b634e487b7160e01b600052603260045260246000fd5b600081610a9557610a9561090a565b50600019019056fea2646970667358221220160f15d8ceeb910c4187f91f6b2254db1822ded4d38434fd3054f8a4e477681c64736f6c63430008140033",
  "linkReferences": {},
  "deployedLinkReferences": {}
}