{
  "_format": "hh-sol-artifact-1",
  "contractName": "Voting",
  "sourceName": "maskly/blockchain/contracts/governance/Voting.sol",
  "abi": [
    {
      "anonymous": false,
      "inputs": [
        {
          "indexed": true,
          "internalType": "address",
          "name": "previousOwner",
          "type": "address"
        },
        {
          "indexed": true,
          "internalType": "address",
          "name": "newOwner",
          "type": "address"
        }
      ],
      "name": "OwnershipTransferred",
      "type": "event"
    },
    {
      "anonymous": false,
      "inputs": [
        {
          "indexed": true,
          "internalType": "uint256",
          "name": "proposalId",
          "type": "uint256"
        },
        {
          "indexed": false,
          "internalType": "string",
          "name": "description",
          "type": "string"
        },
        {
          "indexed": false,
          "internalType": "uint256",
          "name": "startTime",
          "type": "uint256"
        },
        {
          "indexed": false,
          "internalType": "uint256",
          "name": "endTime",
          "type": "uint256"
        }
      ],
      "name": "ProposalCreated",
      "type": "event"
    },
    {
      "anonymous": false,
      "inputs": [
        {
          "indexed": true,
          "internalType": "uint256",
          "name": "proposalId",
          "type": "uint256"
        },
        {
          "indexed": true,
          "internalType": "address",
          "name": "voter",
          "type": "address"
        },
        {
          "indexed": false,
          "internalType": "bool",
          "name": "support",
          "type": "bool"
        }
      ],
      "name": "Voted",
      "type": "event"
    },
    {
      "inputs": [
        {
          "internalType": "string",
          "name": "description",
          "type": "string"
        },
        {
          "internalType": "uint256",
          "name": "duration",
          "type": "uint256"
        }
      ],
      "name": "createProposal",
      "outputs": [],
      "stateMutability": "nonpayable",
      "type": "function"
    },
    {
      "inputs": [
        {
          "internalType": "uint256",
          "name": "proposalId",
          "type": "uint256"
        }
      ],
      "name": "getProposal",
      "outputs": [
        {
          "components": [
            {
              "internalType": "uint256",
              "name": "id",
              "type": "uint256"
            },
            {
              "internalType": "string",
              "name": "description",
              "type": "string"
            },
            {
              "internalType": "uint256",
              "name": "startTime",
              "type": "uint256"
            },
            {
              "internalType": "uint256",
              "name": "endTime",
              "type": "uint256"
            },
            {
              "internalType": "bool",
              "name": "exists",
              "type": "bool"
            }
          ],
          "internalType": "struct Voting.Proposal",
          "name": "",
          "type": "tuple"
        }
      ],
      "stateMutability": "view",
      "type": "function"
    },
    {
      "inputs": [
        {
          "internalType": "uint256",
          "name": "proposalId",
          "type": "uint256"
        }
      ],
      "name": "getVotes",
      "outputs": [
        {
          "components": [
            {
              "internalType": "uint256",
              "name": "proposalId",
              "type": "uint256"
            },
            {
              "internalType": "address",
              "name": "voter",
              "type": "address"
            },
            {
              "internalType": "bool",
              "name": "support",
              "type": "bool"
            }
          ],
          "internalType": "struct Voting.Vote[]",
          "name": "",
          "type": "tuple[]"
        }
      ],
      "stateMutability": "view",
      "type": "function"
    },
    {
      "inputs": [],
      "name": "nextProposalId",
      "outputs": [
        {
          "internalType": "uint256",
          "name": "",
          "type": "uint256"
        }
      ],
      "stateMutability": "view",
      "type": "function"
    },
    {
      "inputs": [],
      "name": "owner",
      "outputs": [
        {
          "internalType": "address",
          "name": "",
          "type": "address"
        }
      ],
      "stateMutability": "view",
      "type": "function"
    },
    {
      "inputs": [
        {
          "internalType": "uint256",
          "name": "",
          "type": "uint256"
        }
      ],
      "name": "proposals",
      "outputs": [
        {
          "internalType": "uint256",
          "name": "id",
          "type": "uint256"
        },
        {
          "internalType": "string",
          "name": "description",
          "type": "string"
        },
        {
          "internalType": "uint256",
          "name": "startTime",
          "type": "uint256"
        },
        {
          "internalType": "uint256",
          "name": "endTime",
          "type": "uint256"
        },
        {
          "internalType": "bool",
          "name": "exists",
          "type": "bool"
        }
      ],
      "stateMutability": "view",
      "type": "function"
    },
    {
      "inputs": [],
      "name": "renounceOwnership",
      "outputs": [],
      "stateMutability": "nonpayable",
      "type": "function"
    },
    {
      "inputs": [
        {
          "internalType": "address",
          "name": "newOwner",
          "type": "address"
        }
      ],
      "name": "transferOwnership",
      "outputs": [],
      "stateMutability": "nonpayable",
      "type": "function"
    },
    {
      "inputs": [
        {
          "internalType": "uint256",
          "name": "proposalId",
          "type": "uint256"
        },
        {
          "internalType": "bool",
          "name": "support",
          "type": "bool"
        }
      ],
      "name": "vote",
      "outputs": [],
      "stateMutability": "nonpayable",
      "type": "function"
    },
    {
      "inputs": [
        {
          "internalType": "uint256",
          "name": "",
          "type": "uint256"
        },
        {
          "internalType": "uint256",
          "name": "",
          "type": "uint256"
        }
      ],
      "name": "votes",
      "outputs": [
        {
          "internalType": "uint256",
          "name": "proposalId",
          "type": "uint256"
        },
        {
          "internalType": "address",
          "name": "voter",
          "type": "address"
        },
        {
          "internalType": "bool",
          "name": "support",
          "type": "bool"
        }
      ],
      "stateMutability": "view",
      "type": "function"
    }
  ],
  "bytecode": "0x6080604052600160045534801561001557600080fd5b5061001f33610024565b610074565b600080546001600160a01b038381166001600160a01b0319831681178455604051919092169283917f8be0079c531659141344cd1fd0a4f28419497f9722a3daafe3b4186f6b6457e09190a35050565b610e3a806100836000396000f3fe608060405234801561001057600080fd5b506004361061009e5760003560e01c8063c6e36a3211610066578063c6e36a321461011f578063c7f758a814610157578063c9d27afe14610177578063f2fde38b1461018a578063ff9810991461019d57600080fd5b8063013cf08b146100a35780632ab09d14146100d057806335facf78146100e7578063715018a6146100fc5780638da5cb5b14610104575b600080fd5b6100b66100b13660046109b5565b6101bd565b6040516100c7959493929190610a14565b60405180910390f35b6100d960045481565b6040519081526020016100c7565b6100fa6100f5366004610a62565b610278565b005b6100fa610367565b6000546040516001600160a01b0390911681526020016100c7565b61013261012d366004610b17565b61037b565b604080519384526001600160a01b0390921660208401521515908201526060016100c7565b61016a6101653660046109b5565b6103cb565b6040516100c79190610b39565b6100fa610185366004610b8b565b61053c565b6100fa610198366004610bc0565b610770565b6101b06101ab3660046109b5565b6107e9565b6040516100c79190610bf0565b6001602081905260009182526040909120805491810180546101de90610c54565b80601f016020809104026020016040519081016040528092919081815260200182805461020a90610c54565b80156102575780601f1061022c57610100808354040283529160200191610257565b820191906000526020600020905b81548152906001019060200180831161023a57829003601f168201915b50505050600283015460038401546004909401549293909290915060ff1685565b610280610885565b600480546000918261029183610ca4565b9190505590506040518060a0016040528082815260200184815260200142815260200183426102c09190610cbd565b8152600160209182018190526000848152818352604090208351815591830151908201906102ee9082610d1f565b5060408201516002820155606082015160038201556080909101516004909101805460ff1916911515919091179055807f5d072faeaf3fe9518eca824577834e1efc3ff209025796dd8819b72706cd0bd5844261034b8682610cbd565b60405161035a93929190610ddf565b60405180910390a2505050565b61036f610885565b61037960006108df565b565b6002602052816000526040600020818154811061039757600080fd5b6000918252602090912060029091020180546001909101549092506001600160a01b0381169150600160a01b900460ff1683565b6103ff6040518060a00160405280600081526020016060815260200160008152602001600081526020016000151581525090565b60008281526001602052604090206004015460ff1661045f5760405162461bcd60e51b8152602060048201526017602482015276141c9bdc1bdcd85b08191bd95cc81b9bdd08195e1a5cdd604a1b60448201526064015b60405180910390fd5b600082815260016020818152604092839020835160a081019094528054845291820180549184019161049090610c54565b80601f01602080910402602001604051908101604052809291908181526020018280546104bc90610c54565b80156105095780601f106104de57610100808354040283529160200191610509565b820191906000526020600020905b8154815290600101906020018083116104ec57829003601f168201915b5050509183525050600282015460208201526003820154604082015260049091015460ff16151560609091015292915050565b600082815260016020526040902060040154829060ff166105995760405162461bcd60e51b8152602060048201526017602482015276141c9bdc1bdcd85b08191bd95cc81b9bdd08195e1a5cdd604a1b6044820152606401610456565b6000818152600160205260409020600201544210156105f35760405162461bcd60e51b8152602060048201526016602482015275159bdd1a5b99c81a185cc81b9bdd081cdd185c9d195960521b6044820152606401610456565b6000818152600160205260409020600301544211156106475760405162461bcd60e51b815260206004820152601060248201526f159bdd1a5b99c81a185cc8195b99195960821b6044820152606401610456565b336000818152600360205260409020610660908261092f565b156106a65760405162461bcd60e51b8152602060048201526016602482015275155cd95c881a185cc8185b1c9958591e481d9bdd195960521b6044820152606401610456565b60008481526002602081815260408084208151606081018352898152338185018181528a1515838601908152845460018181018755958a52878a20945198029093019687555195909201805491511515600160a01b026001600160a81b03199092166001600160a01b03969096169590951717909355828452600390915290912061073091610956565b506040518315158152339085907ff2913dbe661ee2acc4a046d8fbcdc792373bda34c41c6086484b5345e5785e5f9060200160405180910390a350505050565b610778610885565b6001600160a01b0381166107dd5760405162461bcd60e51b815260206004820152602660248201527f4f776e61626c653a206e6577206f776e657220697320746865207a65726f206160448201526564647265737360d01b6064820152608401610456565b6107e6816108df565b50565b606060026000838152602001908152602001600020805480602002602001604051908101604052809291908181526020016000905b8282101561087a5760008481526020908190206040805160608101825260028602909201805483526001908101546001600160a01b03811684860152600160a01b900460ff16151591830191909152908352909201910161081e565b505050509050919050565b6000546001600160a01b031633146103795760405162461bcd60e51b815260206004820181905260248201527f4f776e61626c653a2063616c6c6572206973206e6f7420746865206f776e65726044820152606401610456565b600080546001600160a01b038381166001600160a01b0319831681178455604051919092169283917f8be0079c531659141344cd1fd0a4f28419497f9722a3daafe3b4186f6b6457e09190a35050565b6001600160a01b038116600090815260018301602052604081205415155b90505b92915050565b600061094d836001600160a01b03841660008181526001830160205260408120546109ad57508154600181810184556000848152602080822090930184905584548482528286019093526040902091909155610950565b506000610950565b6000602082840312156109c757600080fd5b5035919050565b6000815180845260005b818110156109f4576020818501810151868301820152016109d8565b506000602082860101526020601f19601f83011685010191505092915050565b85815260a060208201526000610a2d60a08301876109ce565b6040830195909552506060810192909252151560809091015292915050565b634e487b7160e01b600052604160045260246000fd5b60008060408385031215610a7557600080fd5b823567ffffffffffffffff80821115610a8d57600080fd5b818501915085601f830112610aa157600080fd5b813581811115610ab357610ab3610a4c565b604051601f8201601f19908116603f01168101908382118183101715610adb57610adb610a4c565b81604052828152886020848701011115610af457600080fd5b826020860160208301376000602093820184015298969091013596505050505050565b60008060408385031215610b2a57600080fd5b50508035926020909101359150565b60208152815160208201526000602083015160a06040840152610b5f60c08401826109ce565b905060408401516060840152606084015160808401526080840151151560a08401528091505092915050565b60008060408385031215610b9e57600080fd5b8235915060208301358015158114610bb557600080fd5b809150509250929050565b600060208284031215610bd257600080fd5b81356001600160a01b0381168114610be957600080fd5b9392505050565b602080825282518282018190526000919060409081850190868401855b82811015610c4757815180518552868101516001600160a01b03168786015285015115158585015260609093019290850190600101610c0d565b5091979650505050505050565b600181811c90821680610c6857607f821691505b602082108103610c8857634e487b7160e01b600052602260045260246000fd5b50919050565b634e487b7160e01b600052601160045260246000fd5b600060018201610cb657610cb6610c8e565b5060010190565b8082018082111561095057610950610c8e565b601f821115610d1a57600081815260208120601f850160051c81016020861015610cf75750805b601f850160051c820191505b81811015610d1657828155600101610d03565b5050505b505050565b815167ffffffffffffffff811115610d3957610d39610a4c565b610d4d81610d478454610c54565b84610cd0565b602080601f831160018114610d825760008415610d6a5750858301515b600019600386901b1c1916600185901b178555610d16565b600085815260208120601f198616915b82811015610db157888601518255948401946001909101908401610d92565b5085821015610dcf5787850151600019600388901b60f8161c191681555b5050505050600190811b01905550565b606081526000610df260608301866109ce565b6020830194909452506040015291905056fea264697066735822122072ecc0524bbc094bb1ccf6688d45ac4a32018be3a6add3387ccc99c27b34d3b964736f6c63430008140033",
  "linkReferences": {},
  "deployedLinkReferences": {}
}