{
  "_format": "hh-sol-artifact-1",
  "contractName": "Voting",
  "sourceName": "maskly/blockchain/contracts/Voting.sol",
  "abi": [
    {
      "inputs": [],
      "stateMutability": "nonpayable",
      "type": "constructor"
    },
    {
      "anonymous": false,
      "inputs": [
        {
          "indexed": true,
          "internalType": "uint256",
          "name": "proposalId",
          "type": "uint256"
        },
        {
          "indexed": false,
          "internalType": "string",
          "name": "description",
          "type": "string"
        }
      ],
      "name": "ProposalCreated",
      "type": "event"
    },
    {
      "anonymous": false,
      "inputs": [
        {
          "indexed": true,
          "internalType": "bytes32",
          "name": "role",
          "type": "bytes32"
        },
        {
          "indexed": true,
          "internalType": "bytes32",
          "name": "previousAdminRole",
          "type": "bytes32"
        },
        {
          "indexed": true,
          "internalType": "bytes32",
          "name": "newAdminRole",
          "type": "bytes32"
        }
      ],
      "name": "RoleAdminChanged",
      "type": "event"
    },
    {
      "anonymous": false,
      "inputs": [
        {
          "indexed": true,
          "internalType": "bytes32",
          "name": "role",
          "type": "bytes32"
        },
        {
          "indexed": true,
          "internalType": "address",
          "name": "account",
          "type": "address"
        },
        {
          "indexed": true,
          "internalType": "address",
          "name": "sender",
          "type": "address"
        }
      ],
      "name": "RoleGranted",
      "type": "event"
    },
    {
      "anonymous": false,
      "inputs": [
        {
          "indexed": true,
          "internalType": "bytes32",
          "name": "role",
          "type": "bytes32"
        },
        {
          "indexed": true,
          "internalType": "address",
          "name": "account",
          "type": "address"
        },
        {
          "indexed": true,
          "internalType": "address",
          "name": "sender",
          "type": "address"
        }
      ],
      "name": "RoleRevoked",
      "type": "event"
    },
    {
      "anonymous": false,
      "inputs": [
        {
          "indexed": true,
          "internalType": "uint256",
          "name": "proposalId",
          "type": "uint256"
        },
        {
          "indexed": false,
          "internalType": "address",
          "name": "voter",
          "type": "address"
        }
      ],
      "name": "Voted",
      "type": "event"
    },
    {
      "inputs": [],
      "name": "DEFAULT_ADMIN_ROLE",
      "outputs": [
        {
          "internalType": "bytes32",
          "name": "",
          "type": "bytes32"
        }
      ],
      "stateMutability": "view",
      "type": "function"
    },
    {
      "inputs": [],
      "name": "VOTER_ROLE",
      "outputs": [
        {
          "internalType": "bytes32",
          "name": "",
          "type": "bytes32"
        }
      ],
      "stateMutability": "view",
      "type": "function"
    },
    {
      "inputs": [
        {
          "internalType": "string",
          "name": "description",
          "type": "string"
        },
        {
          "internalType": "uint256",
          "name": "votingPeriod",
          "type": "uint256"
        }
      ],
      "name": "createProposal",
      "outputs": [],
      "stateMutability": "nonpayable",
      "type": "function"
    },
    {
      "inputs": [
        {
          "internalType": "uint256",
          "name": "proposalId",
          "type": "uint256"
        }
      ],
      "name": "getProposalResult",
      "outputs": [
        {
          "internalType": "uint256",
          "name": "",
          "type": "uint256"
        }
      ],
      "stateMutability": "view",
      "type": "function"
    },
    {
      "inputs": [
        {
          "internalType": "bytes32",
          "name": "role",
          "type": "bytes32"
        }
      ],
      "name": "getRoleAdmin",
      "outputs": [
        {
          "internalType": "bytes32",
          "name": "",
          "type": "bytes32"
        }
      ],
      "stateMutability": "view",
      "type": "function"
    },
    {
      "inputs": [
        {
          "internalType": "bytes32",
          "name": "role",
          "type": "bytes32"
        },
        {
          "internalType": "address",
          "name": "account",
          "type": "address"
        }
      ],
      "name": "grantRole",
      "outputs": [],
      "stateMutability": "nonpayable",
      "type": "function"
    },
    {
      "inputs": [
        {
          "internalType": "bytes32",
          "name": "role",
          "type": "bytes32"
        },
        {
          "internalType": "address",
          "name": "account",
          "type": "address"
        }
      ],
      "name": "hasRole",
      "outputs": [
        {
          "internalType": "bool",
          "name": "",
          "type": "bool"
        }
      ],
      "stateMutability": "view",
      "type": "function"
    },
    {
      "inputs": [
        {
          "internalType": "address",
          "name": "",
          "type": "address"
        }
      ],
      "name": "hasVoted",
      "outputs": [
        {
          "internalType": "bool",
          "name": "",
          "type": "bool"
        }
      ],
      "stateMutability": "view",
      "type": "function"
    },
    {
      "inputs": [],
      "name": "pause",
      "outputs": [],
      "stateMutability": "nonpayable",
      "type": "function"
    },
    {
      "inputs": [],
      "name": "paused",
      "outputs": [
        {
          "internalType": "bool",
          "name": "",
          "type": "bool"
        }
      ],
      "stateMutability": "view",
      "type": "function"
    },
    {
      "inputs": [],
      "name": "proposalCount",
      "outputs": [
        {
          "internalType": "uint256",
          "name": "",
          "type": "uint256"
        }
      ],
      "stateMutability": "view",
      "type": "function"
    },
    {
      "inputs": [
        {
          "internalType": "uint256",
          "name": "",
          "type": "uint256"
        }
      ],
      "name": "proposals",
      "outputs": [
        {
          "internalType": "uint256",
          "name": "id",
          "type": "uint256"
        },
        {
          "internalType": "string",
          "name": "description",
          "type": "string"
        },
        {
          "internalType": "uint256",
          "name": "voteCount",
          "type": "uint256"
        },
        {
          "internalType": "uint256",
          "name": "endTime",
          "type": "uint256"
        }
      ],
      "stateMutability": "view",
      "type": "function"
    },
    {
      "inputs": [
        {
          "internalType": "bytes32",
          "name": "role",
          "type": "bytes32"
        },
        {
          "internalType": "address",
          "name": "account",
          "type": "address"
        }
      ],
      "name": "renounceRole",
      "outputs": [],
      "stateMutability": "nonpayable",
      "type": "function"
    },
    {
      "inputs": [
        {
          "internalType": "bytes32",
          "name": "role",
          "type": "bytes32"
        },
        {
          "internalType": "address",
          "name": "account",
          "type": "address"
        }
      ],
      "name": "revokeRole",
      "outputs": [],
      "stateMutability": "nonpayable",
      "type": "function"
    },
    {
      "inputs": [
        {
          "internalType": "bytes4",
          "name": "interfaceId",
          "type": "bytes4"
        }
      ],
      "name": "supportsInterface",
      "outputs": [
        {
          "internalType": "bool",
          "name": "",
          "type": "bool"
        }
      ],
      "stateMutability": "view",
      "type": "function"
    },
    {
      "inputs": [],
      "name": "unpause",
      "outputs": [],
      "stateMutability": "nonpayable",
      "type": "function"
    },
    {
      "inputs": [
        {
          "internalType": "uint256",
          "name": "proposalId",
          "type": "uint256"
        }
      ],
      "name": "vote",
      "outputs": [],
      "stateMutability": "nonpayable",
      "type": "function"
    }
  ],
  "bytecode": "0x608060405234801561001057600080fd5b506001805561002060003361004f565b61004a7f72c3eec1760bf69946625c2d4fb8e44e2c806345041960b434674fb9ab3976cf3361004f565b6100fb565b610059828261005d565b5050565b6000828152602081815260408083206001600160a01b038516845290915290205460ff16610059576000828152602081815260408083206001600160a01b03851684529091529020805460ff191660011790556100b73390565b6001600160a01b0316816001600160a01b0316837f2f8788117e7eff1d82e926ec794901d17c78024a50270940304540a733656f0d60405160405180910390a45050565b6110008061010a6000396000f3fe608060405234801561001057600080fd5b506004361061010b5760003560e01c80633f4ba83a116100a2578063a217fddf11610071578063a217fddf14610231578063a94015c814610239578063d547741f14610260578063da35c66414610273578063f91f88f71461027c57600080fd5b80633f4ba83a146102015780635c975abb146102095780638456cb591461021657806391d148541461021e57600080fd5b8063248a9ca3116100de578063248a9ca3146101975780632f2ff15d146101c857806335facf78146101db57806336568abe146101ee57600080fd5b80630121b93f14610110578063013cf08b1461012557806301ffc9a71461015157806309eef43e14610174575b600080fd5b61012361011e366004610b87565b61028f565b005b610138610133366004610b87565b610485565b6040516101489493929190610bf0565b60405180910390f35b61016461015f366004610c1c565b610536565b6040519015158152602001610148565b610164610182366004610c62565b60056020526000908152604090205460ff1681565b6101ba6101a5366004610b87565b60009081526020819052604090206001015490565b604051908152602001610148565b6101236101d6366004610c7d565b61056d565b6101236101e9366004610cbf565b610597565b6101236101fc366004610c7d565b6106c3565b610123610741565b6002546101649060ff1681565b610123610759565b61016461022c366004610c7d565b610774565b6101ba600081565b6101ba7f72c3eec1760bf69946625c2d4fb8e44e2c806345041960b434674fb9ab3976cf81565b61012361026e366004610c7d565b61079d565b6101ba60035481565b6101ba61028a366004610b87565b6107c2565b61029761082d565b60025460ff16156102e45760405162461bcd60e51b815260206004820152601260248201527110dbdb9d1c9858dd081a5cc81c185d5cd95960721b60448201526064015b60405180910390fd5b7f72c3eec1760bf69946625c2d4fb8e44e2c806345041960b434674fb9ab3976cf61030e81610886565b3360009081526005602052604090205460ff161561035e5760405162461bcd60e51b815260206004820152600d60248201526c105b1c9958591e481d9bdd1959609a1b60448201526064016102db565b60008211801561037057506003548211155b6103b25760405162461bcd60e51b8152602060048201526013602482015272125b9d985b1a59081c1c9bdc1bdcd85b081251606a1b60448201526064016102db565b60008281526004602052604090206003015442106104085760405162461bcd60e51b8152602060048201526013602482015272159bdd1a5b99c81c195c9a5bd908195b991959606a1b60448201526064016102db565b336000908152600560209081526040808320805460ff191660011790558483526004909152812060020180549161043e83610d8a565b909155505060405133815282907f030b0f8dcd86a031eddb071f91882edeac8173663ba775713b677b42b51be44b9060200160405180910390a25061048260018055565b50565b600460205260009081526040902080546001820180549192916104a790610da3565b80601f01602080910402602001604051908101604052809291908181526020018280546104d390610da3565b80156105205780601f106104f557610100808354040283529160200191610520565b820191906000526020600020905b81548152906001019060200180831161050357829003601f168201915b5050505050908060020154908060030154905084565b60006001600160e01b03198216637965db0b60e01b148061056757506301ffc9a760e01b6001600160e01b03198316145b92915050565b60008281526020819052604090206001015461058881610886565b6105928383610890565b505050565b60006105a281610886565b600082116105fe5760405162461bcd60e51b8152602060048201526024808201527f566f74696e6720706572696f64206d75737420626520677265617465722074686044820152630616e20360e41b60648201526084016102db565b6003805490600061060e83610d8a565b91905055506040518060800160405280600354815260200184815260200160008152602001834261063f9190610ddd565b905260035460009081526004602090815260409091208251815590820151600182019061066c9082610e3e565b5060408201518160020155606082015181600301559050506003547f9c770c289ab5bf7e57cb1d23c8ceae993aea46eb64847072fd3d78ca60d3e432846040516106b69190610efe565b60405180910390a2505050565b6001600160a01b03811633146107335760405162461bcd60e51b815260206004820152602f60248201527f416363657373436f6e74726f6c3a2063616e206f6e6c792072656e6f756e636560448201526e103937b632b9903337b91039b2b63360891b60648201526084016102db565b61073d8282610914565b5050565b600061074c81610886565b506002805460ff19169055565b600061076481610886565b506002805460ff19166001179055565b6000918252602082815260408084206001600160a01b0393909316845291905290205460ff1690565b6000828152602081905260409020600101546107b881610886565b6105928383610914565b600080821180156107d557506003548211155b6108175760405162461bcd60e51b8152602060048201526013602482015272125b9d985b1a59081c1c9bdc1bdcd85b081251606a1b60448201526064016102db565b5060009081526004602052604090206002015490565b60026001540361087f5760405162461bcd60e51b815260206004820152601f60248201527f5265656e7472616e637947756172643a207265656e7472616e742063616c6c0060448201526064016102db565b6002600155565b6104828133610979565b61089a8282610774565b61073d576000828152602081815260408083206001600160a01b03851684529091529020805460ff191660011790556108d03390565b6001600160a01b0316816001600160a01b0316837f2f8788117e7eff1d82e926ec794901d17c78024a50270940304540a733656f0d60405160405180910390a45050565b61091e8282610774565b1561073d576000828152602081815260408083206001600160a01b0385168085529252808320805460ff1916905551339285917ff6391f5c32d9c69d2a47ea670b442974b53935d1edc7fd64eb21e047a839171b9190a45050565b6109838282610774565b61073d57610990816109d2565b61099b8360206109e4565b6040516020016109ac929190610f11565b60408051601f198184030181529082905262461bcd60e51b82526102db91600401610efe565b60606105676001600160a01b03831660145b606060006109f3836002610f86565b6109fe906002610ddd565b67ffffffffffffffff811115610a1657610a16610ca9565b6040519080825280601f01601f191660200182016040528015610a40576020820181803683370190505b509050600360fc1b81600081518110610a5b57610a5b610f9d565b60200101906001600160f81b031916908160001a905350600f60fb1b81600181518110610a8a57610a8a610f9d565b60200101906001600160f81b031916908160001a9053506000610aae846002610f86565b610ab9906001610ddd565b90505b6001811115610b31576f181899199a1a9b1b9c1cb0b131b232b360811b85600f1660108110610aed57610aed610f9d565b1a60f81b828281518110610b0357610b03610f9d565b60200101906001600160f81b031916908160001a90535060049490941c93610b2a81610fb3565b9050610abc565b508315610b805760405162461bcd60e51b815260206004820181905260248201527f537472696e67733a20686578206c656e67746820696e73756666696369656e7460448201526064016102db565b9392505050565b600060208284031215610b9957600080fd5b5035919050565b60005b83811015610bbb578181015183820152602001610ba3565b50506000910152565b60008151808452610bdc816020860160208601610ba0565b601f01601f19169290920160200192915050565b848152608060208201526000610c096080830186610bc4565b6040830194909452506060015292915050565b600060208284031215610c2e57600080fd5b81356001600160e01b031981168114610b8057600080fd5b80356001600160a01b0381168114610c5d57600080fd5b919050565b600060208284031215610c7457600080fd5b610b8082610c46565b60008060408385031215610c9057600080fd5b82359150610ca060208401610c46565b90509250929050565b634e487b7160e01b600052604160045260246000fd5b60008060408385031215610cd257600080fd5b823567ffffffffffffffff80821115610cea57600080fd5b818501915085601f830112610cfe57600080fd5b813581811115610d1057610d10610ca9565b604051601f8201601f19908116603f01168101908382118183101715610d3857610d38610ca9565b81604052828152886020848701011115610d5157600080fd5b826020860160208301376000602093820184015298969091013596505050505050565b634e487b7160e01b600052601160045260246000fd5b600060018201610d9c57610d9c610d74565b5060010190565b600181811c90821680610db757607f821691505b602082108103610dd757634e487b7160e01b600052602260045260246000fd5b50919050565b8082018082111561056757610567610d74565b601f82111561059257600081815260208120601f850160051c81016020861015610e175750805b601f850160051c820191505b81811015610e3657828155600101610e23565b505050505050565b815167ffffffffffffffff811115610e5857610e58610ca9565b610e6c81610e668454610da3565b84610df0565b602080601f831160018114610ea15760008415610e895750858301515b600019600386901b1c1916600185901b178555610e36565b600085815260208120601f198616915b82811015610ed057888601518255948401946001909101908401610eb1565b5085821015610eee5787850151600019600388901b60f8161c191681555b5050505050600190811b01905550565b602081526000610b806020830184610bc4565b7f416363657373436f6e74726f6c3a206163636f756e7420000000000000000000815260008351610f49816017850160208801610ba0565b7001034b99036b4b9b9b4b733903937b6329607d1b6017918401918201528351610f7a816028840160208801610ba0565b01602801949350505050565b808202811582820484141761056757610567610d74565b634e487b7160e01b600052603260045260246000fd5b600081610fc257610fc2610d74565b50600019019056fea26469706673582212209de1a4d9198bd55f4a13317cac030deb998a12d89ee35c823a8cfb9542be7ded64736f6c63430008140033",
  "linkReferences": {},
  "deployedLinkReferences": {}
}