{
  "_format": "hh-sol-artifact-1",
  "contractName": "Oracle",
  "sourceName": "maskly/blockchain/contracts/utils/Oracle.sol",
  "abi": [
    {
      "anonymous": false,
      "inputs": [
        {
          "indexed": false,
          "internalType": "string",
          "name": "key",
          "type": "string"
        },
        {
          "indexed": false,
          "internalType": "uint256",
          "name": "value",
          "type": "uint256"
        },
        {
          "indexed": false,
          "internalType": "uint256",
          "name": "timestamp",
          "type": "uint256"
        }
      ],
      "name": "DataUpdated",
      "type": "event"
    },
    {
      "anonymous": false,
      "inputs": [
        {
          "indexed": true,
          "internalType": "address",
          "name": "previousOwner",
          "type": "address"
        },
        {
          "indexed": true,
          "internalType": "address",
          "name": "newOwner",
          "type": "address"
        }
      ],
      "name": "OwnershipTransferred",
      "type": "event"
    },
    {
      "inputs": [
        {
          "internalType": "string",
          "name": "",
          "type": "string"
        }
      ],
      "name": "dataPoints",
      "outputs": [
        {
          "internalType": "uint256",
          "name": "timestamp",
          "type": "uint256"
        },
        {
          "internalType": "uint256",
          "name": "value",
          "type": "uint256"
        }
      ],
      "stateMutability": "view",
      "type": "function"
    },
    {
      "inputs": [
        {
          "internalType": "string",
          "name": "key",
          "type": "string"
        }
      ],
      "name": "getData",
      "outputs": [
        {
          "internalType": "uint256",
          "name": "",
          "type": "uint256"
        },
        {
          "internalType": "uint256",
          "name": "",
          "type": "uint256"
        }
      ],
      "stateMutability": "view",
      "type": "function"
    },
    {
      "inputs": [],
      "name": "owner",
      "outputs": [
        {
          "internalType": "address",
          "name": "",
          "type": "address"
        }
      ],
      "stateMutability": "view",
      "type": "function"
    },
    {
      "inputs": [],
      "name": "renounceOwnership",
      "outputs": [],
      "stateMutability": "nonpayable",
      "type": "function"
    },
    {
      "inputs": [
        {
          "internalType": "address",
          "name": "newOwner",
          "type": "address"
        }
      ],
      "name": "transferOwnership",
      "outputs": [],
      "stateMutability": "nonpayable",
      "type": "function"
    },
    {
      "inputs": [
        {
          "internalType": "string",
          "name": "key",
          "type": "string"
        },
        {
          "internalType": "uint256",
          "name": "value",
          "type": "uint256"
        }
      ],
      "name": "updateData",
      "outputs": [],
      "stateMutability": "nonpayable",
      "type": "function"
    }
  ],
  "bytecode": "0x608060405234801561001057600080fd5b5061001a3361001f565b61006f565b600080546001600160a01b038381166001600160a01b0319831681178455604051919092169283917f8be0079c531659141344cd1fd0a4f28419497f9722a3daafe3b4186f6b6457e09190a35050565b61052e8061007e6000396000f3fe608060405234801561001057600080fd5b50600436106100625760003560e01c80636e37f0ce14610067578063715018a61461007c5780638da5cb5b14610084578063ae55c888146100a4578063e12a0b50146100cc578063f2fde38b14610100575b600080fd5b61007a6100753660046103c4565b610113565b005b61007a61019e565b6000546040516001600160a01b0390911681526020015b60405180910390f35b6100b76100b2366004610409565b6101b2565b6040805192835260208301919091520161009b565b6100b76100da366004610409565b805160208183018101805160018083529383019290940191909120929052815491015482565b61007a61010e366004610446565b6101f9565b61011b610277565b604051806040016040528042815260200182815250600183604051610140919061049a565b9081526040519081900360209081018220835181559201516001909201919091557f2a1a977b39a69e21165455464ffdff25664518a24f902b0c7b00c542a22a3f9c90610192908490849042906104b6565b60405180910390a15050565b6101a6610277565b6101b060006102d1565b565b60008060006001846040516101c7919061049a565b908152604080516020928190038301812081830190925281548082526001909201549201829052909590945092505050565b610201610277565b6001600160a01b03811661026b5760405162461bcd60e51b815260206004820152602660248201527f4f776e61626c653a206e6577206f776e657220697320746865207a65726f206160448201526564647265737360d01b60648201526084015b60405180910390fd5b610274816102d1565b50565b6000546001600160a01b031633146101b05760405162461bcd60e51b815260206004820181905260248201527f4f776e61626c653a2063616c6c6572206973206e6f7420746865206f776e65726044820152606401610262565b600080546001600160a01b038381166001600160a01b0319831681178455604051919092169283917f8be0079c531659141344cd1fd0a4f28419497f9722a3daafe3b4186f6b6457e09190a35050565b634e487b7160e01b600052604160045260246000fd5b600082601f83011261034857600080fd5b813567ffffffffffffffff8082111561036357610363610321565b604051601f8301601f19908116603f0116810190828211818310171561038b5761038b610321565b816040528381528660208588010111156103a457600080fd5b836020870160208301376000602085830101528094505050505092915050565b600080604083850312156103d757600080fd5b823567ffffffffffffffff8111156103ee57600080fd5b6103fa85828601610337565b95602094909401359450505050565b60006020828403121561041b57600080fd5b813567ffffffffffffffff81111561043257600080fd5b61043e84828501610337565b949350505050565b60006020828403121561045857600080fd5b81356001600160a01b038116811461046f57600080fd5b9392505050565b60005b83811015610491578181015183820152602001610479565b50506000910152565b600082516104ac818460208701610476565b9190910192915050565b60608152600084518060608401526104d5816080850160208901610476565b60208301949094525060408101919091526080601f909201601f1916010191905056fea264697066735822122070b8497f1115b52c674f590a83b4b69d67c58c1981876a3e8499f8b6bdda3f7364736f6c63430008140033",
  "linkReferences": {},
  "deployedLinkReferences": {}
}