{
  "_format": "hh-sol-artifact-1",
  "contractName": "LockContract",
  "sourceName": "maskly/blockchain/contracts/bridgeCore/protocols/Lock-Mint/Binance/LockContract.sol",
  "abi": [
    {
      "inputs": [
        {
          "internalType": "address",
          "name": "_token",
          "type": "address"
        }
      ],
      "stateMutability": "nonpayable",
      "type": "constructor"
    },
    {
      "anonymous": false,
      "inputs": [
        {
          "indexed": true,
          "internalType": "bytes32",
          "name": "role",
          "type": "bytes32"
        },
        {
          "indexed": true,
          "internalType": "bytes32",
          "name": "previousAdminRole",
          "type": "bytes32"
        },
        {
          "indexed": true,
          "internalType": "bytes32",
          "name": "newAdminRole",
          "type": "bytes32"
        }
      ],
      "name": "RoleAdminChanged",
      "type": "event"
    },
    {
      "anonymous": false,
      "inputs": [
        {
          "indexed": true,
          "internalType": "bytes32",
          "name": "role",
          "type": "bytes32"
        },
        {
          "indexed": true,
          "internalType": "address",
          "name": "account",
          "type": "address"
        },
        {
          "indexed": true,
          "internalType": "address",
          "name": "sender",
          "type": "address"
        }
      ],
      "name": "RoleGranted",
      "type": "event"
    },
    {
      "anonymous": false,
      "inputs": [
        {
          "indexed": true,
          "internalType": "bytes32",
          "name": "role",
          "type": "bytes32"
        },
        {
          "indexed": true,
          "internalType": "address",
          "name": "account",
          "type": "address"
        },
        {
          "indexed": true,
          "internalType": "address",
          "name": "sender",
          "type": "address"
        }
      ],
      "name": "RoleRevoked",
      "type": "event"
    },
    {
      "anonymous": false,
      "inputs": [
        {
          "indexed": true,
          "internalType": "address",
          "name": "user",
          "type": "address"
        },
        {
          "indexed": false,
          "internalType": "uint256",
          "name": "amount",
          "type": "uint256"
        }
      ],
      "name": "TokensLocked",
      "type": "event"
    },
    {
      "anonymous": false,
      "inputs": [
        {
          "indexed": true,
          "internalType": "address",
          "name": "user",
          "type": "address"
        },
        {
          "indexed": false,
          "internalType": "uint256",
          "name": "amount",
          "type": "uint256"
        }
      ],
      "name": "TokensUnlocked",
      "type": "event"
    },
    {
      "inputs": [],
      "name": "BRIDGE_ROLE",
      "outputs": [
        {
          "internalType": "bytes32",
          "name": "",
          "type": "bytes32"
        }
      ],
      "stateMutability": "view",
      "type": "function"
    },
    {
      "inputs": [],
      "name": "DEFAULT_ADMIN_ROLE",
      "outputs": [
        {
          "internalType": "bytes32",
          "name": "",
          "type": "bytes32"
        }
      ],
      "stateMutability": "view",
      "type": "function"
    },
    {
      "inputs": [
        {
          "internalType": "address",
          "name": "user",
          "type": "address"
        }
      ],
      "name": "getLockedBalance",
      "outputs": [
        {
          "internalType": "uint256",
          "name": "",
          "type": "uint256"
        }
      ],
      "stateMutability": "view",
      "type": "function"
    },
    {
      "inputs": [
        {
          "internalType": "bytes32",
          "name": "role",
          "type": "bytes32"
        }
      ],
      "name": "getRoleAdmin",
      "outputs": [
        {
          "internalType": "bytes32",
          "name": "",
          "type": "bytes32"
        }
      ],
      "stateMutability": "view",
      "type": "function"
    },
    {
      "inputs": [
        {
          "internalType": "address",
          "name": "user",
          "type": "address"
        }
      ],
      "name": "getUnlockTime",
      "outputs": [
        {
          "internalType": "uint256",
          "name": "",
          "type": "uint256"
        }
      ],
      "stateMutability": "view",
      "type": "function"
    },
    {
      "inputs": [
        {
          "internalType": "bytes32",
          "name": "role",
          "type": "bytes32"
        },
        {
          "internalType": "address",
          "name": "account",
          "type": "address"
        }
      ],
      "name": "grantRole",
      "outputs": [],
      "stateMutability": "nonpayable",
      "type": "function"
    },
    {
      "inputs": [
        {
          "internalType": "bytes32",
          "name": "role",
          "type": "bytes32"
        },
        {
          "internalType": "address",
          "name": "account",
          "type": "address"
        }
      ],
      "name": "hasRole",
      "outputs": [
        {
          "internalType": "bool",
          "name": "",
          "type": "bool"
        }
      ],
      "stateMutability": "view",
      "type": "function"
    },
    {
      "inputs": [
        {
          "internalType": "uint256",
          "name": "amount",
          "type": "uint256"
        }
      ],
      "name": "lockTokens",
      "outputs": [],
      "stateMutability": "nonpayable",
      "type": "function"
    },
    {
      "inputs": [
        {
          "internalType": "address",
          "name": "",
          "type": "address"
        }
      ],
      "name": "lockedBalances",
      "outputs": [
        {
          "internalType": "uint256",
          "name": "",
          "type": "uint256"
        }
      ],
      "stateMutability": "view",
      "type": "function"
    },
    {
      "inputs": [
        {
          "internalType": "bytes32",
          "name": "role",
          "type": "bytes32"
        },
        {
          "internalType": "address",
          "name": "account",
          "type": "address"
        }
      ],
      "name": "renounceRole",
      "outputs": [],
      "stateMutability": "nonpayable",
      "type": "function"
    },
    {
      "inputs": [
        {
          "internalType": "bytes32",
          "name": "role",
          "type": "bytes32"
        },
        {
          "internalType": "address",
          "name": "account",
          "type": "address"
        }
      ],
      "name": "revokeRole",
      "outputs": [],
      "stateMutability": "nonpayable",
      "type": "function"
    },
    {
      "inputs": [
        {
          "internalType": "bytes4",
          "name": "interfaceId",
          "type": "bytes4"
        }
      ],
      "name": "supportsInterface",
      "outputs": [
        {
          "internalType": "bool",
          "name": "",
          "type": "bool"
        }
      ],
      "stateMutability": "view",
      "type": "function"
    },
    {
      "inputs": [],
      "name": "token",
      "outputs": [
        {
          "internalType": "contract IERC20",
          "name": "",
          "type": "address"
        }
      ],
      "stateMutability": "view",
      "type": "function"
    },
    {
      "inputs": [],
      "name": "totalLocked",
      "outputs": [
        {
          "internalType": "uint256",
          "name": "",
          "type": "uint256"
        }
      ],
      "stateMutability": "view",
      "type": "function"
    },
    {
      "inputs": [
        {
          "internalType": "address",
          "name": "",
          "type": "address"
        }
      ],
      "name": "unlockTimes",
      "outputs": [
        {
          "internalType": "uint256",
          "name": "",
          "type": "uint256"
        }
      ],
      "stateMutability": "view",
      "type": "function"
    },
    {
      "inputs": [
        {
          "internalType": "address",
          "name": "user",
          "type": "address"
        },
        {
          "internalType": "uint256",
          "name": "amount",
          "type": "uint256"
        }
      ],
      "name": "unlockTokens",
      "outputs": [],
      "stateMutability": "nonpayable",
      "type": "function"
    }
  ],
  "bytecode": "0x608060405234801561001057600080fd5b506040516110a33803806110a383398101604081905261002f91610120565b60016000908155600280546001600160a01b0319166001600160a01b03841617905561005b903361008b565b6100857f52ba824bfabc2bcfcdf7f0edbb486ebb05e1836c90e78047efeb949990f72e5f3361008b565b50610150565b6100958282610099565b5050565b60008281526001602090815260408083206001600160a01b038516845290915290205460ff166100955760008281526001602081815260408084206001600160a01b0386168086529252808420805460ff19169093179092559051339285917f2f8788117e7eff1d82e926ec794901d17c78024a50270940304540a733656f0d9190a45050565b60006020828403121561013257600080fd5b81516001600160a01b038116811461014957600080fd5b9392505050565b610f448061015f6000396000f3fe608060405234801561001057600080fd5b50600436106101005760003560e01c806391d1485411610097578063c408689311610066578063c408689314610238578063d547741f14610261578063dbed1e8814610274578063fc0c546a1461029d57600080fd5b806391d14854146101e35780639d564d9a146101f6578063a217fddf14610209578063b5bfddea1461021157600080fd5b806336568abe116100d357806336568abe1461019457806356891412146101a75780636bf807fc146101b05780636e27d889146101d057600080fd5b806301ffc9a7146101055780630483a7f61461012d578063248a9ca31461015b5780632f2ff15d1461017f575b600080fd5b610118610113366004610c10565b6102c8565b60405190151581526020015b60405180910390f35b61014d61013b366004610c56565b60046020526000908152604090205481565b604051908152602001610124565b61014d610169366004610c71565b6000908152600160208190526040909120015490565b61019261018d366004610c8a565b6102ff565b005b6101926101a2366004610c8a565b61032a565b61014d60035481565b61014d6101be366004610c56565b60056020526000908152604090205481565b6101926101de366004610c71565b6103ad565b6101186101f1366004610c8a565b610697565b610192610204366004610cb6565b6106c2565b61014d600081565b61014d7f52ba824bfabc2bcfcdf7f0edbb486ebb05e1836c90e78047efeb949990f72e5f81565b61014d610246366004610c56565b6001600160a01b031660009081526004602052604090205490565b61019261026f366004610c8a565b6108a7565b61014d610282366004610c56565b6001600160a01b031660009081526005602052604090205490565b6002546102b0906001600160a01b031681565b6040516001600160a01b039091168152602001610124565b60006001600160e01b03198216637965db0b60e01b14806102f957506301ffc9a760e01b6001600160e01b03198316145b92915050565b6000828152600160208190526040909120015461031b816108cd565b61032583836108d7565b505050565b6001600160a01b038116331461039f5760405162461bcd60e51b815260206004820152602f60248201527f416363657373436f6e74726f6c3a2063616e206f6e6c792072656e6f756e636560448201526e103937b632b9903337b91039b2b63360891b60648201526084015b60405180910390fd5b6103a98282610942565b5050565b6103b56109a9565b600081116103d55760405162461bcd60e51b815260040161039690610ce0565b6002546040516370a0823160e01b815233600482015282916001600160a01b0316906370a0823190602401602060405180830381865afa15801561041d573d6000803e3d6000fd5b505050506040513d601f19601f820116820180604052508101906104419190610d2e565b10156104a05760405162461bcd60e51b815260206004820152602860248201527f4c6f636b436f6e74726163743a20496e73756666696369656e7420746f6b656e6044820152672062616c616e636560c01b6064820152608401610396565b600254604051636eb1769f60e11b815233600482015230602482015282916001600160a01b03169063dd62ed3e90604401602060405180830381865afa1580156104ee573d6000803e3d6000fd5b505050506040513d601f19601f820116820180604052508101906105129190610d2e565b101561057c5760405162461bcd60e51b815260206004820152603360248201527f4c6f636b436f6e74726163743a20436f6e7472616374206e6f7420617070726f60448201527276656420746f207370656e6420746f6b656e7360681b6064820152608401610396565b6002546040516323b872dd60e01b8152336004820152306024820152604481018390526000916001600160a01b0316906323b872dd906064016020604051808303816000875af11580156105d4573d6000803e3d6000fd5b505050506040513d601f19601f820116820180604052508101906105f89190610d47565b9050806106175760405162461bcd60e51b815260040161039690610d69565b3360009081526004602052604081208054849290610636908490610dc2565b92505081905550816003600082825461064f9190610dc2565b909155505060405182815233907fac87f20a77d28ee8bbb58ec87ea8fa968b3393efae1a368fd50b767c2847391c9060200160405180910390a2506106946001600055565b50565b60009182526001602090815260408084206001600160a01b0393909316845291905290205460ff1690565b7f52ba824bfabc2bcfcdf7f0edbb486ebb05e1836c90e78047efeb949990f72e5f6106ec816108cd565b6000821161070c5760405162461bcd60e51b815260040161039690610ce0565b6001600160a01b0383166000908152600460205260409020548211156107865760405162461bcd60e51b815260206004820152602960248201527f4c6f636b436f6e74726163743a20496e73756666696369656e74206c6f636b65604482015268642062616c616e636560b81b6064820152608401610396565b6001600160a01b038316600090815260046020526040812080548492906107ae908490610dd5565b9250508190555081600360008282546107c79190610dd5565b909155505060025460405163a9059cbb60e01b81526001600160a01b038581166004830152602482018590529091169063a9059cbb906044016020604051808303816000875af115801561081f573d6000803e3d6000fd5b505050506040513d601f19601f820116820180604052508101906108439190610d47565b61085f5760405162461bcd60e51b815260040161039690610d69565b826001600160a01b03167fe7b379c6c1fa169e9079c25e9143b127637eef8ec8c9d5c06ddb4ab3e11958888360405161089a91815260200190565b60405180910390a2505050565b600082815260016020819052604090912001546108c3816108cd565b6103258383610942565b6106948133610a02565b6108e18282610697565b6103a95760008281526001602081815260408084206001600160a01b0386168086529252808420805460ff19169093179092559051339285917f2f8788117e7eff1d82e926ec794901d17c78024a50270940304540a733656f0d9190a45050565b61094c8282610697565b156103a95760008281526001602090815260408083206001600160a01b0385168085529252808320805460ff1916905551339285917ff6391f5c32d9c69d2a47ea670b442974b53935d1edc7fd64eb21e047a839171b9190a45050565b6002600054036109fb5760405162461bcd60e51b815260206004820152601f60248201527f5265656e7472616e637947756172643a207265656e7472616e742063616c6c006044820152606401610396565b6002600055565b610a0c8282610697565b6103a957610a1981610a5b565b610a24836020610a6d565b604051602001610a35929190610e0c565b60408051601f198184030181529082905262461bcd60e51b825261039691600401610e81565b60606102f96001600160a01b03831660145b60606000610a7c836002610eb4565b610a87906002610dc2565b67ffffffffffffffff811115610a9f57610a9f610ecb565b6040519080825280601f01601f191660200182016040528015610ac9576020820181803683370190505b509050600360fc1b81600081518110610ae457610ae4610ee1565b60200101906001600160f81b031916908160001a905350600f60fb1b81600181518110610b1357610b13610ee1565b60200101906001600160f81b031916908160001a9053506000610b37846002610eb4565b610b42906001610dc2565b90505b6001811115610bba576f181899199a1a9b1b9c1cb0b131b232b360811b85600f1660108110610b7657610b76610ee1565b1a60f81b828281518110610b8c57610b8c610ee1565b60200101906001600160f81b031916908160001a90535060049490941c93610bb381610ef7565b9050610b45565b508315610c095760405162461bcd60e51b815260206004820181905260248201527f537472696e67733a20686578206c656e67746820696e73756666696369656e746044820152606401610396565b9392505050565b600060208284031215610c2257600080fd5b81356001600160e01b031981168114610c0957600080fd5b80356001600160a01b0381168114610c5157600080fd5b919050565b600060208284031215610c6857600080fd5b610c0982610c3a565b600060208284031215610c8357600080fd5b5035919050565b60008060408385031215610c9d57600080fd5b82359150610cad60208401610c3a565b90509250929050565b60008060408385031215610cc957600080fd5b610cd283610c3a565b946020939093013593505050565b6020808252602e908201527f4c6f636b436f6e74726163743a20416d6f756e74206d7573742062652067726560408201526d61746572207468616e207a65726f60901b606082015260800190565b600060208284031215610d4057600080fd5b5051919050565b600060208284031215610d5957600080fd5b81518015158114610c0957600080fd5b60208082526023908201527f4c6f636b436f6e74726163743a20546f6b656e207472616e73666572206661696040820152621b195960ea1b606082015260800190565b634e487b7160e01b600052601160045260246000fd5b808201808211156102f9576102f9610dac565b818103818111156102f9576102f9610dac565b60005b83811015610e03578181015183820152602001610deb565b50506000910152565b7f416363657373436f6e74726f6c3a206163636f756e7420000000000000000000815260008351610e44816017850160208801610de8565b7001034b99036b4b9b9b4b733903937b6329607d1b6017918401918201528351610e75816028840160208801610de8565b01602801949350505050565b6020815260008251806020840152610ea0816040850160208701610de8565b601f01601f19169190910160400192915050565b80820281158282048414176102f9576102f9610dac565b634e487b7160e01b600052604160045260246000fd5b634e487b7160e01b600052603260045260246000fd5b600081610f0657610f06610dac565b50600019019056fea26469706673582212200542a10fe1602e79563a807cbc6c360504ecdf71caeed45745ac727b4bdace4a64736f6c63430008140033",
  "linkReferences": {},
  "deployedLinkReferences": {}
}