{
  "_format": "hh-sol-artifact-1",
  "contractName": "QuantumResistantSignature",
  "sourceName": "maskly/blockchain/contracts/security/QuantumResistantSignature.sol",
  "abi": [
    {
      "anonymous": false,
      "inputs": [
        {
          "indexed": true,
          "internalType": "address",
          "name": "user",
          "type": "address"
        },
        {
          "indexed": false,
          "internalType": "bytes32",
          "name": "x",
          "type": "bytes32"
        },
        {
          "indexed": false,
          "internalType": "bytes32",
          "name": "y",
          "type": "bytes32"
        }
      ],
      "name": "KeyUpdated",
      "type": "event"
    },
    {
      "inputs": [
        {
          "internalType": "address",
          "name": "",
          "type": "address"
        }
      ],
      "name": "publicKeys",
      "outputs": [
        {
          "internalType": "bytes32",
          "name": "x",
          "type": "bytes32"
        },
        {
          "internalType": "bytes32",
          "name": "y",
          "type": "bytes32"
        }
      ],
      "stateMutability": "view",
      "type": "function"
    },
    {
      "inputs": [
        {
          "components": [
            {
              "internalType": "bytes32",
              "name": "x",
              "type": "bytes32"
            },
            {
              "internalType": "bytes32",
              "name": "y",
              "type": "bytes32"
            }
          ],
          "internalType": "struct QuantumResistantSignature.PublicKey",
          "name": "pk",
          "type": "tuple"
        },
        {
          "internalType": "bytes",
          "name": "sig",
          "type": "bytes"
        }
      ],
      "name": "registerPublicKey",
      "outputs": [],
      "stateMutability": "nonpayable",
      "type": "function"
    },
    {
      "inputs": [
        {
          "internalType": "address",
          "name": "newContract",
          "type": "address"
        }
      ],
      "name": "upgradeAlgorithm",
      "outputs": [],
      "stateMutability": "nonpayable",
      "type": "function"
    },
    {
      "inputs": [
        {
          "internalType": "address",
          "name": "signer",
          "type": "address"
        },
        {
          "internalType": "bytes32",
          "name": "messageHash",
          "type": "bytes32"
        },
        {
          "internalType": "bytes",
          "name": "sig",
          "type": "bytes"
        },
        {
          "internalType": "uint256[2]",
          "name": "proof",
          "type": "uint256[2]"
        }
      ],
      "name": "verify",
      "outputs": [
        {
          "internalType": "bool",
          "name": "",
          "type": "bool"
        }
      ],
      "stateMutability": "view",
      "type": "function"
    }
  ],
  "bytecode": "0x608060405234801561001057600080fd5b50610804806100206000396000f3fe608060405234801561001057600080fd5b506004361061004c5760003560e01c80633f02db7f146100515780634615937914610066578063a3d6f9a91461008e578063c00d5115146100ca575b600080fd5b61006461005f36600461061d565b6100db565b005b6100796100743660046106a4565b61020b565b60405190151581526020015b60405180910390f35b6100b561009c36600461074c565b6000602081905290815260409020805460019091015482565b60408051928352602083019190915201610085565b6100646100d836600461074c565b50565b600082600001518360200151604051602001610101929190918252602082015260400190565b604051602081830303815290604052805190602001209050600061015c83610156847f19457468657265756d205369676e6564204d6573736167653a0a3332000000006000908152601c91909152603c902090565b906102da565b90506001600160a01b03811633146101af5760405162461bcd60e51b8152602060048201526011602482015270496e76616c6964207369676e617475726560781b60448201526064015b60405180910390fd5b336000818152602081815260409182902087518082558883015160019092018290558351908152918201527fd16b85dcfdd1b6536b7b43ac844f67aee597852ea9536d94c2876ea56f90dd01910160405180910390a250505050565b6001600160a01b03841660009081526020818152604080832081518083019092528054808352600190910154928201929092529061028b5760405162461bcd60e51b815260206004820152601960248201527f5075626c6963206b6579206e6f7420726567697374657265640000000000000060448201526064016101a6565b60008160000151826020015187866040516020016102ac949392919061076e565b6040516020818303038152906040528051906020012090508480519060200120811492505050949350505050565b60008060006102e985856102fe565b915091506102f681610343565b509392505050565b60008082516041036103345760208301516040840151606085015160001a6103288782858561048d565b9450945050505061033c565b506000905060025b9250929050565b6000816004811115610357576103576107b8565b0361035f5750565b6001816004811115610373576103736107b8565b036103c05760405162461bcd60e51b815260206004820152601860248201527f45434453413a20696e76616c6964207369676e6174757265000000000000000060448201526064016101a6565b60028160048111156103d4576103d46107b8565b036104215760405162461bcd60e51b815260206004820152601f60248201527f45434453413a20696e76616c6964207369676e6174757265206c656e6774680060448201526064016101a6565b6003816004811115610435576104356107b8565b036100d85760405162461bcd60e51b815260206004820152602260248201527f45434453413a20696e76616c6964207369676e6174757265202773272076616c604482015261756560f01b60648201526084016101a6565b6000807f7fffffffffffffffffffffffffffffff5d576e7357a4501ddfe92f46681b20a08311156104c45750600090506003610548565b6040805160008082526020820180845289905260ff881692820192909252606081018690526080810185905260019060a0016020604051602081039080840390855afa158015610518573d6000803e3d6000fd5b5050604051601f1901519150506001600160a01b03811661054157600060019250925050610548565b9150600090505b94509492505050565b634e487b7160e01b600052604160045260246000fd5b6040805190810167ffffffffffffffff8111828210171561058a5761058a610551565b60405290565b600082601f8301126105a157600080fd5b813567ffffffffffffffff808211156105bc576105bc610551565b604051601f8301601f19908116603f011681019082821181831017156105e4576105e4610551565b816040528381528660208588010111156105fd57600080fd5b836020870160208301376000602085830101528094505050505092915050565b600080828403606081121561063157600080fd5b604081121561063f57600080fd5b50610648610567565b83358152602080850135908201529150604083013567ffffffffffffffff81111561067257600080fd5b61067e85828601610590565b9150509250929050565b80356001600160a01b038116811461069f57600080fd5b919050565b60008060008060a085870312156106ba57600080fd5b6106c385610688565b93506020808601359350604086013567ffffffffffffffff8111156106e757600080fd5b6106f388828901610590565b93505086607f87011261070557600080fd5b61070d610567565b8060a088018981111561071f57600080fd5b606089015b8181101561073b5780358452928401928401610724565b505080935050505092959194509250565b60006020828403121561075e57600080fd5b61076782610688565b9392505050565b848152600060208581840152846040840152606083018460005b60028110156107a557815183529183019190830190600101610788565b5050505060a08201905095945050505050565b634e487b7160e01b600052602160045260246000fdfea26469706673582212204c9b36076eeaf08a547f481b4a106c8c23d72847ef39b05d3b7463a7c5d274cb64736f6c63430008140033",
  "linkReferences": {},
  "deployedLinkReferences": {}
}