{
  "_format": "hh-sol-artifact-1",
  "contractName": "MultiSig",
  "sourceName": "maskly/blockchain/contracts/utils/MultiSig.sol",
  "abi": [
    {
      "inputs": [
        {
          "internalType": "uint256",
          "name": "_requiredConfirmations",
          "type": "uint256"
        }
      ],
      "stateMutability": "nonpayable",
      "type": "constructor"
    },
    {
      "anonymous": false,
      "inputs": [
        {
          "indexed": true,
          "internalType": "address",
          "name": "previousOwner",
          "type": "address"
        },
        {
          "indexed": true,
          "internalType": "address",
          "name": "newOwner",
          "type": "address"
        }
      ],
      "name": "OwnershipTransferred",
      "type": "event"
    },
    {
      "anonymous": false,
      "inputs": [
        {
          "indexed": true,
          "internalType": "uint256",
          "name": "txId",
          "type": "uint256"
        },
        {
          "indexed": true,
          "internalType": "address",
          "name": "owner",
          "type": "address"
        }
      ],
      "name": "TransactionConfirmed",
      "type": "event"
    },
    {
      "anonymous": false,
      "inputs": [
        {
          "indexed": true,
          "internalType": "uint256",
          "name": "txId",
          "type": "uint256"
        },
        {
          "indexed": true,
          "internalType": "address",
          "name": "to",
          "type": "address"
        },
        {
          "indexed": false,
          "internalType": "uint256",
          "name": "value",
          "type": "uint256"
        },
        {
          "indexed": false,
          "internalType": "bytes",
          "name": "data",
          "type": "bytes"
        }
      ],
      "name": "TransactionCreated",
      "type": "event"
    },
    {
      "anonymous": false,
      "inputs": [
        {
          "indexed": true,
          "internalType": "uint256",
          "name": "txId",
          "type": "uint256"
        }
      ],
      "name": "TransactionExecuted",
      "type": "event"
    },
    {
      "inputs": [
        {
          "internalType": "uint256",
          "name": "txId",
          "type": "uint256"
        }
      ],
      "name": "confirmTransaction",
      "outputs": [],
      "stateMutability": "nonpayable",
      "type": "function"
    },
    {
      "inputs": [
        {
          "internalType": "uint256",
          "name": "",
          "type": "uint256"
        },
        {
          "internalType": "address",
          "name": "",
          "type": "address"
        }
      ],
      "name": "confirmations",
      "outputs": [
        {
          "internalType": "bool",
          "name": "",
          "type": "bool"
        }
      ],
      "stateMutability": "view",
      "type": "function"
    },
    {
      "inputs": [
        {
          "internalType": "address",
          "name": "to",
          "type": "address"
        },
        {
          "internalType": "uint256",
          "name": "value",
          "type": "uint256"
        },
        {
          "internalType": "bytes",
          "name": "data",
          "type": "bytes"
        }
      ],
      "name": "createTransaction",
      "outputs": [
        {
          "internalType": "uint256",
          "name": "",
          "type": "uint256"
        }
      ],
      "stateMutability": "nonpayable",
      "type": "function"
    },
    {
      "inputs": [],
      "name": "owner",
      "outputs": [
        {
          "internalType": "address",
          "name": "",
          "type": "address"
        }
      ],
      "stateMutability": "view",
      "type": "function"
    },
    {
      "inputs": [],
      "name": "renounceOwnership",
      "outputs": [],
      "stateMutability": "nonpayable",
      "type": "function"
    },
    {
      "inputs": [],
      "name": "requiredConfirmations",
      "outputs": [
        {
          "internalType": "uint256",
          "name": "",
          "type": "uint256"
        }
      ],
      "stateMutability": "view",
      "type": "function"
    },
    {
      "inputs": [],
      "name": "transactionCount",
      "outputs": [
        {
          "internalType": "uint256",
          "name": "",
          "type": "uint256"
        }
      ],
      "stateMutability": "view",
      "type": "function"
    },
    {
      "inputs": [
        {
          "internalType": "uint256",
          "name": "",
          "type": "uint256"
        }
      ],
      "name": "transactions",
      "outputs": [
        {
          "internalType": "uint256",
          "name": "id",
          "type": "uint256"
        },
        {
          "internalType": "address",
          "name": "to",
          "type": "address"
        },
        {
          "internalType": "uint256",
          "name": "value",
          "type": "uint256"
        },
        {
          "internalType": "bytes",
          "name": "data",
          "type": "bytes"
        },
        {
          "internalType": "uint256",
          "name": "confirmations",
          "type": "uint256"
        },
        {
          "internalType": "bool",
          "name": "executed",
          "type": "bool"
        }
      ],
      "stateMutability": "view",
      "type": "function"
    },
    {
      "inputs": [
        {
          "internalType": "address",
          "name": "newOwner",
          "type": "address"
        }
      ],
      "name": "transferOwnership",
      "outputs": [],
      "stateMutability": "nonpayable",
      "type": "function"
    }
  ],
  "bytecode": "0x608060405234801561001057600080fd5b50604051610d1b380380610d1b83398101604081905261002f916100fa565b610038336100aa565b600081116100a25760405162461bcd60e51b815260206004820152602d60248201527f526571756972656420636f6e6669726d6174696f6e73206d757374206265206760448201526c0726561746572207468616e203609c1b606482015260840160405180910390fd5b600355610113565b600080546001600160a01b038381166001600160a01b0319831681178455604051919092169283917f8be0079c531659141344cd1fd0a4f28419497f9722a3daafe3b4186f6b6457e09190a35050565b60006020828403121561010c57600080fd5b5051919050565b610bf9806101226000396000f3fe608060405234801561001057600080fd5b50600436106100935760003560e01c80639ace38c2116100665780639ace38c214610117578063a9496e751461013c578063b77bf6001461014f578063c01a8c8414610158578063f2fde38b1461016b57600080fd5b80633411c81c14610098578063715018a6146100db57806382e717f7146100e55780638da5cb5b146100fc575b600080fd5b6100c66100a63660046107e7565b600260209081526000928352604080842090915290825290205460ff1681565b60405190151581526020015b60405180910390f35b6100e361017e565b005b6100ee60035481565b6040519081526020016100d2565b6000546040516001600160a01b0390911681526020016100d2565b61012a610125366004610813565b610192565b6040516100d296959493929190610872565b6100ee61014a3660046108cf565b61025e565b6100ee60045481565b6100e3610166366004610813565b610378565b6100e361017936600461099a565b6104db565b610186610551565b61019060006105ab565b565b600160208190526000918252604090912080549181015460028201546003830180546001600160a01b039093169391926101cb906109bc565b80601f01602080910402602001604051908101604052809291908181526020018280546101f7906109bc565b80156102445780601f1061021957610100808354040283529160200191610244565b820191906000526020600020905b81548152906001019060200180831161022757829003601f168201915b50505050600483015460059093015491929160ff16905086565b6000610268610551565b6004546040805160c0810182528281526001600160a01b0387811660208084019182528385018981526060850189815260006080870181905260a087018190528881526001938490529690962085518155925191830180546001600160a01b031916929094169190911790925590516002820155915190919060038201906102f09082610a45565b50608082015160048281019190915560a0909201516005909101805460ff1916911515919091179055805490600061032783610b05565b9190505550846001600160a01b0316817f453e07a951b5abb44cc647534a150065e3a308fec0dc01fda6ca43a4984f835b8686604051610368929190610b2c565b60405180910390a3949350505050565b610380610551565b60008181526001602052604090206005015460ff16156103e75760405162461bcd60e51b815260206004820152601c60248201527f5472616e73616374696f6e20616c72656164792065786563757465640000000060448201526064015b60405180910390fd5b600081815260026020908152604080832033845290915290205460ff16156104455760405162461bcd60e51b8152602060048201526011602482015270105b1c9958591e4818dbdb999a5c9b5959607a1b60448201526064016103de565b60008181526002602090815260408083203384528252808320805460ff19166001908117909155848452909152812060040180549161048383610b05565b9091555050604051339082907f15c2f311c9e0f53b50388279894aeff029a3457884a6601e924fca879e12adcc90600090a3600354600082815260016020526040902060040154106104d8576104d8816105fb565b50565b6104e3610551565b6001600160a01b0381166105485760405162461bcd60e51b815260206004820152602660248201527f4f776e61626c653a206e6577206f776e657220697320746865207a65726f206160448201526564647265737360d01b60648201526084016103de565b6104d8816105ab565b6000546001600160a01b031633146101905760405162461bcd60e51b815260206004820181905260248201527f4f776e61626c653a2063616c6c6572206973206e6f7420746865206f776e657260448201526064016103de565b600080546001600160a01b038381166001600160a01b0319831681178455604051919092169283917f8be0079c531659141344cd1fd0a4f28419497f9722a3daafe3b4186f6b6457e09190a35050565b600354600082815260016020526040902060040154101561065e5760405162461bcd60e51b815260206004820152601860248201527f4e6f7420656e6f75676820636f6e6669726d6174696f6e73000000000000000060448201526064016103de565b60008181526001602052604090206005015460ff16156106c05760405162461bcd60e51b815260206004820152601c60248201527f5472616e73616374696f6e20616c72656164792065786563757465640000000060448201526064016103de565b600081815260016020819052604080832060058101805460ff19168417905591820154600283015491519293926001600160a01b039091169190610708906003860190610b4d565b60006040518083038185875af1925050503d8060008114610745576040519150601f19603f3d011682016040523d82523d6000602084013e61074a565b606091505b505090508061079b5760405162461bcd60e51b815260206004820152601c60248201527f5472616e73616374696f6e20657865637574696f6e206661696c65640000000060448201526064016103de565b60405183907f15ed165a284872ea7017f03df402a0cadfbfab588320ffaf83f160c2f82781c790600090a2505050565b80356001600160a01b03811681146107e257600080fd5b919050565b600080604083850312156107fa57600080fd5b8235915061080a602084016107cb565b90509250929050565b60006020828403121561082557600080fd5b5035919050565b6000815180845260005b8181101561085257602081850181015186830182015201610836565b506000602082860101526020601f19601f83011685010191505092915050565b86815260018060a01b038616602082015284604082015260c06060820152600061089f60c083018661082c565b60808301949094525090151560a090910152949350505050565b634e487b7160e01b600052604160045260246000fd5b6000806000606084860312156108e457600080fd5b6108ed846107cb565b925060208401359150604084013567ffffffffffffffff8082111561091157600080fd5b818601915086601f83011261092557600080fd5b813581811115610937576109376108b9565b604051601f8201601f19908116603f0116810190838211818310171561095f5761095f6108b9565b8160405282815289602084870101111561097857600080fd5b8260208601602083013760006020848301015280955050505050509250925092565b6000602082840312156109ac57600080fd5b6109b5826107cb565b9392505050565b600181811c908216806109d057607f821691505b6020821081036109f057634e487b7160e01b600052602260045260246000fd5b50919050565b601f821115610a4057600081815260208120601f850160051c81016020861015610a1d5750805b601f850160051c820191505b81811015610a3c57828155600101610a29565b5050505b505050565b815167ffffffffffffffff811115610a5f57610a5f6108b9565b610a7381610a6d84546109bc565b846109f6565b602080601f831160018114610aa85760008415610a905750858301515b600019600386901b1c1916600185901b178555610a3c565b600085815260208120601f198616915b82811015610ad757888601518255948401946001909101908401610ab8565b5085821015610af55787850151600019600388901b60f8161c191681555b5050505050600190811b01905550565b600060018201610b2557634e487b7160e01b600052601160045260246000fd5b5060010190565b828152604060208201526000610b45604083018461082c565b949350505050565b6000808354610b5b816109bc565b60018281168015610b735760018114610b8857610bb7565b60ff1984168752821515830287019450610bb7565b8760005260208060002060005b85811015610bae5781548a820152908401908201610b95565b50505082870194505b5092969550505050505056fea2646970667358221220bdb718b9a6427dac6beb91ec3625dc5a0dc2ee63a05f1c2f8ce916c85880bf4b64736f6c63430008140033",
  "linkReferences": {},
  "deployedLinkReferences": {}
}